:100000000C9490000C94C1000C94C1000C94C1009D
:100010000C94C1000C94C1000C94C1000C94C1005C
:100020000C94C1000C94C1000C94C1000C94C1004C
:100030000C94C1000C94C1000C94C1000C94C1003C
:100040000C94C1000C94C1000C94C1000C94C1002C
:100050000C94C1000C94C1000C94C1000C945E1E61
:100060000C94C1000C94CE1F0C94A41F0C94C100DE
:100070000C94C1000C94C1000C94C1000C94C100FC
:100080000C94C1000C94C1000C94C1000C94C100EC
:100090000C947A1F0C94501F0C94C1000C94C10056
:1000A0000C94C1000C94C1000C94C1000C94C100CC
:1000B0000C94C1000C94C1000C94C1000C94C100BC
:1000C0000C94C1000C94C1000C94C1000C94261F28
:1000D0000C94FC1E0C94C1000C94D21E0C94A81E0F
:1000E0000C94C1000C94EC1D0C94CF1D0C943402A4
:1000F0000C940A1E0C948D1D0C9491010C946001BB
:100100000C94E7010C949C220C941A010C941B2073
:100110000C94BD1D0C946F010C9483011B209C2238
:1001200011241FBECFEFD1E2DEBFCDBF00E00CBF78
:1001300029E1A6E1B4E001C01D92A73CB207E1F7B6
:1001400014E0A0E0B2E0ECEAFEE400E00BBF02C085
:1001500007900D92A631B107D9F710E0CFE8D0E0B3
:1001600000E006C021970109802FFE010E9426258C
:10017000CE38D10780E00807A9F70E9471210C94BE
:1001800044270C940000FC01A089B18982E08C9383
:10019000A089B1891C92A485B5851C92A685B785D6
:1001A00080E18C93108EA489B58986E08C93A28916
:1001B000B3898C9180618C93A289B3898C9188607A
:1001C0008C93A289B3898C9180688C930288F3897F
:1001D000E02D80818F7D808308952FB7F894609102
:1001E000D5137091D6138091D7139091D8132FBF48
:1001F0000895FC01248135816217730720F4808102
:100200009181009729F41092DA0D8AED9DE008950E
:10021000860F971F08950895DB0114964D915C9108
:1002200015976D917C91DC01ED91FC910280F38139
:10023000E02D1994AF92BF92CF92DF92EF92FF928E
:100240000F931F93CF93DF936C017B018B01040FFE
:10025000151FEB015E01AE18BF08C017D10759F09A
:100260006991D601ED91FC910190F081E02DC601DC
:100270001995892B79F7C501DF91CF911F910F91C6
:10028000FF90EF90DF90CF90BF90AF900895FC016A
:10029000A089B1898C91A689B78982FD0FC09C91F4
:1002A000818D8F5F8F73228D821749F0A18DAE0FE4
:1002B000BF2FB11D5D969C93818F08958C910895F9
:1002C000FC01538D448D252F30E0842F90E0821B5C
:1002D000930B541710F0CF96089501970895FC01E1
:1002E000918D828D981761F0A28DAE0FBF2FB11D39
:1002F0005D968C91928D9F5F9F73928F90E0089591
:100300008FEF9FEF0895FC01918D828D981731F04A
:10031000828DE80FF11D858D90E008958FEF9FEF9E
:100320000895FC01918D228D892F90E0805C9F4F74
:10033000821B91098F739927089589ED93E10E949B
:10034000910121E0892B09F420E0822F089586E7AE
:1003500094E10E94910121E0892B09F420E0822F91
:10036000089583E195E10E94910121E0892B09F430
:1003700020E0822F089580EB95E10E94910121E019
:10038000892B09F420E0822F0895FC01A48DA80F89
:10039000B92FB11DA35ABF4F2C91848D90E00196C7
:1003A0008F739927848FA689B7892C93A089B189E7
:1003B0008C91837080648C93938D848D981306C088
:1003C0000288F389E02D80818F7D80830895EF92EC
:1003D000FF920F931F93CF93DF93EC0181E0888FFF
:1003E0009B8D8C8D98131AC0E889F989808185FFCF
:1003F00015C09FB7F894EE89FF896083E889F98971
:1004000080818370806480839FBF81E090E0DF9172
:10041000CF911F910F91FF90EF900895F62E0B8DC5
:1004200010E00F5F1F4F0F731127E02E8C8D8E1180
:100430000CC00FB607FCFACFE889F989808185FFE7
:10044000F5CFCE010E94C501F1CFEB8DEC0FFD2F52
:10045000F11DE35AFF4FF0829FB7F8940B8FEA89A2
:10046000FB8980818062CFCFCF93DF93EC01888DB1
:100470008823B9F0AA89BB89E889F9898C9185FD1F
:1004800003C0808186FD0DC00FB607FCF7CF8C91AD
:1004900085FFF2CF808185FFEDCFCE010E94C5019F
:1004A000E9CFDF91CF91089580E090E0892B29F08A
:1004B0000E94BB0181110E94000080E090E0892B26
:1004C00029F00E94B10181110E94000080E090E0BB
:1004D000892B29F00E94A70181110E94000080E071
:1004E00090E0892B29F00E949D0181110C9400005D
:1004F0000895633031F5843F21E0920700F545E02F
:10050000489F9001499F300D1124F901EA51F44FA1
:100510008081982F9B7F923609F4ACC0893609F40C
:10052000A9C0833509F4A6C08C3609F4A3C02153B1
:10053000304F81E0F9019081933609F499C080E051
:1005400008956430F9F4843FF1E09F07C0F725E097
:10055000289FF001299FF00D1124EE50F64F908155
:100560008EE9890F823008F485C0993609F482C07B
:10057000963609F47FC081E0933509F47AC09C3641
:10058000F1F676C06530D9F4843F21E09207B8F6E1
:10059000689FF001699FF00D1124E250F84F90819F
:1005A0008EE9890F823008F465C0993609F462C07B
:1005B000963609F45FC081E0933509F708956630F7
:1005C000E9F4843FE1E09E0708F0B9CF25E0289FD9
:1005D000F001299FF00D1124E65FF94F90818EE91B
:1005E000890F823008F446C0993609F443C0963624
:1005F00009F440C081E0933511F608956730D9F4CD
:10060000843FF1E09F0708F09ACF25E0289FF00192
:10061000299FF00D1124ED53FE4E90818EE9890F34
:10062000823040F1993631F1963621F181E09335EF
:1006300009F0A5CF0895683009F081CF843F21E00B
:10064000920708F07CCF25E0289FF001299FF00D4C
:100650001124E552F24F90818EE9890F823050F0DB
:10066000993641F0963631F081E0933509F087CF25
:100670000895089581E00895FC0180E0623071F0F2
:1006800024813581232BB9F0A081B1819C919923DC
:1006900091F08F5F3996853099F7089524813581DF
:1006A000232B49F0A081B1819C91992321F08F5F88
:1006B00039968A3099F708950F931F93CF93DF935C
:1006C0008C01D0E0C0E0C134D10581F0BE01C80189
:1006D0000E94F900FC0180818F3331F48C2FDF916F
:1006E000CF911F910F9108952196EDCFD0E0C0E0FA
:1006F000C134D10551F0BE01C8010E94F900FC01CE
:1007000080818D3359F32196F3CFE9CFCF93DF93D7
:10071000EC0170E060E00E94F900FC01808183340C
:1007200031F170E060E0CE010E94F900FC018081AF
:10073000863449F461E070E0CE010E94F900FC01CA
:1007400080818334E9F070E060E0CE010E94F9001E
:10075000FC0180818334C1F461E070E0CE010E942D
:10076000F900FC018081823579F482E00AC061E001
:1007700070E0CE010E94F900FC018081863489F688
:1007800081E0DF91CF91089570E060E0CE010E949A
:10079000F900FC018081823549F461E070E0CE010E
:1007A0000E94F900FC0180818334F9F270E060E07E
:1007B000CE010E94F900FC018081833459F461E08C
:1007C00070E0CE010E94F900FC0180818D3411F4AB
:1007D00083E0D7CF70E060E0CE010E94F900FC0119
:1007E00080818D3449F461E070E0CE010E94F9000F
:1007F000FC018081833461F370E060E0CE010E94EF
:10080000F900FC018081823559F461E070E0CE018D
:100810000E94F900FC018081863411F484E0B1CF9C
:1008200070E060E0CE010E94F900FC018081863416
:1008300049F461E070E0CE010E94F900FC01808182
:10084000823561F370E060E0CE010E94F900FC01A6
:100850008081823559F461E070E0CE010E94F90098
:10086000FC0180818D3411F485E08BCF70E060E075
:10087000CE010E94F900FC0180818D3449F461E0D1
:1008800070E0CE010E94F900FC018081823561F3A5
:1008900070E060E0CE010E94F900FC0180818634A6
:1008A00059F461E070E0CE010E94F900FC01808102
:1008B0008D3411F486E065CF70E060E0CE010E94D7
:1008C000F900FC0180818D3449F461E070E0CE01D3
:1008D0000E94F900FC018081863461F387E051CFEA
:1008E000CF93DF93EC0170E060E00E94F900FC011F
:1008F0008081833439F170E060E0CE010E94F9001C
:10090000FC018081863449F461E070E0CE010E94F0
:10091000F900FC0180818334F1F070E060E0CE01E9
:100920000E94F900FC0180818334D1F461E070E021
:10093000CE010E94F900FC018081823589F48FECA0
:100940009FE00BC061E070E0CE010E94F900FC0165
:100950008081863481F686E194E0DF91CF9108951D
:1009600070E060E0CE010E94F900FC0180818235D8
:1009700049F461E070E0CE010E94F900FC01808141
:100980008334E9F270E060E0CE010E94F900FC01DE
:100990008081833461F461E070E0CE010E94F9004F
:1009A000FC0180818D3419F486EE9BE0D6CF70E097
:1009B00060E0CE010E94F900FC0180818D3449F491
:1009C00061E070E0CE010E94F900FC018081833477
:1009D00059F370E060E0CE010E94F900FC018081D3
:1009E000823561F461E070E0CE010E94F900FC0103
:1009F0008081863419F482EF99E0AFCF70E060E037
:100A0000CE010E94F900FC018081863449F461E046
:100A100070E0CE010E94F900FC018081823559F31B
:100A200070E060E0CE010E94F900FC018081823517
:100A300061F461E070E0CE010E94F900FC01808168
:100A40008D3419F48EEF97E088CF70E060E0CE012E
:100A50000E94F900FC0180818D3449F461E070E06E
:100A6000CE010E94F900FC018081823559F370E0CB
:100A700060E0CE010E94F900FC018081863461F4BF
:100A800061E070E0CE010E94F900FC0180818D34AC
:100A900019F48AE096E061CF70E060E0CE010E9438
:100AA000F900FC0180818D3449F461E070E0CE01F1
:100AB0000E94F900FC018081863459F38BED9DE0A2
:100AC0004CCFCF93DF93EC0180914D168D3409F418
:100AD00053C061E070E0CE010E94F900FC0180810A
:100AE0008D3419F48CEE96E144C070E060E0CE01E4
:100AF0000E94F900FC0180818D34A1F370E060E078
:100B0000CE010E94F900FC018081833439F170E04C
:100B100060E0CE010E94F900FC018081823549F439
:100B200061E070E0CE010E94F900FC018081833415
:100B3000F1F070E060E0CE010E94F900FC018081DC
:100B4000863449F461E070E0CE010E94F900FC01B6
:100B50008081823561F08AEB97E10BC061E070E043
:100B6000CE010E94F900FC018081823581F683E587
:100B700097E1DF91CF91089570E060E0CE010E948F
:100B8000F900FC018081833409F49AC070E060E0D0
:100B9000CE010E94F900FC018081863451F461E0AD
:100BA00070E0CE010E94F900FC018081823509F4D9
:100BB00091C070E060E0CE010E94F900FC018081EC
:100BC0008D3451F461E070E0CE010E94F900FC0127
:100BD0008081823509F47EC070E060E0CE010E9421
:100BE000F900FC018081863451F461E070E0CE01AF
:100BF0000E94F900FC018081833409F4B8CF70E0D1
:100C000060E0CE010E94F900FC018081823551F440
:100C100061E070E0CE010E94F900FC018081833424
:100C200009F4A5CF70E060E0CE010E94F900FC015C
:100C300080818D3451F461E070E0CE010E94F900B2
:100C4000FC018081833409F492CF70E060E0CE0132
:100C50000E94F900FC018081833451F461E070E06E
:100C6000CE010E94F900FC018081863409F473CF23
:100C700070E060E0CE010E94F900FC0180818235C5
:100C800051F461E070E0CE010E94F900FC01808126
:100C9000863409F460CF70E060E0CE010E94F90074
:100CA000FC0180818D3409F01DCF61E070E0CE0140
:100CB0000E94F900FC018081863409F013CF4BCFEC
:100CC00061E070E0CE010E94F900FC018081823574
:100CD00009F05CCF81E298E14CCF6130E1F4843FD0
:100CE00021E09207B0F425E0289FF001299FF00D44
:100CF0001124EA5EFB4F90818EE9890F823048F122
:100D0000993639F1963629F181E0933509F19C360F
:100D1000E1F080E008956230C9F4843F21E0920759
:100D2000C0F725E0289FF001299FF00D1124E15321
:100D3000F04F90818EE9890F823058F0993649F052
:100D4000963639F081E0933511F708950C947902C5
:100D5000089581E00895FC0180E090E0219128371A
:100D600009F4892F9F5F9134C9F708950F931F935A
:100D7000CF93DF93EC018B010E94AB06FE0190E064
:100D800020E0682F6250770BAB01BF016C1B7D0B1D
:100D90006417750724F431912327930FF6CFF801D8
:100DA0008681821303C081E02781291380E0DF91CF
:100DB000CF911F910F910895DC01ED91FC9101906D
:100DC000F081E02D1994FC01DB0111821082138265
:100DD0001282158214828D919C9111979183808348
:100DE00012968D919C9113979383828314968D9183
:100DF0009C9115979583848311961C921E9213964D
:100E00001C921E92129715961C921E92149716967B
:100E10008C911697868317968C91179787831896CF
:100E20008C9180870895FB0101900020E9F73197AC
:100E3000AF01461B570BDC01ED91FC910280F38161
:100E4000E02D1994CF93DF93BC0189ED93E10E94CB
:100E50000C01EC0168E172E089ED93E10E94130757
:100E60008C0F9D1FDF91CF9108958F929F92AF922B
:100E7000BF920F931F93CF93DF93CDB7DEB7A197A8
:100E80000FB6F894DEBF0FBECDBF19A2423008F4F2
:100E90004AE08E010F5D1F4F842E912CB12CA12CA6
:100EA000A50194010E940425E62FB901CA01EA3088
:100EB00004F5E05DD801EE938D01232B242B252B27
:100EC00079F790E080E0109729F0BD0189ED93E17A
:100ED0000E941307A1960FB6F894DEBF0FBECDBFD8
:100EE000DF91CF911F910F91BF90AF909F908F9006
:100EF0000895E95CDFCFCF92DF92EF92FF92CF931C
:100F0000DF936B017C016DE289ED93E10E94E701C3
:100F1000EC0166277727CB016C197D098E099F09A3
:100F20004AE00E9435078C0F9D1FDF91CF91FF9003
:100F3000EF90DF90CF900895CF93DF93682F70E00C
:100F400090E080E04AE00E943507EC0168E172E041
:100F500089ED93E10E9413078C0F9D1FDF91CF91C4
:100F60000895CF93DF93BC01990F880B990B97FFDE
:100F70000EC00E947B07EC0168E172E089ED93E10D
:100F80000E9413078C0F9D1FDF91CF9108954AE0B7
:100F90000E943507F0CF0F931F93CF93DF93EC019F
:100FA0000E9413078C0168E172E0CE010E941307D2
:100FB000800F911FDF91CF911F910F910895FC0138
:100FC000E25AFF4F2081233038F06BE172E089ED67
:100FD00093E10E94CB07FFCF2F5F2083FC01E65AED
:100FE000FF4F1082855A9F4FFC0110820895FF9297
:100FF0000F931F93CF93DF938C01DC0114968C9198
:1010000093E0F92EF80E6BE272E089ED93E10E9415
:10101000CB078F2D0E949C07CDE4D6E16AE372E0F6
:1010200089859A850E94130789859A85DC01ED914F
:10103000FC910190F081E02D6F2D1995B801898503
:101040009A850E940C0189859A85DC01ED91FC91BD
:101050000190F081E02DD80116966C911995898543
:101060009A85DC01ED91FC910190F081E02DD80191
:1010700017966C91199568E770E089859A850E94AA
:10108000DC060E94ED006D837E838F839887DF915D
:10109000CF911F910F91FF900895FC018081918164
:1010A000009711F00C94D42260E070E0CB01089519
:1010B0000F931F93CF93DF938C01EB01FC01808191
:1010C00091810097E1F06881798161157105A9F03E
:1010D000428153812C813D814217530770F00E9459
:1010E0003D278C819D81F801958384831D821C821C
:1010F000DF91CF911F910F9108950E94CA25888199
:101100009981F801918380838A819B819383828373
:101110008C819D8195838483198218821B821A8217
:10112000E5CFCF93DF93EC0188819981009711F08F
:101130000E94CA25198218821D821C821B821A8273
:10114000DF91CF910895FC0180819181009711F08A
:101150000C94CA2508950F931F93CF93DF938C01AE
:10116000EC01C65ADF4F0C171D0729F02997CE0155
:101170000E94A308F8CFDF91CF911F910F9108959E
:101180000F931F93CF93DF93EC0188819981009790
:1011900059F02A813B812617370730F081E0DF9133
:1011A000CF911F910F9108958B016F5F7F4F0E9428
:1011B0005326009759F0998388831B830A832C81D7
:1011C0003D81232B59F7FC011082E8CF80E0E7CF67
:1011D000EF92FF920F931F93CF93DF9361157105E9
:1011E00041F480E0DF91CF911F910F91FF90EF903C
:1011F000089541155105B1F07B01EC010C811D8171
:10120000040F151FB8010E94C008882351F32881DC
:1012100039818C819D81B701820F931F0E943D27E8
:101220001D830C8381E0DECFCF93DF93EC01FB01C4
:1012300001900020E9F73197AF01461B570B0E9440
:10124000E808811103C0CE010E949108CE01DF9110
:10125000CF910895CF93DF93EC01FB014481558139
:10126000608171810E94E808811103C0CE010E9453
:101270009108CE01DF91CF910895EF92FF920F93E5
:101280001F93CF93DF93EC017B018A01BA010E9487
:10129000C00881110BC0CE010E949108CE01DF91E0
:1012A000CF911F910F91FF90EF9008951D830C83B4
:1012B000B701888199810E943D27F0CFFB01019001
:1012C0000020E9F73197AF01461B570B0C943D09FD
:1012D000CF93DF931F921F92CDB7DEB7FC0111822F
:1012E0001082138212821582148269831A82BE01CF
:1012F0006F5F7F4F0E945E090F900F90DF91CF913B
:101300000895CF93DF93EC01FB018617970749F00F
:10131000608171816115710541F0448155810E94A0
:101320003D09CE01DF91CF9108950E949108F9CF38
:10133000FC011182108213821282158214820C9495
:1013400081090F931F93CF93DF9300D000D0CDB7C7
:10135000DEB7BC01CE0101960E949809CE0101962C
:101360000E9461058C01CE0101960E94A3080E9493
:10137000ED00015A1F4F0E943F23F80160837183E3
:101380008283938326960FB6F894DEBF0FBECDBF3F
:10139000DF91CF911F910F9108950F931F93CF93DA
:1013A000DF93EC018B010E949809F80186818E83FE
:1013B00087818F8380858887DF91CF911F910F91DF
:1013C0000895EF92FF920F931F93CF93DF93EC0159
:1013D0008B01F12CE12CB8016E0D7F1DCE018E0D1D
:1013E0009F1D0E94CD0989E0E80EF11C8AE5E816F0
:1013F000F10489F7F801E65AFF4F8081FE01E65AB1
:10140000FF4F8083F801E55AFF4F8081FE01E55AC6
:10141000FF4F8083F801E45AFF4F8081FE01E45AB8
:10142000FF4F8083F801E35AFF4F8081FE01E35AAA
:10143000FF4F8083F801E25AFF4F8081FE01E25A9C
:10144000FF4F8083F801E15AFF4F80819181A28193
:10145000B381FE01E15AFF4F80839183A283B3835E
:10146000F801ED59FF4F80819181FE01ED59FF4F49
:1014700091838083F801EB59FF4F80819181CB5993
:10148000DF4F99838883DF91CF911F910F91FF9058
:10149000EF9008950F931F93CF93DF93EC018B018F
:1014A0000E948109F80186818E8387818F838085E0
:1014B0008887CE01DF91CF911F910F910895CF9230
:1014C000DF92EF92FF920F931F93CF93DF931092CF
:1014D0004E1670E060E00E94F900FC0180818534C6
:1014E00009F066C010924F166CE372E089ED93E14B
:1014F0000E94CB0761E08FEB96E10E943C030E94C3
:101500009C0761E08FEB96E10E943C03D82F0FEB24
:1015100016E1C0E0DC1317C0F9E0FF9E6001112462
:1015200010E000E0075F1F4FFC1668F5C80181540A
:10153000994EBC016C0D7D1D09978C0D9D1D0E945F
:101540004A0AF394EFCF70E060E0C8010E94F9000E
:10155000FC018081853499F462E070E0C8010E944A
:10156000F900FC018081873551F062E070E0C8012C
:101570000E94F900FC0180818F3409F0FC2ECF5FBE
:10158000075F1F4FC7CF6FE572E089ED93E10E94BF
:10159000CB0761E08FEB96E10E943C03DF91CF9196
:1015A0001F910F91FF90EF90DF90CF900C949C07CC
:1015B0001092501661E08FEB96E10E943C03F82EEA
:1015C0000FEB16E1C0E0FC1217C0F9E0DF9F7001DD
:1015D000112410E000E0075F1F4FDC1768F5C80119
:1015E0008154994EBC016E0D7F1D09978E0D9F1D74
:1015F0000E944A0ADF5FEFCF70E060E0C8010E94FE
:10160000F900FC018081873599F462E070E0C8013F
:101610000E94F900FC018081873551F062E070E0A2
:10162000C8010E94F900FC0180818F3409F0DC2F91
:10163000CF5F075F1F4FC7CFDF91CF911F910F91F2
:10164000FF90EF90DF90CF900895BF92CF92DF92FE
:10165000EF92FF920F931F93CF93DF9300D000D0B0
:10166000CDB7DEB77C01D62E8FEF860F863098F48B
:1016700061E0C7010E943C03082FC70110E010176A
:1016800009F45DC00996FC01319720812D1509F4FC
:1016900056C01F5FF4CF62E0C7010E943C03082FD1
:1016A00024E1D21641F185E1D812E7CF670110E0BD
:1016B000101709F444C0F60180858431B9F4B601ED
:1016C000CE0101960E949809CE0101960E945C030A
:1016D000682F70E0C6010E94F900FC01B080CE01C5
:1016E00001960E94A308FDE3BF1649F11F5F29E0A0
:1016F000C20ED11CDDCF670110E0101701F1F60119
:1017000080858431B9F4B601CE0101960E94980912
:10171000CE0101960E945C03682F70E0C6010E9412
:10172000F900FC01B080CE0101960E94A308FFE3FE
:10173000BF1629F01F5F29E0C20ED11CDECF89E061
:10174000189FE00CF11C112490E080E06C01E9E0AE
:10175000CE0ED11C101750F4B6016E0D7F1D8E0DEC
:101760009F1D0E944A0A1F5FC601F0CF26960FB642
:10177000F894DEBF0FBECDBFDF91CF911F910F91C7
:10178000FF90EF90DF90CF90BF9008950F931F933D
:10179000CF93DF9300D000D0CDB7DEB720914D16A8
:1017A0002D34E9F480914717811110924717109258
:1017B0004A1765E18CEE96E10E94250B61E872E024
:1017C00080EB95E10E94CB0726960FB6F894DEBF1A
:1017D0000FBECDBFDF91CF911F910F910895BC0136
:1017E000CE0101960E949809CE0101960E946105E2
:1017F0008C01CE0101960E94A308F801E55AFF4F23
:10180000808181111082F801E25AFF4F108265E158
:10181000C8010E94250B61E872E089ED93E1D2CF07
:10182000FC01118210821382128215821482FB0144
:1018300001900020E9F73197AF01461B570B0C943C
:101840003D09AF92BF92CF92DF92EF92FF920F933A
:101850001F93CF93DF9300D000D000D0CDB7DEB779
:101860006C01F62E8A016AE172E0CE0101960E94B7
:10187000100C82E0F81609F484C061E08FEB96E169
:101880000E943C03882309F45EC02FEB36E1A901D6
:1018900090E0BA01475F5F4FFA013197E081E13094
:1018A00049F4CE0101960E944A0ABC01C6010E9479
:1018B000CD0951C09F5F8913ECCF4FEB56E180E01B
:1018C000BA01475F5F4FFA013197E081E23049F397
:1018D0008F5F9813F5CF4FEB56E180E0BA01475F79
:1018E0005F4FFA013197E081E330D9F28F5F9813AF
:1018F000F5CF4FEB56E180E0BA01475F5F4FFA0149
:101900003197E081E43069F28F5F9813F5CF4FEBA8
:1019100056E180E0BA01475F5F4FFA013197E081FD
:10192000E53009F4BECF8F5F9813F4CF80E0B901A2
:10193000275F3F4FF90131974081463009F4B1CF1D
:101940008F5F9813F4CF8EE18987BE016F5F7F4F61
:10195000C6010E94E306CE0101960E94A308C601BB
:1019600029960FB6F894DEBF0FBECDBFDF91CF91A1
:101970001F910F91FF90EF90DF90CF90BF90AF90AD
:10198000089562E0C8010E943C03F82E8823D9F232
:101990005801F80190E080E08F1590F42085AC01AB
:1019A0004F5F5F4F3996213049F429E0289FB001FD
:1019B000299F700D1124600F711F73CFCA01ECCFE6
:1019C000F80190E080E02085223079F30196399685
:1019D0008F15C8F3F80190E080E02085233029F3CB
:1019E000019639968F15C8F3F80190E080E02085C4
:1019F0002430D9F2019639968F15C8F3F80190E09A
:101A000080E02085253089F2019639968F15C8F33C
:101A1000F80190E080E02085263039F20196399671
:101A20008F15C8F3F80190E080E020852A3009F492
:101A3000BCCF019639968F15C0F3F80190E080E095
:101A400020852B3009F4B1CF019639968F15C0F35C
:101A5000F80190E080E020852F3009F4A6CF0196B0
:101A600039968F15C0F3E12CF80180858431E9F4B3
:101A700065E070E0C8010E94F900FC0180818F33AD
:101A800011F4B8010ECF64E070E0C8010E94F900C3
:101A9000FC0180818F33A9F363E070E0C8010E94EC
:101AA000F900FC0180818F3361F3E394075F1F4FDE
:101AB000EF14D0F210E0F50180858431E9F465E09F
:101AC00070E0C5010E94F900FC0180818D3311F4A2
:101AD000B501E7CE64E070E0C5010E94F900FC01A9
:101AE00080818D33A9F363E070E0C5010E94F900A5
:101AF000FC0180818D3361F31F5FF9E0AF0EB11CF3
:101B00001F15C8F220CFAF92BF92CF92DF92EF9213
:101B1000FF920F931F93CF93DF936C015B017A01C8
:101B200089012417350720F48F2D7901042F182FF0
:101B30006AE172E0C6010E94100CD5011496CD91A5
:101B4000DC91EC16FD06E0F40C171D0708F4E80123
:101B5000D501ED91FC911197EC0FFD1F10811082C2
:101B60006D917C916E0D7F1DC60161157105A1F00F
:101B70000E945E09F50180819181C80FD91F1883E9
:101B8000C601DF91CF911F910F91FF90EF90DF90F1
:101B9000CF90BF90AF9008950E949108EBCFCF9265
:101BA000DF92EF92FF920F931F93CF93DF9300D0BA
:101BB00000D0CDB7DEB78C0125E030E042E050E048
:101BC000BC01CE0101960E94830DCE0101960E94B8
:101BD0004D086B01CE0101960E94A308B801CE0109
:101BE00001960E949809CE0101960E9461058C0120
:101BF000CE0101960E94A308F801ED59FF4F81E044
:101C0000208131812C153D0509F080E026960FB624
:101C1000F894DEBF0FBECDBFDF91CF911F910F9122
:101C2000FF90EF90DF90CF9008954F925F926F9268
:101C30007F92AF92BF92CF92DF92EF92FF920F937B
:101C40001F93CF93DF93CDB7DEB7A1970FB6F8946C
:101C5000DEBF0FBECDBFFC012481358121343105AB
:101C600008F0F3C0B42E6B018C017E01F3E1EF0E9E
:101C7000F11C89E0F70111928A95E9F76AE172E0B7
:101C8000C7010E94100CB801C7010E948109BB8ED8
:101C9000B701CE0101960E94CD091F82188610E07F
:101CA00000E08D819E8108171907B8F4B801CE01B4
:101CB00001960E94F900FC019F81808189278F8312
:101CC000B801CE0101960E94F900FC01988580813F
:101CD000890F88870F5F1F4FE4CF89858F30E9F028
:101CE000843109F06BC0BE016F5F7F4FCE010A9651
:101CF0000E949809CE010A960E945C03682F70E04A
:101D0000CE0101960E94F900FC011081CE010A96D5
:101D10000E94A3081D3309F051C0BE016F5F7F4FC1
:101D2000CE010A960E949809CE010A960E9470047C
:101D30008C01CE010A960E94A308BE016F5F7F4FFF
:101D4000CE014C960E949809CE014C960E945C03ED
:101D5000282F30E042E050E0BE016F5F7F4FCE01A0
:101D60000A960E94830DCE010A960E944D082B010F
:101D70005B01CE010A960E94A308CE014C960E94F8
:101D8000A308F4EF4F16F1E05F0630F024EFA21A3B
:101D900021E0B20A0BED1DE085E08A9DF0018B9DEC
:101DA000F00D1124E00FF11F808184360CF062C029
:101DB00082360CF081C0833509F484C0BE016F5FA8
:101DC0007F4FCE010A960E94E306BE01665F7F4FF9
:101DD000C7010E9458088889898F89898A8F8A89D2
:101DE0008B8FCE010A960E94A308CE0101960E9415
:101DF000A308B701CE0101960E94CD0970E060E012
:101E0000CE0101960E94F900FC018081853419F011
:101E1000873509F084C061E0C6010E943C0395E06B
:101E2000891760F4BE016F5F7F4F960149E0849F80
:101E3000200D311D1124C9010E944A0ACE010196CC
:101E40000E94A308C7010E94A308A1960FB6F894A8
:101E5000DEBF0FBECDBFDF91CF911F910F91FF90DD
:101E6000EF90DF90CF90BF90AF907F906F905F909A
:101E70004F900895893699F08C3619F0863609F01E
:101E80009DCFDF01119635962D919F8192279F83DB
:101E90008885820F8887AE17BF07B1F78FCF818102
:101EA0009F8198279F832885820F88872281922788
:101EB0009F83820F888782CF21819F8192279F8372
:101EC0008885F7CF61817281CE010A960E949809B8
:101ED000CE010A960E94220710E0A12EB12C8E8519
:101EE0009F85A816B906B0F4B501CE010A960E94E6
:101EF000F900FC019F81808189278F83B501CE0184
:101F00000A960E94F900FC0198858081890F8887D4
:101F10001F5FE3CFCE010A960E94A3084FCF62E075
:101F2000C6010E943C039AE07BCFEF92FF920F9391
:101F30001F93CF93DF93CDB7DEB768970FB6F894B2
:101F4000DEBF0FBECDBF8C017B0170E060E00E9460
:101F5000F900FC016081CE010D960E94680961E0E4
:101F600070E0C8010E94F900FC016081CE01019679
:101F70000E946809BE016F5F7F4FCE0107960E94E5
:101F80009809BE01635F7F4FCE0107960E942A0920
:101F90006DED72E00E941409BC01CE0143960E94CF
:101FA0009809CE0107960E94A308CE0101960E94CF
:101FB000A308CE010D960E94A308BE016D5E7F4F5F
:101FC000CE0101960E9498094AE0B701CE01019620
:101FD0000E94150ECE0101960E94A308CE014396E1
:101FE0000E94A30868960FB6F894DEBF0FBECDBF5F
:101FF000DF91CF911F910F91FF90EF900895EF9295
:10200000FF920F931F93CF93DF9300D000D0CDB7F3
:10201000DEB78C0180914D168D3401F522E030E061
:1020200050E040E0B801CE0101960E94830D6CEEB5
:1020300076E1CE0101960E94950FCE0101960E9495
:10204000A30826960FB6F894DEBF0FBECDBFDF9172
:10205000CF911F910F91FF90EF900895B801CE019D
:1020600001960E949809CE0101960E9461057C01AB
:10207000CE0101960E94A30822E030E050E040E04B
:10208000B801CE0101960E94830DB701D2CFEF9225
:10209000FF920F931F93CF93DF93CDB7DEB768976F
:1020A0000FB6F894DEBF0FBECDBF8C017B0170E090
:1020B00060E00E94F900FC016081CE010D960E9453
:1020C000680961E070E0C8010E94F900FC016081CC
:1020D000CE0101960E946809BE016F5F7F4FCE015D
:1020E00007960E949809BE01635F7F4FCE01079655
:1020F0000E942A0968EC72E00E941409BC01CE011A
:1021000043960E949809CE0107960E94A308CE012B
:1021100001960E94A308CE010D960E94A308BE015D
:102120006D5E7F4FCE0101960E9498094BE0B7018A
:10213000CE0101960E94150ECE0101960E94A308C1
:10214000CE0143960E94A30868960FB6F894DEBFAE
:102150000FBECDBFDF91CF911F910F91FF90EF90F8
:1021600008954F925F926F927F929F92AF92BF922B
:10217000CF92DF92EF92FF920F931F93CF93DF9353
:10218000CDB7DEB762970FB6F894DEBF0FBECDBFF6
:102190006C015A0179010E946D06882309F4E5C19A
:1021A00044EFC41641E0D40620F054EFC51A51E0C4
:1021B000D50AC8010E94AB06982E25E02C9DC001CF
:1021C0002D9D900D1124E80EF91EF7019081943693
:1021D0000CF05BC092360CF0B6C0933509F468C1C0
:1021E000B501CE0101960E949809CE0101960E9488
:1021F0005C03682F70E0C5010E94F900FC011081AA
:10220000CE0101960E94A3081F3349F1B501CE010A
:1022100007960E94980980914D168D3409F088C167
:1022200060EC72E080EB95E10E94CB0722E030E0A9
:1022300050E040E0BE01695F7F4FCE0101960E94F1
:10224000830D6CEE76E1CE0101960E944710CE011F
:1022500001960E94A308CE0107960E94A3086296E9
:102260000FB6F894DEBF0FBECDBFDF91CF911F91A7
:102270000F91FF90EF90DF90CF90BF90AF909F9025
:102280007F906F905F904F900895993609F46EC0DB
:102290009C3609F4EEC0963609F0A2CF492D46507F
:1022A000550BFA01E00FF11FD7011196C7010596F2
:1022B00021912D938A179B07D9F76FE972E089ED79
:1022C00093E10E94CB07F701C180D280E380F480C4
:1022D000A7019601C701B6010E94FF2464EB72E0DA
:1022E000811126C026013701E89477F82FEF3FEFE0
:1022F0004FE75FE7C301B2010E94FF2481110CC0C8
:102300002FEF3FEF4FE75FE7C301B2010E943A238F
:1023100068EB72E0181664F02FEF3FEF4FE75FE4D1
:10232000C701B6010E94FA241816CCF56CEB72E0D6
:1023300089ED93E10E94130768E172E089ED93E172
:102340000E9413074DCFF801E90DF11D36978081EA
:10235000F70181836FE972E089ED93E10E94CB0779
:10236000F701818190E00E94B1073ACF492D465094
:10237000550BFA01E00FF11FD7011196C701059621
:1023800021912D93A817B907D9F76FE972E089ED6C
:1023900093E10E94CB07F70181819281E4CF2FEF77
:1023A0003FEF4FE75FECC701B6010E943A2387FD7C
:1023B000BDCF20E030E0A901C701B6010E943A2359
:1023C00087FF09C06DE289ED93E10E94E701F7FA0A
:1023D000F094F7F8F0942AE037ED43EA5BE3C701A5
:1023E000B6010E945F242B013C010E94CB246B01AB
:1023F0007C010E943F239B01AC01C301B2010E94FA
:102400005E242B013C014AE0C701B6010E9435075A
:102410006EE289ED93E10E94E70120E030E040E2C6
:1024200051E4C301B2010E94A0232B013C010E9490
:10243000CB246B01F12CE12C4AE0C701B6010E94CC
:102440003507C701B6010E943F239B01AC01C301C0
:10245000B2010E945E2420E030E040E251E40E949C
:10246000A0230E94CB2490E080E04AE00E94350740
:1024700063CF492D4650550BFA01E00FF11FD701EC
:102480001196C701059621912D938A179B07D9F7BD
:102490006FE972E089ED93E10E94CB07F70161815A
:1024A00072818381948197FFE0CF0E947B0744CFA4
:1024B000B801CE0107960E94100CB501CE0101961D
:1024C0000E949809CE0101960E945C036E01FDE016
:1024D000CF0ED11C492D4250550B9A01482F50E088
:1024E0004F5F5F4FBE01695F7F4FC6010E94830D42
:1024F000F701818192818C159D0519F0B6010E942A
:102500005808C6010E94A308CE0101960E94A308A4
:10251000CE0107960E94A3086FE972E089ED93E16E
:102520000E94CB07F701818192810E94220758CE39
:10253000BE01695F7F4FCE0101960E949809CE01CE
:1025400001960E9461058C01CE0101960E94A308AC
:1025500022E030E050E040E0BE01695F7F4FCE01F5
:1025600001960E94830DB8016ECEB501CE01019691
:102570000E949809CE0101960E94FF0FCE0101969C
:102580006CCE8F929F92AF92BF92CF92DF92EF92DA
:10259000FF920F931F93CF93DF9300D000D0CDB75E
:1025A000DEB77C016B014A018901CE0101960E94D0
:1025B0009809CE0101960E9470045C01CE0101963B
:1025C0000E94A308B601CE0101960E949809CE018F
:1025D00001960E948603D82ECE0101960E94A30880
:1025E00084EFE81681E0F80650F084EFE81A81E005
:1025F000F80A88E0D82E9BEDA92E9DE0B92EB401F3
:10260000CE0101960E9498099501AE014F5F5F4F80
:102610006D2DC7010E94B110CE0101960E94A30842
:1026200026960FB6F894DEBF0FBECDBFDF91CF91D7
:102630001F910F91FF90EF90DF90CF90BF90AF90E0
:102640009F908F9008953F924F925F926F927F92EA
:102650008F929F92AF92BF92CF92DF92EF92FF92B2
:102660000F931F93CF93DF9300D000D0CDB7DEB789
:102670007C018B0180914D16B7018D3409F09DC00E
:10268000CE0101960E949809CE0101960E94CF0DBD
:10269000D82ECE0101960E94A308DD2009F479C04E
:1026A000B701CE0101960E949809CE0101960E94C1
:1026B00070044C01CE0101960E94A308B701CE011F
:1026C00001960E949809CE0101960E948603B82EB9
:1026D000CE0101960E94A30825E030E042E050E0E0
:1026E000B701CE0101960E94830DCE0101960E9492
:1026F0004D082B016B01CE0101960E94A30884EFC7
:10270000481681E0580650F084EFC81A81E0D80AD4
:1027100028E0B22E3BED832E3DE0932EB701CE0193
:1027200001960E9498099401AE014F5F5F4F6B2D97
:10273000C6010E94B110CE0101960E94A3088091AB
:10274000461781111092461710924A1764E18CEED9
:1027500096E10E94250B6BEC72E089ED93E10E94FB
:10276000CB0726960FB6F894DEBF0FBECDBFDF9124
:10277000CF911F910F91FF90EF90DF90CF90BF907E
:10278000AF909F908F907F906F905F904F903F9011
:10279000089522E030E050E040E0B701CE0101961C
:1027A0000E94830D6CEE76E1CE0101960E94950F9A
:1027B000CE0101960E94A308D4CFCE0101960E94BB
:1027C0009809CE0101960E9461056C01CE01019627
:1027D0000E94A308B701CE0101960E949809CE017C
:1027E00001960E94CF0DB82ECE0101960E94A3083B
:1027F000BB2009F45CC0B701CE0101960E94980984
:10280000CE0101960E9470044C01CE0101960E94F7
:10281000A308B701CE0101960E949809CE01019646
:102820000E948603382ECE0101960E94A30825E05F
:1028300030E042E050E0B701CE0101960E94830DE6
:10284000CE0101960E944D082B015B01CE0101963D
:102850000E94A30884EF481681E0580650F084EFE8
:10286000A81A81E0B80A88E0382E9BED892E9DE0F9
:10287000992EB701CE0101960E9498099401AE01EC
:102880004F5F5F4F632DC5010E94B110CE010196CD
:102890000E94A308F601E65AFF4F80818111108241
:1028A000F601E25AFF4F108264E1C60152CF22E0E6
:1028B00030E050E040E0B701CE0101960E94830D68
:1028C000B60172CFEF92FF920F931F93CF93DF93D6
:1028D000CDB7DEB76E970FB6F894DEBF0FBECDBF93
:1028E0008C017B016AE172E0CE0149960E94100CD6
:1028F000F8012481358142E050E0B801CE014396D1
:102900000E94830D70E060E0C8010E94F900FC01A4
:102910006081CE010D960E94680961E070E0C801F7
:102920000E94F900FC016081CE0101960E946809B5
:10293000BE016F5F7F4FCE0107960E949809BE01CE
:10294000635F7F4FCE0107960E942A09BE016D5E2C
:102950007F4F0E942A09BC01CE0149960E9481093D
:10296000CE0107960E94A308CE0101960E94A308FB
:10297000CE010D960E94A308CE0143960E94A308A3
:10298000BE01675E7F4FCE0101960E9498094FE01D
:10299000B701CE0101960E94150ECE0101960E944C
:1029A000A308CE0149960E94A3086E960FB6F8942C
:1029B000DEBF0FBECDBFDF91CF911F910F91FF9072
:1029C000EF900895CF92DF92FF920F931F93CF93D2
:1029D000DF93CDB7DEB72C970FB6F894DEBF0FBEEE
:1029E000CDBF8C016B01CE0101960E949809CE01EA
:1029F00001960E948603F82ECE0101960E94A3083C
:102A0000043F81E0180720F0045F114088E0F82EB1
:102A1000B601CE0107960E9498096F2DC8010E9449
:102A20006D068823E9F180914D16BE01695F7F4FE5
:102A30008D3401F5CE0101960E9498096CEE76E185
:102A4000CE0101960E946214CE0101960E94A30855
:102A5000CE0107960E94A3082C960FB6F894DEBF0D
:102A60000FBECDBFDF91CF911F910F91FF90DF90EF
:102A7000CF900895CE0101960E949809CE0101964B
:102A80000E9461058C01CE0101960E94A308BE013F
:102A9000695F7F4FCE0101960E949809B801D0CF9F
:102AA00022E030E050E040E0BE01695F7F4FCE01A0
:102AB00001960E94830DCE0101960E94FF0FC4CFA4
:102AC000CF93DF93CDB7DEB72C970FB6F894DEBF68
:102AD0000FBECDBF6BED72E0CE0107960E94100CC9
:102AE000BE01695F7F4FCE0101960E94980943E0C5
:102AF0006FEB76E1CE0101960E94150ECE01019694
:102B00000E94A308CE0107960E94A3082C960FB638
:102B1000F894DEBF0FBECDBFDF91CF9108950F9324
:102B20001F93CF93DF93CDB7DEB72C970FB6F894F2
:102B3000DEBF0FBECDBF8B0167E00E947902882304
:102B400009F451C060EE72E089ED93E10E94CB0779
:102B500070E060E0C8010E94F900FC0180818534CA
:102B600049F56DEE72E089ED93E10E94CB076BEFC2
:102B700072E0CE0107960E94100CBE01695F7F4F84
:102B8000CE0101960E94980944E06FEB76E1CE01F8
:102B900001960E94150ECE0101960E94A30860E0E6
:102BA00073E089ED93E10E94CB07CE0107960E9466
:102BB000A3082AC06DE073E0CE0107960E94100CB6
:102BC000BE01695F7F4FCE0101960E94980946E0E1
:102BD0006FEB76E1CE0101960E94150ECE010196B3
:102BE0000E94A308E2CF70E060E0C8010E94F900F3
:102BF000FC018081853499F462E173E089ED93E111
:102C00000E94CB070E9460152C960FB6F894DEBF89
:102C10000FBECDBFDF91CF911F910F91089566E256
:102C200073E0CE0107960E94100CBE01695F7F4FD2
:102C3000CE0101960E94980945E0CACF3F924F927B
:102C40005F926F927F928F929F92AF92BF92CF923C
:102C5000DF92EF92FF920F931F93CF93DF93CDB745
:102C6000DEB7CC59D1090FB6F894DEBF0FBECDBF89
:102C70006EE878E1CE0101960E94E109AE014F5F56
:102C80005F4F61E0CE0184579F4F0E94210CCE011F
:102C900001960E94AB08CC56DF4F1881C459D04032
:102CA0001E3109F4D7C080914F168111AEC011308A
:102CB00051F56BE273E089ED93E10E94CB07CE0101
:102CC00084579F4F0E942207BE0164577F4FCE0159
:102CD00088599F4F0E94CD09BE0168597F4FCE0190
:102CE00001960E94CD09CE0101960E94F707CE0100
:102CF00001960E94A30810934F16CE0188599F4F4A
:102D00000E94A30828C080915016882309F441C06E
:102D10000E94ED0000915216109153162091541606
:102D200030915516601B710B820B930B6C32714006
:102D30008105910580F080914E16833038F061E472
:102D400073E089ED93E10E94CB07FFCF8F5F809303
:102D50004E1610925016CE0184579F4F0E94A30822
:102D6000C456DF4F0FB6F894DEBF0FBECDBFDF9164
:102D7000CF911F910F91FF90EF90DF90CF90BF9078
:102D8000AF909F908F907F906F905F904F903F900B
:102D900008956BE273E089ED93E10E94CB07CE01C9
:102DA00084579F4F0E942207BE0164577F4FCE0178
:102DB00088599F4F0E94CD09BE0168597F4FCE01AF
:102DC00001960E94CD09CE0101960E94F707CE011F
:102DD00001960E94A308E1968FADE197823019F425
:102DE00081E080935016CE0188599F4F0E94A3081E
:102DF000CC56DF4F6881C459D040623009F4ABCF64
:102E00008FEB96E10E94250BA6CF0E94ED0000916A
:102E10005216109153162091541630915516601B7E
:102E2000710B820B930B6C3271408105910508F494
:102E300092CF80914E16833038F061E473E089EDD3
:102E400093E10E94CB07FFCF8F5F80934E161092C5
:102E50004F1681CF6CEE76E1CE0101960E94E1091A
:102E6000AE014F5F5F4F62E0CE0186589F4F0E94D8
:102E7000210CCE0101960E94AB080E94ED000E9439
:102E80003F2320914B1730914C1740914D17509193
:102E90004E170E945E240E94CB246B017C0163E5E7
:102EA00077E1CE0101960E94E109AE014F5F5F4FCD
:102EB00062E0CE018F589F4F0E94210CCE010196F7
:102EC0000E94AB080E94ED002B013C018091B217DB
:102ED0009091B317A091B417B091B517CB56DF4FAF
:102EE00088839983AA83BB83C559D0406AEB77E175
:102EF000CE0101960E94E109AE014F5F5F4F62E093
:102F0000CE0188599F4F0E94210CCE0101960E944C
:102F1000AB080E94ED004B015C0180911918909163
:102F20001A18A0911B18B0911C18C756DF4F888340
:102F30009983AA83BB83C959D0406AE172E0CE016C
:102F400001960E94100CCE57DF4F1881C258D04016
:102F5000EA960FADEA97BE011017F0F0C301B20177
:102F60000E943F23CB56DF4F288139814A815B8104
:102F7000C559D0400E945E240E94CB242B013C0105
:102F8000BE01011708F479C010130CC04C145D0485
:102F90006E047F0408F071C066587F4FCE01019621
:102FA0000E944A0A9985E1968FADE197981708F03B
:102FB0006DC0BE016F5F7F4FCE018D579F4F0E9446
:102FC000E306CE0101960E94A308CE0188599F4FC7
:102FD0000E94A308CE018F589F4F0E94A308CE01E4
:102FE00086589F4F0E94A308C557DF4F8881CB5852
:102FF000D0408E3109F471C0BE016D577F4FCE01B4
:1030000001960E949809CE0101960E9461056C010B
:10301000CE0101960E94A30846019AE5890E911CF3
:10302000D4018C91811107C0F601E55AFF4F8081D0
:10303000882309F456C00E94ED000E943F23F60148
:10304000E15AFF4F20813181428153810E945E24E9
:1030500020E030E046E953E40E94FA2487FD3DC0B9
:10306000F601E25AFF4F8081833078F161E473E02A
:1030700089ED93E10E94CB07FFCF6F587F4FCE01C0
:1030800001960E944A0A730162018CCF891720F4CD
:10309000BE0168597F4F90CF981393CFC501B401FB
:1030A0000E943F23C756DF4F288139814A815B81C7
:1030B000C959D0400E945E240E94CB246C157D0526
:1030C0008E059F0508F475CFE3CF8F5F8083F601EF
:1030D000E55AFF4F1082F4011082CE018D579F4FA9
:1030E0000FCE66E673E089ED93E10E94CB07CE0137
:1030F0008D579F4F0E942207BE016D577F4FCE0113
:103100008F589F4F0E94CD09BE016F587F4FCE014F
:1031100088599F4F0E94CD09BE0168597F4FCE014B
:1031200001960E949809CE0101960E9461057C01DA
:10313000CE0101960E94A3085701FAE5AF0EB11C1B
:10314000D5018C91882339F08701055A1F4FF8016A
:103150008081811160C2AD963FACAD97E1968FAD95
:10316000E1978F30F1F0843109F0C5C1BE01685993
:103170007F4FCE0101960E949809CE0101960E94D0
:103180005C03682F70E0CE0188599F4F0E94F900C0
:10319000DC011C91CE0101960E94A3081D3309F0A9
:1031A000AAC1BE0168597F4FCE0101960E949809BD
:1031B000CE0101960E9470048C01CE0101960E94FE
:1031C000A308BE0168597F4FCE0186589F4F0E94C9
:1031D0009809CE0186589F4F0E945C03282F30E04B
:1031E00042E050E0BE0168597F4FCE0101960E9437
:1031F000830DCE0101960E944D082B015B01CE018B
:1032000001960E94A308CE0186589F4F0E94A308F2
:10321000B4EF4B16B1E05B0630F0E4EFAE1AE1E03C
:10322000BE0A0BED1DE085E08A9DF0018B9DF00D3F
:103230001124E00FF11F808184360CF040C18236EA
:103240000CF047C1833509F447C16BE272E089EDA8
:1032500093E10E94CB07832D0E949C076AE372E0F2
:1032600080915616909157160E941307809156161A
:1032700090915716DC01ED91FC910190F081E02DC9
:10328000632D1995BE0168597F4F80915616909114
:1032900057160E940C01E1968FADE1978F30F1F047
:1032A000843109F087C0BE0168597F4FCE01019675
:1032B0000E949809CE0101960E945C03682F70E07D
:1032C000CE0188599F4F0E94F900FC011081CE0168
:1032D00001960E94A3081D3309F06CC0BE01685915
:1032E0007F4FCE0101960E949809CE0101960E945F
:1032F00070045C01CE0101960E94A308BE016859CA
:103300007F4FCE0186589F4F0E949809CE01865864
:103310009F4F0E945C03282F30E042E050E0BE0146
:1033200068597F4FCE0101960E94830DCE01019610
:103330000E944D082B018B01CE0101960E94A3082B
:10334000CE0186589F4F0E94A308F4EF4F16F1E07C
:103350005F0630F0045F11408BEDA82E8DE0B82E93
:1033600085E0809FD001819FB00D1124AA0DBB1D67
:103370008C9184360CF0C2C082360CF0E0C08335EC
:1033800009F41EC1BE0168597F4FCE0101960E940B
:103390009809CE0101960E945C03182FCE01019678
:1033A0000E94A308F7011D3309F031C1E55AFF4F10
:1033B00081E080838091561690915716DC01ED9143
:1033C000FC910190F081E02DAF966FADAF9719950C
:1033D0008091561690915716DC01ED91FC91019069
:1033E000F081E02DE0966FADE097199568E770E009
:1033F00080915616909157160E94DC06BE016859BE
:103400007F4FCE0101960E94CD09CE0101960E9408
:10341000A109CE0101960E94A308CE0188599F4FB1
:103420000E94A308CE018F589F4F0E94A308C55742
:10343000DF4F8881CB58D040843101F5BE016D57F4
:103440007F4FCE0101960E949809CE0101960E94FD
:103450005C03682F70E0CE018D579F4F0E94F900EA
:10346000FC011081CE0101960E94A3081D3309F0D2
:10347000EDC0F601E55AFF4F81E08083C557DF4F6D
:103480008881CB58D040843109F427CEBE016D57D6
:103490007F4FCE0101960E949809CE0101960E94AD
:1034A00061058C01CE0101960E94A308C557DF4F2C
:1034B0006881CB58D040C8010E94250B0ECE8936BA
:1034C00029F08C3619F0863609F0BFCE27E0320E8F
:1034D000BCCEF4E03F0EB9CE61817281CE0101967F
:1034E0000E9498098D819E810396380ECE01019627
:1034F0000E94A308AACE83E0380EA7CE893671F1C8
:103500008C3609F444C0863609F03CCF8D010F5F3C
:103510001F4F5D01E5E0AE0EB11C809156169091F3
:103520005716D8016D918D01DC01ED91FC91019050
:10353000F081E02D1995A016B10679F723CF80917F
:10354000561690915716FC0120813181F901208196
:10355000318111966C91F901199514CF8D010F5F8E
:103560001F4F5D01F5E0AF0EB11C80915616909192
:103570005716D8016D918D01DC01ED91FC91019000
:10358000F081E02D1995A016B10679F7FBCE8D01DB
:103590000F5F1F4F5D01E5E0AE0EB11C8091561626
:1035A00090915716D8016D918D01DC01ED91FC9140
:1035B0000190F081E02D19950A151B0579F7E2CEEF
:1035C00011966D917C91CE0101960E94980910E0B0
:1035D00000E08D819E8108171907A0F4A09056166F
:1035E000B0905716B801CE0101960E94F900FC0177
:1035F0006081062E000C770BC5010E94DC060F5F70
:103600001F4FE7CFCE0101960E94A308BBCEE65A1A
:10361000FF4F1082CFCE0E94ED000E943F23F701A2
:10362000E15AFF4F20813181428153810E945E2403
:1036300020E030E046E953E40E94FA2418160CF02A
:10364000ECCEF5011082D8011C92E7CE81E0D401C6
:103650008C9314CFBF92CF92DF92EF92FF920F9391
:103660001F93CF93DF93CDB7DEB7C85CD1090FB6F8
:10367000F894DEBF0FBECDBF7C016EE773E089ED2D
:1036800093E10E94CB078E0108591F4F80E4D801B7
:103690001D928A95E9F7CE0187559F4FF801119247
:1036A0008E179F07E1F7D701ED91FC910284F38516
:1036B000E02DC7011995823649F5D701ED91FC91AE
:1036C0000284F385E02DC7011995B82E6EE873E0EA
:1036D00089ED93E10E94CB078B2D0E949C07680126
:1036E0008C2D801B8B1590F4D701ED91FC910084FB
:1036F000F185E02DC7011995892BB1F380EB95E198
:103700000E946F01F60181936F01EACF6CE973E0CB
:10371000CE018D539F4F0E94100C6FE973E089ED2D
:1037200093E10E94CB076AE172E0CE0188559F4F7A
:103730000E94100C6AE172E0CE0101960E94100C0A
:10374000C8010E94AB06E82EF12CB801893008F0C0
:103750007FC0CE0189549F4F0E94100C97012250C8
:10376000310950E040E0BE0169547F4FCE018F54D3
:103770009F4F0E94830DBE016F547F4FCE01019673
:103780000E945808CE018F549F4F0E94A308CE017B
:1037900089549F4F0E94A308BE016F5F7F4FCE01E7
:1037A00089549F4F0E94980970E060E0CE018954CF
:1037B0009F4F0E94F900DC018C91853409F476C09A
:1037C000873509F4FAC062E070E0CE0189549F4F5A
:1037D0000E94F900FC0180818F3409F4FFC0873515
:1037E00009F402C1BE0169547F4FCE018F549F4F2F
:1037F0000E949809CE018F549F4F0E945C03682F4E
:1038000070E0CE0189549F4F0E94F900DC018C9139
:103810008F3391F4C8010E94AB06E82FE350FF0BF1
:10382000BF01CE0189549F4F0E94F900DD24D3943B
:10383000DC018C918F3309F4D12CCE018F549F4F32
:103840000E94A30884E1DD2009F440C08FE03EC05F
:10385000CE0189549F4F0E94100CB801CE018354B1
:103860009F4F0E94100CCE0183549F4F0E945C0317
:10387000282F30E02F5F3F4F50E040E0BE016954F9
:103880007F4FCE018F549F4F0E94830DBE016F5416
:103890007F4FCE0101960E945808CE018F549F4F52
:1038A0000E94A308CE0183549F4F6FCF62E070E067
:1038B000CE0189549F4F0E94F900FC0180818F3412
:1038C00009F48EC0873509F076C083E08987CE0180
:1038D00089549F4F0E94A308E6E6F0E0EC0FFD1F1D
:1038E000EE0DFF1D80818F83E7E6F0E0EC0FFD1FFA
:1038F000EE0DFF1D80818887BE016F5F7F4FCE0177
:1039000088559F4F0E9458088F81C255DF4F88838A
:10391000CE5AD0408885C155DF4F8883CF5AD040DA
:103920008985C055DF4F8883C05BD040CE010196AA
:103930000E94A308BE0168557F4FCE018D539F4F53
:103940000E948109CE0188559F4F0E942207BE0127
:1039500068557F4FCE0101960E94CD09BE016F5F71
:103960007F4FC8010E94B606F82ECE0101960E9434
:10397000A308FF2009F472C16DEA73E089ED93E1B9
:103980000E94CB07C055DF4F8881C05BD0408F308D
:1039900009F4B6C0843151F18B3009F08AC0BE0100
:1039A00068557F4FCE0101960E949809CE0101967D
:1039B0000E94C60B7AC081E089CF62E070E0CE0140
:1039C00089549F4F0E94F900DC018C918F3451F093
:1039D000873511F485E07ACF82E078CF8BE076CF1F
:1039E00084E074CF86E072CF8AE070CFBE01685564
:1039F0007F4FCE018F549F4F0E949809CE018F5464
:103A00009F4F0E945C03282F30E042E050E0BE014F
:103A100068557F4FCE0101960E94830DCE0101961D
:103A20000E944D086B01CE0101960E94A308CE01B1
:103A30008F549F4F0E94A308BE0168557F4FCE014F
:103A400001960E949809CE0101960E945C03682F9E
:103A500070E0CE0188559F4F0E94F900FC01B080B4
:103A6000CE0101960E94A308FDE3BE01BF123BC038
:103A70006D537F4FCE0101960E949809BE01685593
:103A80007F4FCE018F549F4F0E9498099801AE013D
:103A90004F5F5F4FBE016F547F4FC6010E94C1123E
:103AA000CE018F549F4F0E94A308CE0101960E9421
:103AB000A308C055DF4FE881C05BD040E150EA3039
:103AC00008F08AC0F0E08827E759F24E8F4F0C9437
:103AD00026258D1D8D1DCF1DBD1DCF1DBD1DEC1DB2
:103AE000EC1DEC1D0A1E68557F4FCE0101960E9409
:103AF0009809BE016F5F7F4FC6010E94E214D5CFC7
:103B0000BE0168557F4FCE0101960E949809B80109
:103B1000CE0101960E942313C8CF60EC73E089EDBB
:103B200093E10E94CB07C455DF4F28813981CC5ADD
:103B3000D04042E050E0BE0168557F4FCE01019673
:103B40000E94830DCE0101960E944D086B01CE01AB
:103B500001960E94A308BE0168557F4FCE010196D1
:103B60000E949809BE016F5F7F4FC6010E948F15AA
:103B7000CE0101960E94A3082FC064ED73E089ED89
:103B800093E10E94CB07BE0168557F4FCE0101969D
:103B90000E949809CE0101960E945F0AE9CF6AEE61
:103BA00073E089ED93E10E94CB0780914E1683303C
:103BB00008F0FFCF8F5F80934E1670E060E0CE017B
:103BC00088559F4F0E94F900DC018C918534F9F4EF
:103BD00010924F160E941E16CE0188559F4F0E94CC
:103BE000A308CE018D539F4F0E94A308C853DF4FF7
:103BF0000FB6F894DEBF0FBECDBFDF91CF911F91FE
:103C00000F91FF90EF90DF90CF90BF9008951092AA
:103C10005016E0CF63EF73E089ED93E10E94CB078C
:103C2000BE0168557F4FCE0101960E949809CE01D2
:103C300001960E9461058C01CE0101960E94A308A5
:103C4000B801CE0101960E94E109CE0101960E94C1
:103C5000DF07CE0101960E94AB08BCCF6BEF73E08B
:103C600089ED93E10E94CB07C055DF4F8881C05B8F
:103C7000D040813019F08350823018F40E946015D2
:103C8000ABCFBE0168557F4FCE0101960E949809C7
:103C9000CE0101960E9461058C01CE0101960E9421
:103CA000A308BE0168557F4FCE0101960E94980976
:103CB000B801CE0101960E94950F5ACF1F920F9224
:103CC0000FB60F9211242F933F938F939F93AF932F
:103CD000BF938091D5139091D613A091D713B09133
:103CE000D8133091D41323E0230F2D3758F50196C4
:103CF000A11DB11D2093D4138093D5139093D61397
:103D0000A093D713B093D8138091D0139091D1136F
:103D1000A091D213B091D3130196A11DB11D809330
:103D2000D0139093D113A093D213B093D313BF9118
:103D3000AF919F918F913F912F910F900FBE0F9058
:103D40001F90189526E8230F0296A11DB11DD2CF12
:103D50001F920F920FB60F9211240BB60F922F9352
:103D60003F934F935F936F937F938F939F93AF9303
:103D7000BF93EF93FF9389ED93E10E94C501FF91FB
:103D8000EF91BF91AF919F918F917F916F915F91D3
:103D90004F913F912F910F900BBE0F900FBE0F9040
:103DA0001F9018951F920F920FB60F9211240BB609
:103DB0000F922F933F934F935F936F937F938F93C4
:103DC0009F93AF93BF93EF93FF9389ED93E10E948D
:103DD0004701FF91EF91BF91AF919F918F917F919B
:103DE0006F915F914F913F912F910F900BBE0F906C
:103DF0000FBE0F901F9018951F920F920FB60F9243
:103E000011240BB60F922F933F934F935F936F93B1
:103E10007F938F939F93AF93BF93EF93FF9386E727
:103E200094E10E94C501FF91EF91BF91AF919F91E5
:103E30008F917F916F915F914F913F912F910F9053
:103E40000BBE0F900FBE0F901F9018951F920F92F0
:103E50000FB60F9211240BB60F922F933F934F93EF
:103E60005F936F937F938F939F93AF93BF93EF93E2
:103E7000FF9386E794E10E944701FF91EF91BF9184
:103E8000AF919F918F917F916F915F914F913F91F2
:103E90002F910F900BBE0F900FBE0F901F90189593
:103EA0001F920F920FB60F9211240BB60F922F9301
:103EB0003F934F935F936F937F938F939F93AF93B2
:103EC000BF93EF93FF9383E195E10E94C501FF91BA
:103ED000EF91BF91AF919F918F917F916F915F9182
:103EE0004F913F912F910F900BBE0F900FBE0F90EF
:103EF0001F9018951F920F920FB60F9211240BB6B8
:103F00000F922F933F934F935F936F937F938F9372
:103F10009F93AF93BF93EF93FF9383E195E10E944B
:103F20004701FF91EF91BF91AF919F918F917F9149
:103F30006F915F914F913F912F910F900BBE0F901A
:103F40000FBE0F901F9018951F920F920FB60F92F1
:103F500011240BB60F922F933F934F935F936F9360
:103F60007F938F939F93AF93BF93EF93FF9380EBD8
:103F700095E10E94C501FF91EF91BF91AF919F9193
:103F80008F917F916F915F914F913F912F910F9002
:103F90000BBE0F900FBE0F901F9018951F920F929F
:103FA0000FB60F9211240BB60F922F933F934F939E
:103FB0005F936F937F938F939F93AF93BF93EF9391
:103FC000FF9380EB95E10E944701FF91EF91BF9134
:103FD000AF919F918F917F916F915F914F913F91A1
:103FE0002F910F900BBE0F900FBE0F901F90189542
:103FF000EF92FF920F931F93CF93DF93EC018C010D
:104000007C018AE5E80EF11C6AE172E0C8010E94B9
:10401000100C075F1F4FE016F106B1F7CB59DF4FC9
:1040200080EB95E199838883DF91CF911F910F9168
:10403000FF90EF9008950F931F93CF93DF9310920B
:10404000DC131092DB1348EE53E060E070E0409325
:10405000DD135093DE136093DF137093E0138AE057
:1040600092E09093DA138093D91325E331E03093F3
:10407000E6132093E51324E331E03093E813209313
:10408000E71320E331E03093EA132093E91321E3AF
:1040900031E03093EC132093EB1322E331E03093C3
:1040A000EE132093ED1326E331E03093F0132093C9
:1040B000EF131092F2131092F3131092F413109264
:1040C000F513109279141092781440937A14509347
:1040D0007B1460937C1470937D1490937714809379
:1040E000761425ED30E0309383142093821424ED70
:1040F00030E0309385142093841420ED30E0309329
:1041000087142093861421ED30E030938914209396
:10411000881422ED30E030938B1420938A1426ED1E
:1041200030E030938D1420938C1410928F141092E1
:1041300090141092911410929214109216151092DD
:104140001515409317155093181560931915709312
:104150001A1590931415809313152DEC30E03093BD
:10416000201520931F152CEC30E03093221520935E
:10417000211528EC30E0309324152093231529ECE9
:1041800030E030932615209325152AEC30E030934B
:104190002815209327152EEC30E030932A15209314
:1041A000291510922C1510922D1510922E15109283
:1041B0002F151092B3151092B2154093B415509369
:1041C000B5156093B6157093B7159093B11580939C
:1041D000B01585EC90E09093BD158093BC1584ECF0
:1041E00090E09093BF158093BE1580EC90E0909383
:1041F000C1158093C01581EC90E09093C315809316
:10420000C21582EC90E09093C5158093C41586EC9E
:1042100090E09093C7158093C6151092C91510921F
:10422000CA151092CB151092CC15C7E6ECE5F9E152
:10423000DF018C2F1D928A95E9F7CF010E94F81FAC
:10424000E5EFF8E1DF018C2F1D928A95E9F7CF01A8
:104250000E94F81FEEE8F8E1DF018C2F1D928A958D
:10426000E9F7CF010E94F81FE8E5F6E1DF011D92B2
:10427000CA95E9F7CF010E94F81F89E0EDE4F6E165
:10428000DF011D928A95E9F780EB95E1909357162F
:1042900080935616CFEBD6E10CEE16E16AE172E0A0
:1042A000CE010E94100C29960C171D07B9F78CEE51
:1042B00096E10E94F81F83E597E10E94F81F8AEBC0
:1042C00097E10E94F81F81E298E10E94F81F6BE0DD
:1042D00074E088E898E1DF91CF911F910F910C94E1
:1042E000100CCF93DF93CDB7DEB7A9970FB6F89434
:1042F000DEBF0FBECDBF789484B5826084BD84B527
:10430000816084BD85B5826085BD85B5816085BDD0
:1043100080916E00816080936E0010928100809188
:104320008100826080938100809181008160809310
:104330008100809180008160809380008091B10035
:1043400084608093B1008091B00081608093B00060
:1043500080919100826080939100809191008160B2
:104360008093910080919000816080939000809173
:10437000A10082608093A1008091A1008160809360
:10438000A1008091A00081608093A0008091210114
:1043900082608093210180912101816080932101BD
:1043A0008091200181608093200180917A00846057
:1043B00080937A0080917A00826080937A00809165
:1043C0007A00816080937A0080917A00806880937F
:1043D0007A001092C10082E580934D1680EB95E142
:1043E00090935716809356160E94C30089ED93E16F
:1043F0000E94C30082E68093BD128093BC1389E6BD
:104400008093B91183E58093B41188E898E1909383
:10441000B6118093B51186E68093B60F1F8E1E8E5F
:1044200019A218A21BA21AA24AE0BE016F5F7F4F19
:1044300083E592E00E941023BE016F5F7F4FCE01A3
:104440004E960E945E096DE4CE0148960E9468096E
:1044500060914D16CE0101960E946809BE016F5F02
:104460007F4FCE0142960E949809BE01685E7F4F41
:10447000CE0142960E942A09BE01625E7F4F0E94D1
:104480002A0964E174E00E941409BC01CE018496FB
:104490000E949809CE0142960E94A308CE0101967F
:1044A0000E94A308CE0148960E94A308CE014E9612
:1044B0000E94A308BE016C5D7F4FCE0101960E9451
:1044C0009809CE0101960E9461058C01CE010196EA
:1044D0000E94A308F801ED59FF4F83E592E0918314
:1044E0008083BE016C5D7F4FCE0101960E949809CA
:1044F00044E1B801CE0101960E94150ECE0101964D
:104500000E94A308CE0184960E94A3080E941E1652
:104510000091561610915716D801ED91FC91008428
:10452000F185E02DC801199505971CF0C8010E947E
:104530002A1B0E945402EACF88E898E10E94A3084F
:1045400081E298E10E94AB088AEB97E10E94AB08F8
:1045500083E597E10E94AB088CEE96E10E94AB08E0
:1045600083EE96E10E94A3088AED96E10E94A308DB
:1045700081ED96E10E94A30888EC96E10E94A308D1
:104580008FEB96E10E94A30888E596E10E94AB08B4
:104590008EE898E10E94AB0885EF98E10E94AB0895
:1045A0008CE599E10C94AB081F93FC0199278827AF
:1045B000BC01E89411911032E9F3193010F01E306B
:1045C000C8F31B3251F01D3249F4689406C00E94B2
:1045D000FB22610F711D811D911D119110531A3025
:1045E000B0F33EF490958095709561957F4F8F4F15
:1045F0009F4F1F910895592F482F372F262F660F51
:10460000771F881F991F660F771F881F991F620FDA
:10461000731F841F951F660F771F881F991F0895AA
:10462000BB27FB015527AA27880F991FAA1FA4178C
:1046300010F0A41B83955051B9F7A05DAA3308F080
:10464000A95DA193009779F7B111B1931192CB01B4
:104650000C942A23DC01FC01672F71917723E1F789
:10466000329704C07C916D9370836291AE17BF073F
:10467000C8F308950E947C2308F481E00895E8942B
:1046800009C097FB3EF490958095709561957F4F9A
:104690008F4F9F4F9923A9F0F92F96E9BB27939548
:1046A000F695879577956795B795F111F8CFFAF458
:1046B000BB0F11F460FF1BC06F5F7F4F8F4F9F4F89
:1046C00016C0882311F096E911C0772321F09EE8E7
:1046D000872F762F05C0662371F096E8862F70E04D
:1046E00060E02AF09A95660F771F881FDAF7880F27
:1046F0009695879597F90895990F0008550FAA0B7D
:10470000E0E8FEEF16161706E807F907C0F01216E4
:104710001306E407F50798F0621B730B840B950BE7
:1047200039F40A2661F0232B242B252B21F408953C
:104730000A2609F4A140A6958FEF811D811D0895D9
:104740000E94B3230C9424240E94162438F00E9463
:104750001D2420F0952311F00C940D240C941324A7
:1047600011240C9458240E94352470F3959FC1F3B2
:10477000950F50E0551F629FF001729FBB27F00D0F
:10478000B11D639FAA27F00DB11DAA1F649F662764
:10479000B00DA11D661F829F2227B00DA11D621FB3
:1047A000739FB00DA11D621F839FA00D611D221F6D
:1047B000749F3327A00D611D231F849F600D211D51
:1047C000822F762F6A2F11249F5750409AF0F1F0D4
:1047D00088234AF0EE0FFF1FBB1F661F771F881F3D
:1047E00091505040A9F79E3F510580F00C940D2444
:1047F0000C9458245F3FE4F3983ED4F38695779564
:104800006795B795F795E7959F5FC1F7FE2B880FE2
:10481000911D9695879597F9089597F99F6780E878
:1048200070E060E008959FEF80EC089500240A9402
:104830001616170618060906089500240A9412167B
:104840001306140605060895092E0394000C11F4AE
:10485000882352F0BB0F40F4BF2B11F460FF04C05B
:104860006F5F7F4F8F4F9F4F089557FD9058440FB4
:10487000551F59F05F3F71F04795880F97FB991FBF
:1048800061F09F3F79F0879508951216130614067C
:10489000551FF2CF4695F1DF08C016161706180609
:1048A000991FF1CF86957105610508940895E894E4
:1048B000BB2766277727CB0197F908955058BB2768
:1048C000AA270E9476240C9424240E94162438F0EF
:1048D0000E941D2420F039F49F3F19F426F40C9413
:1048E00013240EF4E095E7FB0C940D24E92F0E94AD
:1048F000352458F3BA17620773078407950720F029
:1049000079F4A6F50C9457240EF4E0950B2EBA2FEB
:10491000A02D0B01B90190010C01CA01A0011124C5
:10492000FF27591B99F0593F50F4503E68F11A1671
:10493000F040A22F232F342F4427585FF3CF469502
:1049400037952795A795F0405395C9F77EF41F1624
:10495000BA0B620B730B840BBAF09150A1F0FF0FEE
:10496000BB1F661F771F881FC2F70EC0BA0F621FDA
:10497000731F841F48F4879577956795B795F795CA
:104980009E3F08F0B0CF9395880F08F09927EE0F5F
:104990009795879508950E943D2488F09F5798F039
:1049A000B92F9927B751B0F0E1F0660F771F881F34
:1049B000991F1AF0BA95C9F714C0B13091F00E944E
:1049C0005724B1E008950C945724672F782F882737
:1049D000B85F39F0B93FCCF3869577956795B39575
:1049E000D9F73EF490958095709561957F4F8F4FE4
:1049F0009F4F08950E947C2308F48FEF08950E9432
:104A00007C23880B990B0895A1E21A2EAA1BBB1BCD
:104A1000FD010DC0AA1FBB1FEE1FFF1FA217B3078A
:104A2000E407F50720F0A21BB30BE40BF50B661FA0
:104A3000771F881F991F1A9469F760957095809564
:104A400090959B01AC01BD01CF010895EE0FFF1FB2
:104A5000881F8BBF0790F691E02D19940F931F9339
:104A6000CF93DF938230910510F482E090E0E091E3
:104A7000C519F091C61930E020E0B0E0A0E0309711
:104A800099F42115310509F44AC0281B390B24304B
:104A90003105D8F58A819B816115710589F1FB018A
:104AA00093838283FE0111C0408151810281138171
:104AB00048175907E0F04817590799F4109761F023
:104AC00012960C93129713961C933296CF01DF9196
:104AD000CF911F910F9108950093C5191093C61996
:104AE000F4CF2115310551F04217530738F0A901D1
:104AF000DB019A01BD01DF01F801C1CFEF01F9CF60
:104B00009093C6198093C519CDCFFE01E20FF31F14
:104B1000819391932250310939832883D7CF2091F3
:104B2000C3193091C419232B41F420910202309112
:104B300003023093C4192093C319209100023091CD
:104B400001022115310541F42DB73EB74091040211
:104B500050910502241B350BE091C319F091C41943
:104B6000E217F307A0F42E1B3F0B2817390778F044
:104B7000AC014E5F5F4F2417350748F04E0F5F1FA3
:104B80005093C4194093C319819391939FCFF0E040
:104B9000E0E09CCFCF93DF930097E9F0FC013297E0
:104BA00013821282A091C519B091C619ED0130E0AF
:104BB00020E01097A1F420813181820F931F209172
:104BC000C3193091C4192817390709F061C0F0934F
:104BD000C419E093C319DF91CF910895EA01CE176C
:104BE000DF07E8F54A815B819E0141155105B1F768
:104BF000E901FB83EA8349915991C40FD51FEC1752
:104C0000FD0761F4808191810296840F951FE9016F
:104C100099838883828193819B838A83F0E0E0E09B
:104C200012968D919C9113970097B9F52D913C9117
:104C30001197CD010296820F931F2091C3193091D5
:104C4000C4192817390739F6309751F51092C6194B
:104C50001092C519B093C419A093C319BCCFD383C4
:104C6000C28340815181840F951FC817D90761F411
:104C70004E5F5F4F88819981480F591F5183408350
:104C80008A819B81938382832115310509F0B0CFFE
:104C9000F093C619E093C5199ECFFD01DC01C0CF8A
:104CA00013821282D7CF4F925F926F927F928F9230
:104CB0009F92AF92BF92CF92DF92EF92FF920F93AB
:104CC0001F93CF93DF938C01009799F4CB01DF9171
:104CD000CF911F910F91FF90EF90DF90CF90BF90F9
:104CE000AF909F908F907F906F905F904F900C94BB
:104CF0002E25FC01E60FF71F9C0122503109E21717
:104D0000F30708F4AEC0D901CD91DC911197C61715
:104D1000D70720F1C530D10578F0CE01049786176A
:104D2000970750F0C61BD70B2297C193D1936D9371
:104D30007C93CF010E94CA25C801DF91CF911F91BA
:104D40000F91FF90EF90DF90CF90BF90AF909F902A
:104D50008F907F906F905F904F9008955B01AC1A99
:104D6000BD0A4C018C0E9D1EA091C519B091C619AB
:104D7000512C412CF12CE12C109731F58091C31965
:104D80009091C4198815990509F05CC0461657061C
:104D900008F058C08091000290910102009741F400
:104DA0008DB79EB74091040250910502841B950B6C
:104DB000E817F90708F055C0F093C419E093C31938
:104DC000F90171836083B8CF8D919C9111971296F0
:104DD0006C90129713967C901397A815B90559F506
:104DE0006C0142E0C40ED11CCA14DB0420F1AC01FA
:104DF0004A195B09DA011296159780F06282738274
:104E000051834083D9016D937C93E114F10471F0D7
:104E1000D7011396FC93EE9312978ECF22968C0FA8
:104E20009D1FF90191838083F301EFCFF093C619A1
:104E3000E093C51981CF4816590608F42C017D016D
:104E4000D3019ACFCB010E942E257C01009749F017
:104E5000AE01B8010E943427C8010E94CA2587010B
:104E60006BCF10E000E068CFFB01DC0102C00190D5
:104E70000D9241505040D8F70895FB01DC0101909C
:104E80000D920020E1F7089510E0CFE8D0E000E0B7
:104E900006C0802FFE010E9426252196011DC039E3
:0C4EA000D10780E00807A9F7F894FFCFC5
:104EAC000000C719800000000000E7011A01600132
:104EBC00340291016F0183010D0A0050726F677209
:104ECC00616D2073746F70706564006578706563D4
:104EDC00746564206C656E3A200062004572726FD6
:104EEC0072205175657565206C656E6774682062FB
:104EFC0065666F72652072656D6F76696E670045C9
:104F0C0072726F72205175657565206C656E677471
:104F1C00682061667465722072656D6F76696E6764
:104F2C0000557064617465204F6B20616E64206D58
:104F3C006573736167652052656D6F7665640056A5
:104F4C00616C75652061667465722075706461743E
:104F5C00653A20006E616E00696E66006F766600C1
:104F6C0053656E64696E67204F6B004D657373619A
:104F7C0067652052656D6F766564004572577400E5
:104F8C00496E646578206578697374730045727234
:104F9C006F722048616E646C65640045724F6B00E3
:104FAC004572724F6B205175657565640057724F71
:104FBC006B00496E64657820646F65736E2774208E
:104FCC0065786973740057725774004D657373611B
:104FDC0067652073656C65637465642069733A203A
:104FEC000053746F702050726F6772616D6D652025
:104FFC00666F72206D6178207265747279207265AB
:10500C0061636865640053656C656374656420490D
:10501C006E666F204D6573736167653A200062653B
:10502C0067696E20526563656976653A2000526542
:10503C00636965766564206C656E3A007373004530
:10504C006E6420526563656976653A200043686535
:10505C00636B73756D2076616C6964617465640053
:10506C004572726F722F57722044657465726D6948
:10507C006E6564004572724F6B2F57724F6B2044F4
:10508C00657465726D696E65640063617365203368
:10509C002635006361736520313000436865636BAE
:1050AC0073756D204661696C656400456E67696E49
:0650BC00656572003F0073
:00000001FF
