:020000040000FA
:100000000C9490000C94C1000C94C1000C94C1009D
:100010000C94C1000C94C1000C94C1000C94C1005C
:100020000C94C1000C94C1000C94C1000C94C1004C
:100030000C94C1000C94C1000C94C1000C94C1003C
:100040000C94C1000C94C1000C94C1000C94C1002C
:100050000C94C1000C94C1000C94C1000C940E1FB0
:100060000C94C1000C947E200C9454200C94C1007C
:100070000C94C1000C94C1000C94C1000C94C100FC
:100080000C94C1000C94C1000C94C1000C94C100EC
:100090000C942A200C9400200C94C1000C94C100F4
:1000A0000C94C1000C94C1000C94C1000C94C100CC
:1000B0000C94C1000C94C1000C94C1000C94C100BC
:1000C0000C94C1000C94C1000C94C1000C94D61F78
:1000D0000C94AC1F0C94C1000C94821F0C94581FFC
:1000E0000C94C1000C94BA1E0C9434020C943D1E66
:1000F0000C949C1E0C9491010C9460010C947F1E36
:100100000C94E7010C9459230C941A010C946D1E65
:100110000C94CB200C946F010C948301CB205923B9
:1001200011241FBECFEFD1E2DEBFCDBF00E00CBF78
:1001300029E1A6E2B6E001C01D92AA3CB207E1F7B0
:1001400016E0A0E0B2E0E6E2F0E500E00BBF02C09E
:1001500007900D92A632B107D9F710E0CFE8D0E0B2
:1001600000E006C021970109802FFE010E94E325CF
:10017000CE38D10780E00807A9F70E9421220C940D
:1001800001280C940000FC01A089B18982E08C93C5
:10019000A089B1891C92A485B5851C92A685B785D6
:1001A00080E18C93108EA489B58986E08C93A28916
:1001B000B3898C9180618C93A289B3898C9188607A
:1001C0008C93A289B3898C9180688C930288F3897F
:1001D000E02D80818F7D808308952FB7F894609102
:1001E000D8137091D9138091DA139091DB132FBF3C
:1001F0000895FC01248135816217730720F4808102
:100200009181009729F41092F60D86EF9DE00895F4
:10021000860F971F08950895DB0114964D915C9108
:1002200015976D917C91DC01ED91FC910280F38139
:10023000E02D1994AF92BF92CF92DF92EF92FF928E
:100240000F931F93CF93DF936C017B018B01040FFE
:10025000151FEB015E01AE18BF08C017D10759F09A
:100260006991D601ED91FC910190F081E02DC601DC
:100270001995892B79F7C501DF91CF911F910F91C6
:10028000FF90EF90DF90CF90BF90AF900895FC016A
:10029000A089B1898C91A689B78982FD0FC09C91F4
:1002A000818D8F5F8F73228D821749F0A18DAE0FE4
:1002B000BF2FB11D5D969C93818F08958C910895F9
:1002C000FC01538D448D252F30E0842F90E0821B5C
:1002D000930B541710F0CF96089501970895FC01E1
:1002E000918D828D981761F0A28DAE0FBF2FB11D39
:1002F0005D968C91928D9F5F9F73928F90E0089591
:100300008FEF9FEF0895FC01918D828D981731F04A
:10031000828DE80FF11D858D90E008958FEF9FEF9E
:100320000895FC01918D228D892F90E0805C9F4F74
:10033000821B91098F73992708958CED93E10E9498
:10034000910121E0892B09F420E0822F089589E7AB
:1003500094E10E94910121E0892B09F420E0822F91
:10036000089586E195E10E94910121E0892B09F42D
:1003700020E0822F089583EB95E10E94910121E016
:10038000892B09F420E0822F0895FC01A48DA80F89
:10039000B92FB11DA35ABF4F2C91848D90E00196C7
:1003A0008F739927848FA689B7892C93A089B189E7
:1003B0008C91837080648C93938D848D981306C088
:1003C0000288F389E02D80818F7D80830895EF92EC
:1003D000FF920F931F93CF93DF93EC0181E0888FFF
:1003E0009B8D8C8D98131AC0E889F989808185FFCF
:1003F00015C09FB7F894EE89FF896083E889F98971
:1004000080818370806480839FBF81E090E0DF9172
:10041000CF911F910F91FF90EF900895F62E0B8DC5
:1004200010E00F5F1F4F0F731127E02E8C8D8E1180
:100430000CC00FB607FCFACFE889F989808185FFE7
:10044000F5CFCE010E94C501F1CFEB8DEC0FFD2F52
:10045000F11DE35AFF4FF0829FB7F8940B8FEA89A2
:10046000FB8980818062CFCFCF93DF93EC01888DB1
:100470008823B9F0AA89BB89E889F9898C9185FD1F
:1004800003C0808186FD0DC00FB607FCF7CF8C91AD
:1004900085FFF2CF808185FFEDCFCE010E94C5019F
:1004A000E9CFDF91CF91089580E090E0892B29F08A
:1004B0000E94BB0181110E94000080E090E0892B26
:1004C00029F00E94B10181110E94000080E090E0BB
:1004D000892B29F00E94A70181110E94000080E071
:1004E00090E0892B29F00E949D0181110C9400005D
:1004F0000895633031F5843F21E0920700F545E02F
:10050000489F9001499F300D1124F901E551F04FAA
:100510008081982F9B7F923609F4ACC0893609F40C
:10052000A9C0833509F4A6C08C3609F4A3C02152B2
:100530003E4E81E0F9019081933609F499C080E044
:1005400008956430F9F4843FF1E09F07C0F725E097
:10055000289FF001299FF00D1124EE5FF34F908149
:100560008EE9890F823008F485C0993609F482C07B
:10057000963609F47FC081E0933509F47AC09C3641
:10058000F1F676C06530D9F4843F21E09207B8F6E1
:10059000689FF001699FF00D1124E25FF54F908193
:1005A0008EE9890F823008F465C0993609F462C07B
:1005B000963609F45FC081E0933509F708956630F7
:1005C000E9F4843FE1E09E0708F0B9CF25E0289FD9
:1005D000F001299FF00D1124E65EF74F90818EE91E
:1005E000890F823008F446C0993609F443C0963624
:1005F00009F440C081E0933511F608956730D9F4CD
:10060000843FF1E09F0708F09ACF25E0289FF00192
:10061000299FF00D1124EA5FFD4F90818EE9890F2B
:10062000823040F1993631F1963621F181E09335EF
:1006300009F0A5CF0895683009F081CF843F21E00B
:10064000920708F07CCF25E0289FF001299FF00D4C
:100650001124E950F24F90818EE9890F823050F0D9
:10066000993641F0963631F081E0933509F087CF25
:100670000895089581E00895FC0180E0623071F0F2
:1006800024813581232BB9F0A081B1819C919923DC
:1006900091F08F5F3996853099F7089524813581DF
:1006A000232B49F0A081B1819C91992321F08F5F88
:1006B00039968A3099F708950F931F93CF93DF935C
:1006C0008C01D0E0C0E0C134D10581F0BE01C80189
:1006D0000E94F900FC0180818F3331F48C2FDF916F
:1006E000CF911F910F9108952196EDCFD0E0C0E0FA
:1006F000C134D10551F0BE01C8010E94F900FC01CE
:1007000080818D3359F32196F3CFE9CFCF93DF93D7
:10071000EC0170E060E00E94F900FC01808183340C
:1007200031F170E060E0CE010E94F900FC018081AF
:10073000863449F461E070E0CE010E94F900FC01CA
:1007400080818334E9F070E060E0CE010E94F9001E
:10075000FC0180818334C1F461E070E0CE010E942D
:10076000F900FC018081823579F482E00AC061E001
:1007700070E0CE010E94F900FC018081863489F688
:1007800081E0DF91CF91089570E060E0CE010E949A
:10079000F900FC018081823549F461E070E0CE010E
:1007A0000E94F900FC0180818334F9F270E060E07E
:1007B000CE010E94F900FC018081833459F461E08C
:1007C00070E0CE010E94F900FC0180818D3411F4AB
:1007D00083E0D7CF70E060E0CE010E94F900FC0119
:1007E00080818D3449F461E070E0CE010E94F9000F
:1007F000FC018081833461F370E060E0CE010E94EF
:10080000F900FC018081823559F461E070E0CE018D
:100810000E94F900FC018081863411F484E0B1CF9C
:1008200070E060E0CE010E94F900FC018081863416
:1008300049F461E070E0CE010E94F900FC01808182
:10084000823561F370E060E0CE010E94F900FC01A6
:100850008081823559F461E070E0CE010E94F90098
:10086000FC0180818D3411F485E08BCF70E060E075
:10087000CE010E94F900FC0180818D3449F461E0D1
:1008800070E0CE010E94F900FC018081823561F3A5
:1008900070E060E0CE010E94F900FC0180818634A6
:1008A00059F461E070E0CE010E94F900FC01808102
:1008B0008D3411F486E065CF70E060E0CE010E94D7
:1008C000F900FC0180818D3449F461E070E0CE01D3
:1008D0000E94F900FC018081863461F387E051CFEA
:1008E000CF93DF93EC0170E060E00E94F900FC011F
:1008F0008081833439F170E060E0CE010E94F9001C
:10090000FC018081863449F461E070E0CE010E94F0
:10091000F900FC0180818334F1F070E060E0CE01E9
:100920000E94F900FC0180818334D1F461E070E021
:10093000CE010E94F900FC018081823589F48FED9F
:1009400091E10BC061E070E0CE010E94F900FC0172
:100950008081863481F686E296E0DF91CF9108951A
:1009600070E060E0CE010E94F900FC0180818235D8
:1009700049F461E070E0CE010E94F900FC01808141
:100980008334E9F270E060E0CE010E94F900FC01DE
:100990008081833461F461E070E0CE010E94F9004F
:1009A000FC0180818D3419F48BEE9FE0D6CF70E08E
:1009B00060E0CE010E94F900FC0180818D3449F491
:1009C00061E070E0CE010E94F900FC018081833477
:1009D00059F370E060E0CE010E94F900FC018081D3
:1009E000823561F461E070E0CE010E94F900FC0103
:1009F0008081863419F482E09CE0AFCF70E060E043
:100A0000CE010E94F900FC018081863449F461E046
:100A100070E0CE010E94F900FC018081823559F31B
:100A200070E060E0CE010E94F900FC018081823517
:100A300061F461E070E0CE010E94F900FC01808168
:100A40008D3419F48EE09AE088CF70E060E0CE013A
:100A50000E94F900FC0180818D3449F461E070E06E
:100A6000CE010E94F900FC018081823559F370E0CB
:100A700060E0CE010E94F900FC018081863461F4BF
:100A800061E070E0CE010E94F900FC0180818D34AC
:100A900019F48AE198E061CF70E060E0CE010E9435
:100AA000F900FC0180818D3449F461E070E0CE01F1
:100AB0000E94F900FC018081863459F387EF9DE0A4
:100AC0004CCFCF93DF93EC01809150168D3409F415
:100AD00053C061E070E0CE010E94F900FC0180810A
:100AE0008D3419F48FEE96E144C070E060E0CE01E1
:100AF0000E94F900FC0180818D34A1F370E060E078
:100B0000CE010E94F900FC018081833439F170E04C
:100B100060E0CE010E94F900FC018081823549F439
:100B200061E070E0CE010E94F900FC018081833415
:100B3000F1F070E060E0CE010E94F900FC018081DC
:100B4000863449F461E070E0CE010E94F900FC01B6
:100B50008081823561F08DEB97E10BC061E070E040
:100B6000CE010E94F900FC018081823581F686E584
:100B700097E1DF91CF91089570E060E0CE010E948F
:100B8000F900FC018081833409F49AC070E060E0D0
:100B9000CE010E94F900FC018081863451F461E0AD
:100BA00070E0CE010E94F900FC018081823509F4D9
:100BB00091C070E060E0CE010E94F900FC018081EC
:100BC0008D3451F461E070E0CE010E94F900FC0127
:100BD0008081823509F47EC070E060E0CE010E9421
:100BE000F900FC018081863451F461E070E0CE01AF
:100BF0000E94F900FC018081833409F4B8CF70E0D1
:100C000060E0CE010E94F900FC018081823551F440
:100C100061E070E0CE010E94F900FC018081833424
:100C200009F4A5CF70E060E0CE010E94F900FC015C
:100C300080818D3451F461E070E0CE010E94F900B2
:100C4000FC018081833409F492CF70E060E0CE0132
:100C50000E94F900FC018081833451F461E070E06E
:100C6000CE010E94F900FC018081863409F473CF23
:100C700070E060E0CE010E94F900FC0180818235C5
:100C800051F461E070E0CE010E94F900FC01808126
:100C9000863409F460CF70E060E0CE010E94F90074
:100CA000FC0180818D3409F01DCF61E070E0CE0140
:100CB0000E94F900FC018081863409F013CF4BCFEC
:100CC00061E070E0CE010E94F900FC018081823574
:100CD00009F05CCF84E298E14CCF6130E1F4843FCD
:100CE00021E09207B0F425E0289FF001299FF00D44
:100CF0001124EA5DF94F90818EE9890F823048F125
:100D0000993639F1963629F181E0933509F19C360F
:100D1000E1F080E008956230C9F4843F21E0920759
:100D2000C0F725E0289FF001299FF00D1124E15222
:100D3000FE4E90818EE9890F823058F0993649F045
:100D4000963639F081E0933511F708950C947902C5
:100D5000089581E00895FC0180E090E0219128371A
:100D600009F4892F9F5F9134C9F708950F931F935A
:100D7000CF93DF93EC018B010E94AB06FE0190E064
:100D800020E0682F6250770BAB01BF016C1B7D0B1D
:100D90006417750724F431912327930FF6CFF801D8
:100DA0008681821303C081E02781291380E0DF91CF
:100DB000CF911F910F910895DC01ED91FC9101906D
:100DC000F081E02D1994FC01DB0111821082138265
:100DD0001282158214828D919C9111979183808348
:100DE00012968D919C9113979383828314968D9183
:100DF0009C9115979583848311961C921E9213964D
:100E00001C921E92129715961C921E92149716967B
:100E10008C911697868317968C91179787831896CF
:100E20008C9180870895FB0101900020E9F73197AC
:100E3000AF01461B570BDC01ED91FC910280F38161
:100E4000E02D1994CF93DF93BC018CED93E10E94C8
:100E50000C01EC0165E274E08CED93E10E94130754
:100E60008C0F9D1FDF91CF9108958F929F92AF922B
:100E7000BF920F931F93CF93DF93CDB7DEB7A197A8
:100E80000FB6F894DEBF0FBECDBF19A2423008F4F2
:100E90004AE08E010F5D1F4F842E912CB12CA12CA6
:100EA000A50194010E94C125E62FB901CA01EA30CB
:100EB00004F5E05DD801EE938D01232B242B252B27
:100EC00079F790E080E0109729F0BD018CED93E177
:100ED0000E941307A1960FB6F894DEBF0FBECDBFD8
:100EE000DF91CF911F910F91BF90AF909F908F9006
:100EF0000895E95CDFCFCF92DF92EF92FF92CF931C
:100F0000DF936B017C016DE28CED93E10E94E701C0
:100F1000EC0166277727CB016C197D098E099F09A3
:100F20004AE00E9435078C0F9D1FDF91CF91FF9003
:100F3000EF90DF90CF900895CF93DF93682F70E00C
:100F400090E080E04AE00E943507EC0165E274E041
:100F50008CED93E10E9413078C0F9D1FDF91CF91C1
:100F60000895CF93DF93BC01990F880B990B97FFDE
:100F70000EC00E947B07EC0165E274E08CED93E10A
:100F80000E9413078C0F9D1FDF91CF9108954AE0B7
:100F90000E943507F0CF0F931F93CF93DF93EC019F
:100FA0000E9413078C0165E274E0CE010E941307D2
:100FB000800F911FDF91CF911F910F910895FC0138
:100FC000E25AFF4F2081233038F068E274E08CED64
:100FD00093E10E94CB07FFCF2F5F2083FC01E65AED
:100FE000FF4F1082855A9F4FFC0110820895FF9297
:100FF0000F931F93CF93DF938C01DC0114968C9198
:1010000093E0F92EF80E68E374E08CED93E10E9412
:10101000CB078F2D0E949C07C0E5D6E167E474E002
:1010200089859A850E94130789859A85DC01ED914F
:10103000FC910190F081E02D6F2D1995B801898503
:101040009A850E940C0189859A85DC01ED91FC91BD
:101050000190F081E02DD80116966C911995898543
:101060009A85DC01ED91FC910190F081E02DD80191
:1010700017966C91199568E770E089859A850E94AA
:10108000DC060E94ED006D837E838F839887DF915D
:10109000CF911F910F91FF900895FC018081918164
:1010A000009711F00C94912360E070E0CB0108955B
:1010B0000F931F93CF93DF938C01EB01FC01808191
:1010C00091810097E1F06881798161157105A9F03E
:1010D000428153812C813D814217530770F00E9459
:1010E000FA278C819D81F801958384831D821C825F
:1010F000DF91CF911F910F9108950E9487268881DB
:101100009981F801918380838A819B819383828373
:101110008C819D8195838483198218821B821A8217
:10112000E5CFCF93DF93EC0188819981009711F08F
:101130000E948726198218821D821C821B821A82B5
:10114000DF91CF910895FC0180819181009711F08A
:101150000C94872608950F931F93CF93DF938C01F0
:10116000EC01C65ADF4F0C171D0729F02997CE0155
:101170000E94A308F8CFDF91CF911F910F9108959E
:101180000F931F93CF93DF93EC0188819981009790
:1011900059F02A813B812617370730F081E0DF9133
:1011A000CF911F910F9108958B016F5F7F4F0E9428
:1011B0001027009759F0998388831B830A832C8119
:1011C0003D81232B59F7FC011082E8CF80E0E7CF67
:1011D000EF92FF920F931F93CF93DF9361157105E9
:1011E00041F480E0DF91CF911F910F91FF90EF903C
:1011F000089541155105B1F07B01EC010C811D8171
:10120000040F151FB8010E94C008882351F32881DC
:1012100039818C819D81B701820F931F0E94FA272B
:101220001D830C8381E0DECFCF93DF93EC01FB01C4
:1012300001900020E9F73197AF01461B570B0E9440
:10124000E808811103C0CE010E949108CE01DF9110
:10125000CF910895CF93DF93EC01FB014481558139
:10126000608171810E94E808811103C0CE010E9453
:101270009108CE01DF91CF910895EF92FF920F93E5
:101280001F93CF93DF93EC017B018A01BA010E9487
:10129000C00881110BC0CE010E949108CE01DF91E0
:1012A000CF911F910F91FF90EF9008951D830C83B4
:1012B000B701888199810E94FA27F0CFFB01019044
:1012C0000020E9F73197AF01461B570B0C943D09FD
:1012D0000F931F93CF93DF93CDB7DEB761970FB610
:1012E000F894DEBF0FBECDBF8C01CB01F801118297
:1012F000108213821282158214824AE0BE016F5F4F
:101300007F4F0E94CD23BE016F5F7F4FC8010E94B7
:101310005E0961960FB6F894DEBF0FBECDBFDF91B8
:10132000CF911F910F910895CF93DF931F921F923A
:10133000CDB7DEB7FC0111821082138212821582B2
:10134000148269831A82BE016F5F7F4F0E945E091B
:101350000F900F90DF91CF910895CF93DF93EC0121
:10136000FB018617970749F060817181611571054E
:1013700041F0448155810E943D09CE01DF91CF911A
:1013800008950E949108F9CFFC0111821082138206
:101390001282158214820C94AD090F931F93CF9380
:1013A000DF9300D000D0CDB7DEB7BC01CE010196EF
:1013B0000E94C409CE0101960E9461058C01CE01F4
:1013C00001960E94A3080E94ED00015A1F4F0E943F
:1013D000FC23F801608371838283938326960FB682
:1013E000F894DEBF0FBECDBFDF91CF911F910F915B
:1013F00008950F931F93CF93DF93EC018B010E940D
:10140000C409F80186818E8387818F8380858887D0
:10141000DF91CF911F910F910895EF92FF920F935B
:101420001F93CF93DF93EC018B01F12CE12CB801DA
:101430006E0D7F1DCE018E0D9F1D0E94F90989E062
:10144000E80EF11C8AE5E816F10489F7F801E65A7E
:10145000FF4F8081FE01E65AFF4F8083F801E55A75
:10146000FF4F8081FE01E55AFF4F8083F801E45A67
:10147000FF4F8081FE01E45AFF4F8083F801E35A59
:10148000FF4F8081FE01E35AFF4F8083F801E25A4B
:10149000FF4F8081FE01E25AFF4F8083F801E15A3D
:1014A000FF4F80819181A281B381FE01E15AFF4FFC
:1014B00080839183A283B383F801ED59FF4F80812C
:1014C0009181FE01ED59FF4F91838083F801EB5923
:1014D000FF4F80819181CB59DF4F99838883DF91C2
:1014E000CF911F910F91FF90EF9008950F931F934D
:1014F000CF93DF93EC018B010E94AD09F801868147
:101500008E8387818F8380858887CE01DF91CF91FD
:101510001F910F910895CF92DF92EF92FF920F9358
:101520001F93CF93DF931092511670E060E00E94FA
:10153000F900FC018081853409F066C010925216D2
:1015400069E474E08CED93E10E94CB0761E082ECEA
:1015500096E10E943C030E949C0761E082EC96E1C8
:101560000E943C03D82F02EC16E1C0E0DC1317C048
:10157000F9E0FF9E6001112410E000E0075F1F4FBB
:10158000FC1668F5C8018E53994EBC016C0D7D1D8B
:1015900009978C0D9D1D0E94760AF394EFCF70E0A1
:1015A00060E0C8010E94F900FC018081853499F453
:1015B00062E070E0C8010E94F900FC01808187357B
:1015C00051F062E070E0C8010E94F900FC018081E6
:1015D0008F3409F0FC2ECF5F075F1F4FC7CF6CE63B
:1015E00074E08CED93E10E94CB0761E082EC96E120
:1015F0000E943C03DF91CF911F910F91FF90EF90DC
:10160000DF90CF900C949C071092531661E082EC0F
:1016100096E10E943C03F82E02EC16E1C0E0FC12B9
:1016200017C0F9E0DF9F7001112410E000E0075FB0
:101630001F4FDC1768F5C8018E53994EBC016E0D23
:101640007F1D09978E0D9F1D0E94760ADF5FEFCFE9
:1016500070E060E0C8010E94F900FC0180818735DC
:1016600099F462E070E0C8010E94F900FC018081F9
:10167000873551F062E070E0C8010E94F900FC017A
:1016800080818F3409F0DC2FCF5F075F1F4FC7CFFA
:10169000DF91CF911F910F91FF90EF90DF90CF904E
:1016A0000895BF92CF92DF92EF92FF920F931F9314
:1016B000CF93DF9300D000D0CDB7DEB77C01D62E1C
:1016C0008FEF860F863098F461E0C7010E943C03DB
:1016D000082FC70110E0101709F45DC00996FC013E
:1016E000319720812D1509F456C01F5FF4CF62E0B9
:1016F000C7010E943C03082F24E1D21641F185E185
:10170000D812E7CF670110E0101709F444C0F601C2
:1017100080858431B9F4B601CE0101960E94C409D6
:10172000CE0101960E945C03682F70E0C6010E9402
:10173000F900FC01B080CE0101960E94A308FDE3F0
:10174000BF1649F11F5F29E0C20ED11CDDCF670132
:1017500010E0101701F1F60180858431B9F4B6016B
:10176000CE0101960E94C409CE0101960E945C033D
:10177000682F70E0C6010E94F900FC01B080CE0124
:1017800001960E94A308FFE3BF1629F01F5F29E01E
:10179000C20ED11CDECF89E0189FE00CF11C112491
:1017A00090E080E06C01E9E0CE0ED11C101750F4FF
:1017B000B6016E0D7F1D8E0D9F1D0E94760A1F5F64
:1017C000C601F0CF26960FB6F894DEBF0FBECDBF90
:1017D000DF91CF911F910F91FF90EF90DF90CF900D
:1017E000BF9008950F931F93CF93DF9300D000D045
:1017F000CDB7DEB7209150162D34E9F480914A1709
:10180000811110924A1710924D1765E18FEE96E103
:101810000E94510B6EE874E083EB95E10E94CB07C8
:1018200026960FB6F894DEBF0FBECDBFDF91CF91E5
:101830001F910F910895BC01CE0101960E94C40929
:10184000CE0101960E9461058C01CE0101960E9495
:10185000A308F801E55AFF4F808181111082F80139
:10186000E25AFF4F108265E1C8010E94510B6EE8F9
:1018700074E08CED93E1D2CFFC01118210821382CF
:10188000128215821482FB0101900020E9F7319742
:10189000AF01461B570B0C943D09AF92BF92CF92FC
:1018A000DF92EF92FF920F931F93CF93DF9300D0BD
:1018B00000D000D0CDB7DEB76C01F62E8A0167E20A
:1018C00074E0CE0101960E943C0C82E0F81609F407
:1018D00084C061E082EC96E10E943C03882309F415
:1018E0005EC022EC36E1A90190E0BA01475F5F4F8C
:1018F000FA013197E081E13049F4CE0101960E946E
:10190000760ABC01C6010E94F90951C09F5F891384
:10191000ECCF42EC56E180E0BA01475F5F4FFA013D
:101920003197E081E23049F38F5F9813F5CF42ECB5
:1019300056E180E0BA01475F5F4FFA013197E081DD
:10194000E330D9F28F5F9813F5CF42EC56E180E097
:10195000BA01475F5F4FFA013197E081E43069F2E5
:101960008F5F9813F5CF42EC56E180E0BA01475FF4
:101970005F4FFA013197E081E53009F4BECF8F5F08
:101980009813F4CF80E0B901275F3F4FF9013197F9
:101990004081463009F4B1CF8F5F9813F4CF8EE1C8
:1019A0008987BE016F5F7F4FC6010E94E306CE01AB
:1019B00001960E94A308C60129960FB6F894DEBFCF
:1019C0000FBECDBFDF91CF911F910F91FF90EF9090
:1019D000DF90CF90BF90AF90089562E0C8010E9461
:1019E0003C03F82E8823D9F25801F80190E080E0FA
:1019F0008F1590F42085AC014F5F5F4F39962130F1
:101A000049F429E0289FB001299F700D1124600F2F
:101A1000711F73CFCA01ECCFF80190E080E0208500
:101A2000223079F3019639968F15C8F3F80190E0CA
:101A300080E02085233029F3019639968F15C8F36D
:101A4000F80190E080E020852430D9F201963996A3
:101A50008F15C8F3F80190E080E02085253089F2E9
:101A6000019639968F15C8F3F80190E080E0208543
:101A7000263039F2019639968F15C8F3F80190E0B7
:101A800080E020852A3009F4BCCF019639968F1565
:101A9000C0F3F80190E080E020852B3009F4B1CF4D
:101AA000019639968F15C0F3F80190E080E020850B
:101AB0002F3009F4A6CF019639968F15C0F3E12C8B
:101AC000F80180858431E9F465E070E0C8010E9486
:101AD000F900FC0180818F3311F4B8010ECF64E06E
:101AE00070E0C8010E94F900FC0180818F33A9F3E6
:101AF00063E070E0C8010E94F900FC0180818F332F
:101B000061F3E394075F1F4FEF14D0F210E0F5018B
:101B100080858431E9F465E070E0C5010E94F90038
:101B2000FC0180818D3311F4B501E7CE64E070E0F3
:101B3000C5010E94F900FC0180818D33A9F363E0A7
:101B400070E0C5010E94F900FC0180818D3361F3D2
:101B50001F5FF9E0AF0EB11C1F15C8F220CFAF9286
:101B6000BF92CF92DF92EF92FF920F931F93CF938A
:101B7000DF936C015B017A0189012417350720F49A
:101B80008F2D7901042F182F67E274E0C6010E949F
:101B90003C0CD5011496CD91DC91EC16FD06E0F4D9
:101BA0000C171D0708F4E801D501ED91FC91119780
:101BB000EC0FFD1F108110826D917C916E0D7F1DC9
:101BC000C60161157105A1F00E945E09F5018081D1
:101BD0009181C80FD91F1883C601DF91CF911F9142
:101BE0000F91FF90EF90DF90CF90BF90AF9008954E
:101BF0000E949108EBCFCF92DF92EF92FF920F936A
:101C00001F93CF93DF9300D000D0CDB7DEB78C0108
:101C100025E030E042E050E0BC01CE0101960E9498
:101C2000AF0DCE0101960E944D086B01CE010196C9
:101C30000E94A308B801CE0101960E94C409CE01FA
:101C400001960E9461058C01CE0101960E94A308B5
:101C5000F801ED59FF4F81E0208131812C153D05C0
:101C600009F080E026960FB6F894DEBF0FBECDBF18
:101C7000DF91CF911F910F91FF90EF90DF90CF9068
:101C800008954F925F926F927F92AF92BF92CF92E0
:101C9000DF92EF92FF920F931F93CF93DF93CDB715
:101CA000DEB7A1970FB6F894DEBF0FBECDBFFC0123
:101CB000248135812134310508F0F3C0B42E6B0145
:101CC0008C017E01F3E1EF0EF11C89E0F701119226
:101CD0008A95E9F767E274E0C7010E943C0CB801FD
:101CE000C7010E94AD09BB8EB701CE0101960E94CB
:101CF000F9091F82188610E000E08D819E81081787
:101D00001907B8F4B801CE0101960E94F900FC0150
:101D10009F81808189278F83B801CE0101960E941F
:101D2000F900FC0198858081890F88870F5F1F4F1C
:101D3000E4CF89858F30E9F0843109F06BC0BE01B2
:101D40006F5F7F4FCE010A960E94C409CE010A96AA
:101D50000E945C03682F70E0CE0101960E94F9009A
:101D6000FC011081CE010A960E94A3081D3309F0E0
:101D700051C0BE016F5F7F4FCE010A960E94C40919
:101D8000CE010A960E9470048C01CE010A960E9430
:101D9000A308BE016F5F7F4FCE014C960E94C4091D
:101DA000CE014C960E945C03282F30E042E050E0C8
:101DB000BE016F5F7F4FCE010A960E94AF0DCE012C
:101DC0000A960E944D082B015B01CE010A960E94E3
:101DD000A308CE014C960E94A308F4EF4F16F1E041
:101DE0005F0630F024EFA21A21E0B20A07EF1DE0EF
:101DF00085E08A9DF0018B9DF00D1124E00FF11F0D
:101E0000808184360CF062C082360CF081C083354C
:101E100009F484C0BE016F5F7F4FCE010A960E9415
:101E2000E306BE01665F7F4FC7010E94580888899C
:101E3000898F89898A8F8A898B8FCE010A960E9421
:101E4000A308CE0101960E94A308B701CE01019616
:101E50000E94F90970E060E0CE0101960E94F9004D
:101E6000FC018081853419F0873509F084C061E078
:101E7000C6010E943C0395E0891760F4BE016F5FC4
:101E80007F4F960149E0849F200D311D1124C90127
:101E90000E94760ACE0101960E94A308C7010E9403
:101EA000A308A1960FB6F894DEBF0FBECDBFDF9199
:101EB000CF911F910F91FF90EF90DF90CF90BF9047
:101EC000AF907F906F905F904F900895893699F012
:101ED0008C3619F0863609F09DCFDF0111963596C4
:101EE0002D919F8192279F838885820F8887AE17C7
:101EF000BF07B1F78FCF81819F8198279F83288566
:101F0000820F8887228192279F83820F888782CFC2
:101F100021819F8192279F838885F7CF618172817C
:101F2000CE010A960E94C409CE010A960E94220799
:101F300010E0A12EB12C8E859F85A816B906B0F4AD
:101F4000B501CE010A960E94F900FC019F818081B3
:101F500089278F83B501CE010A960E94F900FC0102
:101F600098858081890F88871F5FE3CFCE010A960D
:101F70000E94A3084FCF62E0C6010E943C039AE092
:101F80007BCF0F931F93CF93DF93CDB7DEB76E97C1
:101F90000FB6F894DEBF0FBECDBFBC01CE010196D7
:101FA0000E94680962E5CE0107960E94940960913B
:101FB0005016CE0143960E949409BE016D5E7F4F7C
:101FC000CE010D960E94C409BE01695F7F4FCE010C
:101FD0000D960E942A09BE016F5F7F4F0E942A0959
:101FE0006CEA74E00E941409BC01CE0149960E947B
:101FF000C409CE010D960E94A308CE0143960E940B
:10200000A308CE0107960E94A308CE0101960E9464
:10201000A30880915016BE01675E7F4F8D34F1F4A6
:10202000CE0101960E94C40944E16FEE76E1CE0133
:1020300001960E94410ECE0101960E94A308CE0196
:1020400049960E94A3086E960FB6F894DEBF0FBEA5
:10205000CDBFDF91CF911F910F910895CE010196D1
:102060000E94C409CE0101960E9461058C01CE0137
:1020700001960E94A308BE01675E7F4FCE010196C4
:102080000E94C40944E1B801D2CFEF92FF920F93AE
:102090001F93CF93DF93CDB7DEB768970FB6F89451
:1020A000DEBF0FBECDBF8C017B0170E060E00E94FF
:1020B000F900FC016081CE010D960E94940961E057
:1020C00070E0C8010E94F900FC016081CE01019618
:1020D0000E949409BE016F5F7F4FCE0107960E9458
:1020E000C409BE01635F7F4FCE0107960E942A0993
:1020F0006CEE74E00E941409BC01CE0143960E946C
:10210000C409CE0107960E94A308CE0101960E9441
:10211000A308CE010D960E94A308BE016D5E7F4FFD
:10212000CE0101960E94C4094AE0B701CE01019692
:102130000E94410ECE0101960E94A308CE01439653
:102140000E94A30868960FB6F894DEBF0FBECDBFFD
:10215000DF91CF911F910F91FF90EF900895EF9233
:10216000FF920F931F93CF93DF9300D000D0CDB792
:10217000DEB78C01809150168D3401F522E030E0FD
:1021800050E040E0B801CE0101960E94AF0D6FEE25
:1021900076E1CE0101960E944510CE0101960E9483
:1021A000A30826960FB6F894DEBF0FBECDBFDF9111
:1021B000CF911F910F91FF90EF900895B801CE013C
:1021C00001960E94C409CE0101960E9461057C011E
:1021D000CE0101960E94A30822E030E050E040E0EA
:1021E000B801CE0101960E94AF0DB701D2CFEF9298
:1021F000FF920F931F93CF93DF93CDB7DEB768970E
:102200000FB6F894DEBF0FBECDBF8C017B0170E02E
:1022100060E00E94F900FC016081CE010D960E94F1
:10222000940961E070E0C8010E94F900FC0160813E
:10223000CE0101960E949409BE016F5F7F4FCE01CF
:1022400007960E94C409BE01635F7F4FCE010796C7
:102250000E942A0967ED74E00E941409BC01CE01B6
:1022600043960E94C409CE0107960E94A308CE019E
:1022700001960E94A308CE010D960E94A308BE01FC
:102280006D5E7F4FCE0101960E94C4094BE0B701FD
:10229000CE0101960E94410ECE0101960E94A30834
:1022A000CE0143960E94A30868960FB6F894DEBF4D
:1022B0000FBECDBFDF91CF911F910F91FF90EF9097
:1022C00008954F925F926F927F929F92AF92BF92CA
:1022D000CF92DF92EF92FF920F931F93CF93DF93F2
:1022E000CDB7DEB762970FB6F894DEBF0FBECDBF95
:1022F0006C015A0179010E946D06882309F4E5C139
:1023000044EFC41641E0D40620F054EFC51A51E062
:10231000D50AC8010E94AB06982E25E02C9DC0016D
:102320002D9D900D1124E80EF91EF7019081943631
:102330000CF05BC092360CF0B6C0933509F468C15E
:10234000B501CE0101960E94C409CE0101960E94FA
:102350005C03682F70E0C5010E94F900FC01108148
:10236000CE0101960E94A3081F3349F1B501CE01A9
:1023700007960E94C409809150168D3409F088C1D7
:102380006FEC74E083EB95E10E94CB0722E030E034
:1023900050E040E0BE01695F7F4FCE0101960E9490
:1023A000AF0D6FEE76E1CE0101960E94F710CE01DF
:1023B00001960E94A308CE0107960E94A308629688
:1023C0000FB6F894DEBF0FBECDBFDF91CF911F9146
:1023D0000F91FF90EF90DF90CF90BF90AF909F90C4
:1023E0007F906F905F904F900895993609F46EC07A
:1023F0009C3609F4EEC0963609F0A2CF492D46501E
:10240000550BFA01E00FF11FD7011196C701059690
:1024100021912D938A179B07D9F76EEA74E08CED12
:1024200093E10E94CB07F701C180D280E380F48062
:10243000A7019601C701B6010E94BC2563EC74E0B8
:10244000811126C026013701E89477F82FEF3FEF7E
:102450004FE75FE7C301B2010E94BC2581110CC0A8
:102460002FEF3FEF4FE75FE7C301B2010E94F72371
:1024700067EC74E0181664F02FEF3FEF4FE75FE46E
:10248000C701B6010E94B7251816CCF56BEC74E0B5
:102490008CED93E10E94130765E274E08CED93E10B
:1024A0000E9413074DCFF801E90DF11D3697808189
:1024B000F70181836EEA74E08CED93E10E94CB0713
:1024C000F701818190E00E94B1073ACF492D465033
:1024D000550BFA01E00FF11FD7011196C7010596C0
:1024E00021912D93A817B907D9F76EEA74E08CED06
:1024F00093E10E94CB07F70181819281E4CF2FEF16
:102500003FEF4FE75FECC701B6010E94F72387FD5D
:10251000BDCF20E030E0A901C701B6010E94F7233A
:1025200087FF09C06DE28CED93E10E94E701F7FAA5
:10253000F094F7F8F0942AE037ED43EA5BE3C70143
:10254000B6010E941C252B013C010E9488256B01CD
:102550007C010E94FC239B01AC01C301B2010E94DB
:102560001B252B013C014AE0C701B6010E9435073B
:102570006EE28CED93E10E94E70120E030E040E262
:1025800051E4C301B2010E945D242B013C010E9471
:1025900088256B01F12CE12C4AE0C701B6010E94AD
:1025A0003507C701B6010E94FC239B01AC01C301A2
:1025B000B2010E941B2520E030E040E251E40E947D
:1025C0005D240E94882590E080E04AE00E94350763
:1025D00063CF492D4650550BFA01E00FF11FD7018B
:1025E0001196C701059621912D938A179B07D9F75C
:1025F0006EEA74E08CED93E10E94CB07F7016181F4
:1026000072818381948197FFE0CF0E947B0744CF42
:10261000B801CE0107960E943C0CB501CE0101968F
:102620000E94C409CE0101960E945C036E01FDE088
:10263000CF0ED11C492D4250550B9A01482F50E026
:102640004F5F5F4FBE01695F7F4FC6010E94AF0DB4
:10265000F701818192818C159D0519F0B6010E94C8
:102660005808C6010E94A308CE0101960E94A30843
:10267000CE0107960E94A3086EEA74E08CED93E108
:102680000E94CB07F701818192810E94220758CED8
:10269000BE01695F7F4FCE0101960E94C409CE0141
:1026A00001960E9461058C01CE0101960E94A3084B
:1026B00022E030E050E040E0BE01695F7F4FCE0194
:1026C00001960E94AF0DB8016ECEB501CE01019604
:1026D0000E94C409CE0101960E94AF10CE0101965E
:1026E0006CCE8F929F92AF92BF92CF92DF92EF9279
:1026F000FF920F931F93CF93DF9300D000D0CDB7FD
:10270000DEB77C016B014A018901CE0101960E946E
:10271000C409CE0101960E9470045C01CE010196AD
:102720000E94A308B601CE0101960E94C409CE0101
:1027300001960E948603D82ECE0101960E94A3081E
:1027400084EFE81681E0F80650F084EFE81A81E0A3
:10275000F80A88E0D82E97EFA92E9DE0B92EB40193
:10276000CE0101960E94C4099501AE014F5F5F4FF3
:102770006D2DC7010E946111CE0101960E94A30830
:1027800026960FB6F894DEBF0FBECDBFDF91CF9176
:102790001F910F91FF90EF90DF90CF90BF90AF907F
:1027A0009F908F9008953F924F925F926F927F9289
:1027B0008F929F92AF92BF92CF92DF92EF92FF9251
:1027C0000F931F93CF93DF9300D000D0CDB7DEB728
:1027D0007C018B0180915016B7018D3409F09DC0AA
:1027E000CE0101960E94C409CE0101960E94FB0D04
:1027F000D82ECE0101960E94A308DD2009F479C0ED
:10280000B701CE0101960E94C409CE0101960E9433
:1028100070044C01CE0101960E94A308B701CE01BD
:1028200001960E94C409CE0101960E948603B82E2B
:10283000CE0101960E94A30825E030E042E050E07E
:10284000B701CE0101960E94AF0DCE0101960E9404
:102850004D082B016B01CE0101960E94A30884EF65
:10286000481681E0580650F084EFC81A81E0D80A73
:1028700028E0B22E37EF832E3DE0932EB701CE0134
:1028800001960E94C4099401AE014F5F5F4F6B2D0A
:10289000C6010E946111CE0101960E94A308809199
:1028A000491781111092491710924D1764E18FEE6C
:1028B00096E10E94510B6AED74E08CED93E10E9469
:1028C000CB0726960FB6F894DEBF0FBECDBFDF91C3
:1028D000CF911F910F91FF90EF90DF90CF90BF901D
:1028E000AF909F908F907F906F905F904F903F90B0
:1028F000089522E030E050E040E0B701CE010196BB
:102900000E94AF0D6FEE76E1CE0101960E94451058
:10291000CE0101960E94A308D4CFCE0101960E9459
:10292000C409CE0101960E9461056C01CE01019699
:102930000E94A308B701CE0101960E94C409CE01EE
:1029400001960E94FB0DB82ECE0101960E94A308AD
:10295000BB2009F45CC0B701CE0101960E94C409F6
:10296000CE0101960E9470044C01CE0101960E9496
:10297000A308B701CE0101960E94C409CE010196B9
:102980000E948603382ECE0101960E94A30825E0FE
:1029900030E042E050E0B701CE0101960E94AF0D59
:1029A000CE0101960E944D082B015B01CE010196DC
:1029B0000E94A30884EF481681E0580650F084EF87
:1029C000A81A81E0B80A88E0382E97EF892E9DE09A
:1029D000992EB701CE0101960E94C4099401AE015F
:1029E0004F5F5F4F632DC5010E946111CE010196BB
:1029F0000E94A308F601E65AFF4F808181111082E0
:102A0000F601E25AFF4F108264E1C60152CF22E084
:102A100030E050E040E0B701CE0101960E94AF0DDA
:102A2000B60172CFEF92FF920F931F93CF93DF9374
:102A3000CDB7DEB76E970FB6F894DEBF0FBECDBF31
:102A40008C017B0167E274E0CE0149960E943C0C48
:102A5000F8012481358142E050E0B801CE0143966F
:102A60000E94AF0D70E060E0C8010E94F900FC0117
:102A70006081CE010D960E94940961E070E0C8016A
:102A80000E94F900FC016081CE0101960E94940928
:102A9000BE016F5F7F4FCE0107960E94C409BE0141
:102AA000635F7F4FCE0107960E942A09BE016D5ECB
:102AB0007F4F0E942A09BC01CE0149960E94AD09B0
:102AC000CE0107960E94A308CE0101960E94A3089A
:102AD000CE010D960E94A308CE0143960E94A30842
:102AE000BE01675E7F4FCE0101960E94C4094FE090
:102AF000B701CE0101960E94410ECE0101960E94BF
:102B0000A308CE0149960E94A3086E960FB6F894CA
:102B1000DEBF0FBECDBFDF91CF911F910F91FF9010
:102B2000EF900895CF92DF92FF920F931F93CF9370
:102B3000DF93CDB7DEB72C970FB6F894DEBF0FBE8C
:102B4000CDBF8C016B01CE0101960E94C409CE015C
:102B500001960E948603F82ECE0101960E94A308DA
:102B6000043F81E0180720F0045F114088E0F82E50
:102B7000B601CE0107960E94C4096F2DC8010E94BC
:102B80006D068823E9F180915016BE01695F7F4F81
:102B90008D3401F5CE0101960E94C4096FEE76E1F5
:102BA000CE0101960E941215CE0101960E94A30843
:102BB000CE0107960E94A3082C960FB6F894DEBFAC
:102BC0000FBECDBFDF91CF911F910F91FF90DF908E
:102BD000CF900895CE0101960E94C409CE010196BE
:102BE0000E9461058C01CE0101960E94A308BE01DE
:102BF000695F7F4FCE0101960E94C409B801D0CF12
:102C000022E030E050E040E0BE01695F7F4FCE013E
:102C100001960E94AF0DCE0101960E94AF10C4CF65
:102C2000CF93DF93CDB7DEB72C970FB6F894DEBF06
:102C30000FBECDBF6AEE74E0CE0107960E943C0C39
:102C4000BE01695F7F4FCE0101960E94C40943E037
:102C500062EC76E1CE0101960E94410ECE01019612
:102C60000E94A308CE0107960E94A3082C960FB6D7
:102C7000F894DEBF0FBECDBFDF91CF9108950F93C3
:102C80001F93CF93DF93CDB7DEB72C970FB6F89491
:102C9000DEBF0FBECDBF8B0167E00E9479028823A3
:102CA00009F451C06FEE74E08CED93E10E94CB0704
:102CB00070E060E0C8010E94F900FC018081853469
:102CC00049F56CEF74E08CED93E10E94CB076AE06C
:102CD00075E0CE0107960E943C0CBE01695F7F4FF4
:102CE000CE0101960E94C40944E062EC76E1CE0177
:102CF00001960E94410ECE0101960E94A3086FE04A
:102D000075E08CED93E10E94CB07CE0107960E94FF
:102D1000A3082AC06CE175E0CE0107960E943C0C26
:102D2000BE01695F7F4FCE0101960E94C40946E053
:102D300062EC76E1CE0101960E94410ECE01019631
:102D40000E94A308E2CF70E060E0C8010E94F90091
:102D5000FC018081853499F461E275E08CED93E1AA
:102D60000E94CB070E9410162C960FB6F894DEBF77
:102D70000FBECDBFDF91CF911F910F91089565E3F5
:102D800075E0CE0107960E943C0CBE01695F7F4F43
:102D9000CE0101960E94C40945E0CACF3F924F92EE
:102DA0005F926F927F928F929F92AF92BF92CF92DB
:102DB000DF92EF92FF920F931F93CF93DF93CDB7E4
:102DC000DEB7CC59D1090FB6F894DEBF0FBECDBF28
:102DD00061E978E1CE0101960E940D0AAE014F5FD4
:102DE0005F4F61E0CE0184579F4F0E944D0CCE0192
:102DF00001960E94AB08CC56DF4F1881C459D040D1
:102E00001E3109F4D7C0809152168111AEC0113025
:102E100051F56AE375E08CED93E10E94CB07CE019A
:102E200084579F4F0E942207BE0164577F4FCE01F7
:102E300088599F4F0E94F909BE0168597F4FCE0102
:102E400001960E94F909CE0101960E94F707CE0172
:102E500001960E94A30810935216CE0188599F4FE5
:102E60000E94A30828C080915316882309F441C00A
:102E70000E94ED000091551610915616209157169C
:102E800030915816601B710B820B930B6C327140A2
:102E90008105910580F080915116833038F060E50E
:102EA00075E08CED93E10E94CB07FFCF8F5F80939D
:102EB000511610925316CE0184579F4F0E94A308BB
:102EC000C456DF4F0FB6F894DEBF0FBECDBFDF9103
:102ED000CF911F910F91FF90EF90DF90CF90BF9017
:102EE000AF909F908F907F906F905F904F903F90AA
:102EF00008956AE375E08CED93E10E94CB07CE0163
:102F000084579F4F0E942207BE0164577F4FCE0116
:102F100088599F4F0E94F909BE0168597F4FCE0121
:102F200001960E94F909CE0101960E94F707CE0191
:102F300001960E94A308E1968FADE197823019F4C3
:102F400081E080935316CE0188599F4F0E94A308B9
:102F5000CC56DF4F6881C459D040623009F4ABCF02
:102F600082EC96E10E94510BA6CF0E94ED000091E9
:102F70005516109156162091571630915816601B11
:102F8000710B820B930B6C3271408105910508F433
:102F900092CF80915116833038F060E575E08CED6A
:102FA00093E10E94CB07FFCF8F5F80935116109261
:102FB000521681CF6FEE76E1CE0101960E940D0A86
:102FC000AE014F5F5F4F62E0CE0186589F4F0E9477
:102FD0004D0CCE0101960E94AB080E94ED000E94AC
:102FE000FC2320914E1730914F174091501750916C
:102FF00051170E941B250E9488256B017C0166E504
:1030000077E1CE0101960E940D0AAE014F5F5F4F3E
:1030100062E0CE018F589F4F0E944D0CCE01019669
:103020000E94AB080E94ED002B013C018091B51776
:103030009091B617A091B717B091B817CB56DF4F44
:1030400088839983AA83BB83C559D0406DEB77E110
:10305000CE0101960E940D0AAE014F5F5F4F62E004
:10306000CE0188599F4F0E944D0CCE0101960E94BF
:10307000AB080E94ED004B015C0180911C189091FF
:103080001D18A0911E18B0911F18C756DF4F8883D6
:103090009983AA83BB83C959D04067E274E0CE010B
:1030A00001960E943C0CCE57DF4F1881C258D04089
:1030B000EA960FADEA97BE011017F0F0C301B20116
:1030C0000E94FC23CB56DF4F288139814A815B81E6
:1030D000C559D0400E941B250E9488252B013C0128
:1030E000BE01011708F479C010130CC04C145D0424
:1030F0006E047F0408F071C066587F4FCE010196C0
:103100000E94760A9985E1968FADE197981708F0AD
:103110006DC0BE016F5F7F4FCE018D579F4F0E94E4
:10312000E306CE0101960E94A308CE0188599F4F65
:103130000E94A308CE018F589F4F0E94A308CE0182
:1031400086589F4F0E94A308C557DF4F8881CB58F0
:10315000D0408E3109F471C0BE016D577F4FCE0152
:1031600001960E94C409CE0101960E9461056C017E
:10317000CE0101960E94A30846019AE5890E911C92
:10318000D4018C91811107C0F601E55AFF4F80816F
:10319000882309F456C00E94ED000E94FC23F6012A
:1031A000E15AFF4F20813181428153810E941B25CA
:1031B00020E030E046E953E40E94B72587FD3DC09A
:1031C000F601E25AFF4F8081833078F160E575E0C7
:1031D0008CED93E10E94CB07FFCF6F587F4FCE015C
:1031E00001960E94760A730162018CCF891720F440
:1031F000BE0168597F4F90CF981393CFC501B4019A
:103200000E94FC23C756DF4F288139814A815B81A8
:10321000C959D0400E941B250E9488256C157D0548
:103220008E059F0508F475CFE3CF8F5F8083F6018D
:10323000E55AFF4F1082F4011082CE018D579F4F47
:103240000FCE65E775E08CED93E10E94CB07CE01D0
:103250008D579F4F0E942207BE016D577F4FCE01B1
:103260008F589F4F0E94F909BE016F587F4FCE01C2
:1032700088599F4F0E94F909BE0168597F4FCE01BE
:1032800001960E94C409CE0101960E9461057C014D
:10329000CE0101960E94A3085701FAE5AF0EB11CBA
:1032A000D5018C91882339F08701055A1F4FF80109
:1032B0008081811160C2AD963FACAD97E1968FAD34
:1032C000E1978F30F1F0843109F0C5C1BE01685932
:1032D0007F4FCE0101960E94C409CE0101960E9443
:1032E0005C03682F70E0CE0188599F4F0E94F9005F
:1032F000DC011C91CE0101960E94A3081D3309F048
:10330000AAC1BE0168597F4FCE0101960E94C4092F
:10331000CE0101960E9470048C01CE0101960E949C
:10332000A308BE0168597F4FCE0186589F4F0E9467
:10333000C409CE0186589F4F0E945C03282F30E0BD
:1033400042E050E0BE0168597F4FCE0101960E94D5
:10335000AF0DCE0101960E944D082B015B01CE01FD
:1033600001960E94A308CE0186589F4F0E94A30891
:10337000B4EF4B16B1E05B0630F0E4EFAE1AE1E0DB
:10338000BE0A07EF1DE085E08A9DF0018B9DF00DE0
:103390001124E00FF11F808184360CF040C1823689
:1033A0000CF047C1833509F447C168E374E08CED44
:1033B00093E10E94CB07832D0E949C0767E474E091
:1033C0008091591690915A160E94130780915916B0
:1033D00090915A16DC01ED91FC910190F081E02D65
:1033E000632D1995BE0168597F4F809159169091B0
:1033F0005A160E940C01E1968FADE1978F30F1F0E3
:10340000843109F087C0BE0168597F4FCE01019613
:103410000E94C409CE0101960E945C03682F70E0EF
:10342000CE0188599F4F0E94F900FC011081CE0106
:1034300001960E94A3081D3309F06CC0BE016859B3
:103440007F4FCE0101960E94C409CE0101960E94D1
:1034500070045C01CE0101960E94A308BE01685968
:103460007F4FCE0186589F4F0E94C409CE018658D7
:103470009F4F0E945C03282F30E042E050E0BE01E5
:1034800068597F4FCE0101960E94AF0DCE01019683
:103490000E944D082B018B01CE0101960E94A308CA
:1034A000CE0186589F4F0E94A308F4EF4F16F1E01B
:1034B0005F0630F0045F114087EFA82E8DE0B82E34
:1034C00085E0809FD001819FB00D1124AA0DBB1D06
:1034D0008C9184360CF0C2C082360CF0E0C083358B
:1034E00009F41EC1BE0168597F4FCE0101960E94AA
:1034F000C409CE0101960E945C03182FCE010196EB
:103500000E94A308F7011D3309F031C1E55AFF4FAE
:1035100081E080838091591690915A16DC01ED91DB
:10352000FC910190F081E02DAF966FADAF971995AA
:103530008091591690915A16DC01ED91FC91019001
:10354000F081E02DE0966FADE097199568E770E0A7
:103550008091591690915A160E94DC06BE01685956
:103560007F4FCE0101960E94F909CE0101960E947B
:10357000CD09CE0101960E94A308CE0188599F4F24
:103580000E94A308CE018F589F4F0E94A308C557E1
:10359000DF4F8881CB58D040843101F5BE016D5793
:1035A0007F4FCE0101960E94C409CE0101960E9470
:1035B0005C03682F70E0CE018D579F4F0E94F90089
:1035C000FC011081CE0101960E94A3081D3309F071
:1035D000EDC0F601E55AFF4F81E08083C557DF4F0C
:1035E0008881CB58D040843109F427CEBE016D5775
:1035F0007F4FCE0101960E94C409CE0101960E9420
:1036000061058C01CE0101960E94A308C557DF4FCA
:103610006881CB58D040C8010E94510B0ECE89362C
:1036200029F08C3619F0863609F0BFCE27E0320E2D
:10363000BCCEF4E03F0EB9CE61817281CE0101961D
:103640000E94C4098D819E810396380ECE01019699
:103650000E94A308AACE83E0380EA7CE893671F166
:103660008C3609F444C0863609F03CCF8D010F5FDB
:103670001F4F5D01E5E0AE0EB11C8091591690918F
:103680005A16D8016D918D01DC01ED91FC910190EC
:10369000F081E02D1995A016B10679F723CF80911E
:1036A000591690915A16FC0120813181F90120812F
:1036B000318111966C91F901199514CF8D010F5F2D
:1036C0001F4F5D01F5E0AF0EB11C8091591690912E
:1036D0005A16D8016D918D01DC01ED91FC9101909C
:1036E000F081E02D1995A016B10679F7FBCE8D017A
:1036F0000F5F1F4F5D01E5E0AE0EB11C80915916C2
:1037000090915A16D8016D918D01DC01ED91FC91DB
:103710000190F081E02D19950A151B0579F7E2CE8D
:1037200011966D917C91CE0101960E94C40910E022
:1037300000E08D819E8108171907A0F4A09059160A
:10374000B0905A16B801CE0101960E94F900FC0112
:103750006081062E000C770BC5010E94DC060F5F0E
:103760001F4FE7CFCE0101960E94A308BBCEE65AB9
:10377000FF4F1082CFCE0E94ED000E94FC23F70184
:10378000E15AFF4F20813181428153810E941B25E4
:1037900020E030E046E953E40E94B72518160CF00B
:1037A000ECCEF5011082D8011C92E7CE81E0D40165
:1037B0008C9314CFBF92CF92DF92EF92FF920F9330
:1037C0001F93CF93DF93CDB7DEB7C85CD1090FB697
:1037D000F894DEBF0FBECDBF7C016DE875E08CEDC7
:1037E00093E10E94CB078E0108591F4F80E4D80156
:1037F0001D928A95E9F7CE0187559F4FF8011192E6
:103800008E179F07E1F7D701ED91FC910284F385B4
:10381000E02DC7011995823649F5D701ED91FC914C
:103820000284F385E02DC7011995B82E6DE975E086
:103830008CED93E10E94CB078B2D0E949C076801C1
:103840008C2D801B8B1590F4D701ED91FC91008499
:10385000F185E02DC7011995892BB1F383EB95E133
:103860000E946F01F60181936F01EACF6BEA75E068
:10387000CE018D539F4F0E943C0C6EEA75E08CED9B
:1038800093E10E94CB0767E274E0CE0188559F4F19
:103890000E943C0C67E274E0CE0101960E943C0C51
:1038A000C8010E94AB06E82EF12CB801893008F05F
:1038B0007FC0CE0189549F4F0E943C0C970122503B
:1038C000310950E040E0BE0169547F4FCE018F5472
:1038D0009F4F0E94AF0DBE016F547F4FCE010196E6
:1038E0000E945808CE018F549F4F0E94A308CE011A
:1038F00089549F4F0E94A308BE016F5F7F4FCE0186
:1039000089549F4F0E94C40970E060E0CE01895441
:103910009F4F0E94F900DC018C91853409F476C038
:10392000873509F4FAC062E070E0CE0189549F4FF8
:103930000E94F900FC0180818F3409F4FFC08735B3
:1039400009F402C1BE0169547F4FCE018F549F4FCD
:103950000E94C409CE018F549F4F0E945C03682FC0
:1039600070E0CE0189549F4F0E94F900DC018C91D8
:103970008F3391F4C8010E94AB06E82FE350FF0B90
:10398000BF01CE0189549F4F0E94F900DD24D394DA
:10399000DC018C918F3309F4D12CCE018F549F4FD1
:1039A0000E94A30884E1DD2009F440C08FE03EC0FE
:1039B000CE0189549F4F0E943C0CB801CE01835424
:1039C0009F4F0E943C0CCE0183549F4F0E945C038A
:1039D000282F30E02F5F3F4F50E040E0BE01695498
:1039E0007F4FCE018F549F4F0E94AF0DBE016F5489
:1039F0007F4FCE0101960E945808CE018F549F4FF1
:103A00000E94A308CE0183549F4F6FCF62E070E005
:103A1000CE0189549F4F0E94F900FC0180818F34B0
:103A200009F48EC0873509F076C083E08987CE011E
:103A300089549F4F0E94A308E6E6F0E0EC0FFD1FBB
:103A4000EE0DFF1D80818F83E7E6F0E0EC0FFD1F98
:103A5000EE0DFF1D80818887BE016F5F7F4FCE0115
:103A600088559F4F0E9458088F81C255DF4F888329
:103A7000CE5AD0408885C155DF4F8883CF5AD04079
:103A80008985C055DF4F8883C05BD040CE01019649
:103A90000E94A308BE0168557F4FCE018D539F4FF2
:103AA0000E94AD09CE0188559F4F0E942207BE019A
:103AB00068557F4FCE0101960E94F909BE016F5FE4
:103AC0007F4FC8010E94B606F82ECE0101960E94D3
:103AD000A308FF2009F472C16CEB75E08CED93E153
:103AE0000E94CB07C055DF4F8881C05BD0408F302C
:103AF00009F4B6C0843151F18B3009F08AC0BE019F
:103B000068557F4FCE0101960E94C409CE010196EF
:103B10000E94F20B7AC081E089CF62E070E0CE01B2
:103B200089549F4F0E94F900DC018C918F3451F031
:103B3000873511F485E07ACF82E078CF8BE076CFBD
:103B400084E074CF86E072CF8AE070CFBE01685502
:103B50007F4FCE018F549F4F0E94C409CE018F54D6
:103B60009F4F0E945C03282F30E042E050E0BE01EE
:103B700068557F4FCE0101960E94AF0DCE01019690
:103B80000E944D086B01CE0101960E94A308CE0150
:103B90008F549F4F0E94A308BE0168557F4FCE01EE
:103BA00001960E94C409CE0101960E945C03682F11
:103BB00070E0CE0188559F4F0E94F900FC01B08053
:103BC000CE0101960E94A308FDE3BE01BF123BC0D7
:103BD0006D537F4FCE0101960E94C409BE01685506
:103BE0007F4FCE018F549F4F0E94C4099801AE01B0
:103BF0004F5F5F4FBE016F547F4FC6010E9471132C
:103C0000CE018F549F4F0E94A308CE0101960E94BF
:103C1000A308C055DF4FE881C05BD040E150EA30D7
:103C200008F08AC0F0E08827E75EF14E8F4F0C94D1
:103C3000E3253D1E3D1E7F1E6D1E7F1E6D1E9C1EBC
:103C40009C1E9C1EBA1E68557F4FCE0101960E9495
:103C5000C409BE016F5F7F4FC6010E949215D5CF88
:103C6000BE0168557F4FCE0101960E94C409B8017C
:103C7000CE0101960E94D313C8CF6FEC75E08CED96
:103C800093E10E94CB07C455DF4F28813981CC5A7C
:103C9000D04042E050E0BE0168557F4FCE01019612
:103CA0000E94AF0DCE0101960E944D086B01CE011E
:103CB00001960E94A308BE0168557F4FCE01019670
:103CC0000E94C409BE016F5F7F4FC6010E943F166C
:103CD000CE0101960E94A3082FC063EE75E08CED23
:103CE00093E10E94CB07BE0168557F4FCE0101963C
:103CF0000E94C409CE0101960E948B0AE9CF69EFA8
:103D000075E08CED93E10E94CB07809151168330D2
:103D100008F0FFCF8F5F8093511670E060E0CE0116
:103D200088559F4F0E94F900DC018C918534F9F48D
:103D3000109252160E94CE16CE0188559F4F0E94B7
:103D4000A308CE018D539F4F0E94A308C853DF4F95
:103D50000FB6F894DEBF0FBECDBFDF91CF911F919C
:103D60000F91FF90EF90DF90CF90BF900895109249
:103D70005316E0CF62E076E08CED93E10E94CB0732
:103D8000BE0168557F4FCE0101960E94C409CE0145
:103D900001960E9461058C01CE0101960E94A30844
:103DA000B801CE0101960E940D0ACE0101960E9433
:103DB000DF07CE0101960E94AB08BCCF6AE076E037
:103DC0008CED93E10E94CB07C055DF4F8881C05B2B
:103DD000D040813019F08350823018F40E941016C0
:103DE000ABCFBE0168557F4FCE0101960E94C4093A
:103DF000CE0101960E9461058C01CE0101960E94C0
:103E0000A308BE0168557F4FCE0101960E94C409E8
:103E1000B801CE0101960E9445105ACF1F920F9211
:103E20000FB60F9211242F933F938F939F93AF93CD
:103E3000BF938091D8139091D913A091DA13B091C8
:103E4000DB133091D71323E0230F2D3758F501965C
:103E5000A11DB11D2093D7138093D8139093D9132C
:103E6000A093DA13B093DB138091D3139091D41302
:103E7000A091D513B091D6130196A11DB11D8093C9
:103E8000D3139093D413A093D513B093D613BF91AB
:103E9000AF919F918F913F912F910F900FBE0F90F7
:103EA0001F90189526E8230F0296A11DB11DD2CFB1
:103EB0001F920F920FB60F9211240BB60F922F93F1
:103EC0003F934F935F936F937F938F939F93AF93A2
:103ED000BF93EF93FF938CED93E10E94C501FF9197
:103EE000EF91BF91AF919F918F917F916F915F9172
:103EF0004F913F912F910F900BBE0F900FBE0F90DF
:103F00001F9018951F920F920FB60F9211240BB6A7
:103F10000F922F933F934F935F936F937F938F9362
:103F20009F93AF93BF93EF93FF938CED93E10E9428
:103F30004701FF91EF91BF91AF919F918F917F9139
:103F40006F915F914F913F912F910F900BBE0F900A
:103F50000FBE0F901F9018951F920F920FB60F92E1
:103F600011240BB60F922F933F934F935F936F9350
:103F70007F938F939F93AF93BF93EF93FF9389E7C3
:103F800094E10E94C501FF91EF91BF91AF919F9184
:103F90008F917F916F915F914F913F912F910F90F2
:103FA0000BBE0F900FBE0F901F9018951F920F928F
:103FB0000FB60F9211240BB60F922F933F934F938E
:103FC0005F936F937F938F939F93AF93BF93EF9381
:103FD000FF9389E794E10E944701FF91EF91BF9120
:103FE000AF919F918F917F916F915F914F913F9191
:103FF0002F910F900BBE0F900FBE0F901F90189532
:104000001F920F920FB60F9211240BB60F922F939F
:104010003F934F935F936F937F938F939F93AF9350
:10402000BF93EF93FF9386E195E10E94C501FF9155
:10403000EF91BF91AF919F918F917F916F915F9120
:104040004F913F912F910F900BBE0F900FBE0F908D
:104050001F9018951F920F920FB60F9211240BB656
:104060000F922F933F934F935F936F937F938F9311
:104070009F93AF93BF93EF93FF9386E195E10E94E7
:104080004701FF91EF91BF91AF919F918F917F91E8
:104090006F915F914F913F912F910F900BBE0F90B9
:1040A0000FBE0F901F9018951F920F920FB60F9290
:1040B00011240BB60F922F933F934F935F936F93FF
:1040C0007F938F939F93AF93BF93EF93FF9383EB74
:1040D00095E10E94C501FF91EF91BF91AF919F9132
:1040E0008F917F916F915F914F913F912F910F90A1
:1040F0000BBE0F900FBE0F901F9018951F920F923E
:104100000FB60F9211240BB60F922F933F934F933C
:104110005F936F937F938F939F93AF93BF93EF932F
:10412000FF9383EB95E10E944701FF91EF91BF91CF
:10413000AF919F918F917F916F915F914F913F913F
:104140002F910F900BBE0F900FBE0F901F901895E0
:10415000EF92FF920F931F93CF93DF93EC018C01AB
:104160007C018AE5E80EF11C67E274E0C8010E9458
:104170003C0C075F1F4FE016F106B1F7CB59DF4F3C
:1041800083EB95E199838883DF91CF911F910F9104
:10419000FF90EF9008950F931F93CF93DF931092AA
:1041A000DF131092DE1348EE53E060E070E04093BE
:1041B000E0135093E1136093E2137093E31387E1EC
:1041C00094E09093DD138093DC1325E331E030938A
:1041D000E9132093E81324E331E03093EB132093A9
:1041E000EA1320E331E03093ED132093EC1321E345
:1041F00031E03093EF132093EE1322E331E030935C
:10420000F1132093F01326E331E03093F31320935E
:10421000F2131092F5131092F6131092F7131092F6
:10422000F81310927C1410927B1440937D145093D9
:104230007E1460937F147093801490937A1480930B
:10424000791425ED30E0309386142093851424ED05
:1042500030E0309388142093871420ED30E03093C1
:104260008A142093891421ED30E030938C1420932C
:104270008B1422ED30E030938E1420938D1426EDB4
:1042800030E03093901420938F1410929214109277
:104290009314109294141092951410921915109270
:1042A000181540931A1550931B1560931C157093A5
:1042B0001D1590931715809316152DEC30E0309353
:1042C0002315209322152CEC30E0309325152093F4
:1042D000241528EC30E0309327152093261529EC7F
:1042E00030E030932915209328152AEC30E03093E4
:1042F0002B1520932A152EEC30E030932D152093AA
:104300002C1510922F151092301510923115109215
:1043100032151092B6151092B5154093B7155093FB
:10432000B8156093B9157093BA159093B41580932E
:10433000B31585EC90E09093C0158093BF1584EC85
:1043400090E09093C2158093C11580EC90E090931B
:10435000C4158093C31581EC90E09093C6158093AB
:10436000C51582EC90E09093C8158093C71586EC34
:1043700090E09093CA158093C9151092CC151092B5
:10438000CD151092CE151092CF15C7E6EFE5F9E1E5
:10439000DF018C2F1D928A95E9F7CF010E94A8209A
:1043A000E8EFF8E1DF018C2F1D928A95E9F7CF0144
:1043B0000E94A820E1E9F8E1DF018C2F1D928A9587
:1043C000E9F7CF010E94A820EBE5F6E1DF011D929D
:1043D000CA95E9F7CF010E94A82089E0E0E5F6E15F
:1043E000DF011D928A95E9F783EB95E190935A16C8
:1043F00080935916C2ECD6E10FEE16E167E274E045
:10440000CE010E943C0C29960C171D07B9F78FEEC0
:1044100096E10E94A82086E597E10E94A8208DEBF6
:1044200097E10E94A82084E298E10E94A8206AE116
:1044300076E08BE898E1DF91CF911F910F910C947A
:104440003C0CCF93DF93CDB7DEB762970FB6F894ED
:10445000DEBF0FBECDBF789484B5826084BD84B5C5
:10446000816084BD85B5826085BD85B5816085BD6F
:1044700080916E00816080936E0010928100809127
:1044800081008260809381008091810081608093AF
:104490008100809180008160809380008091B100D4
:1044A00084608093B1008091B00081608093B000FF
:1044B0008091910082608093910080919100816051
:1044C0008093910080919000816080939000809112
:1044D000A10082608093A1008091A10081608093FF
:1044E000A1008091A00081608093A00080912101B3
:1044F000826080932101809121018160809321015C
:104500008091200181608093200180917A008460F5
:1045100080937A0080917A00826080937A00809103
:104520007A00816080937A0080917A00806880931D
:104530007A001092C10083E48093501683EB95E1DA
:1045400090935A16809359160E94C3008CED93E104
:104550000E94C30062E370E0CE0107960E946809E2
:104560006FE176E0CE0101960E943C0CBE01695FCE
:104570007F4FCE0101960E942A09BC01CE010D9603
:104580000E94C409CE0101960E94A308CE0107969D
:104590000E94A308BE01635F7F4FCE0101960E9477
:1045A000C40942E062EC76E1CE0101960E94410E20
:1045B000CE0101960E94A308CE010D960E94A30889
:1045C00065E670E0CE0107960E94680962E276E037
:1045D000CE0101960E943C0CBE01695F7F4FCE0167
:1045E00001960E942A09BC01CE010D960E94C409C1
:1045F000CE0101960E94A308CE0107960E94A3084F
:10460000BE01635F7F4FCE0101960E94C40941E065
:1046100062EC76E1CE0101960E94410ECE01019638
:104620000E94A308CE010D960E94A30819E61093DC
:10463000C9138CE2E82EFF24F394F092CB13E0929E
:10464000CA1382E690E00E94C10F1093AB13F09260
:10465000AD13E092AC138CE590E00E94C10F83E5AE
:104660008093C4138BE898E19093C6138093C5138D
:104670001093F50F84E690E09093F70F8093F60F78
:1046800086E68093D20F0E94CE16009159161091A3
:104690005A16D801ED91FC910084F185E02DC801F6
:1046A000199505971CF0C8010E94DA1B0E9454025C
:1046B000EACF8BE898E10E94A30884E298E10E9487
:1046C000AB088DEB97E10E94AB0886E597E10E946D
:1046D000AB088FEE96E10E94AB0886EE96E10E9451
:1046E000A3088DED96E10E94A30884ED96E10E9457
:1046F000A3088BEC96E10E94A30882EC96E10E944D
:10470000A3088BE596E10E94AB0881E998E10E943D
:10471000AB0888EF98E10E94AB088FE599E10C9413
:10472000AB081F93FC0199278827BC01E8941191DD
:104730001032E9F3193010F01E30C8F31B3251F07B
:104740001D3249F4689406C00E94B823610F711DA0
:10475000811D911D119110531A30B0F33EF49095C4
:104760008095709561957F4F8F4F9F4F1F91089552
:10477000592F482F372F262F660F771F881F991F15
:10478000660F771F881F991F620F731F841F951F65
:10479000660F771F881F991F0895BB27FB015527B8
:1047A000AA27880F991FAA1FA41710F0A41B83958E
:1047B0005051B9F7A05DAA3308F0A95DA193009705
:1047C00079F7B111B1931192CB010C94E723DC017D
:1047D000FC01672F71917723E1F7329704C07C9138
:1047E0006D9370836291AE17BF07C8F308950E945E
:1047F000392408F481E00895E89409C097FB3EF459
:1048000090958095709561957F4F8F4F9F4F99231D
:10481000A9F0F92F96E9BB279395F695879577959B
:104820006795B795F111F8CFFAF4BB0F11F460FF5B
:104830001BC06F5F7F4F8F4F9F4F16C0882311F0B3
:1048400096E911C0772321F09EE8872F762F05C0C7
:10485000662371F096E8862F70E060E02AF09A9562
:10486000660F771F881FDAF7880F9695879597F957
:104870000895990F0008550FAA0BE0E8FEEF1616F1
:104880001706E807F907C0F012161306E407F50744
:1048900098F0621B730B840B950B39F40A2661F0B8
:1048A000232B242B252B21F408950A2609F4A1405B
:1048B000A6958FEF811D811D08950E9470240C9490
:1048C000E1240E94D32438F00E94DA2420F09523BA
:1048D00011F00C94CA240C94D02411240C941525A6
:1048E0000E94F22470F3959FC1F3950F50E0551F7D
:1048F000629FF001729FBB27F00DB11D639FAA2735
:10490000F00DB11DAA1F649F6627B00DA11D661F83
:10491000829F2227B00DA11D621F739FB00DA11DA4
:10492000621F839FA00D611D221F749F3327A00D5E
:10493000611D231F849F600D211D822F762F6A2FFA
:1049400011249F5750409AF0F1F088234AF0EE0F5F
:10495000FF1FBB1F661F771F881F91505040A9F78C
:104960009E3F510580F00C94CA240C9415255F3F9E
:10497000E4F3983ED4F3869577956795B795F795C8
:10498000E7959F5FC1F7FE2B880F911D9695879540
:1049900097F9089597F99F6780E870E060E00895BF
:1049A0009FEF80EC089500240A9416161706180647
:1049B0000906089500240A94121613061406050623
:1049C0000895092E0394000C11F4882352F0BB0FB4
:1049D00040F4BF2B11F460FF04C06F5F7F4F8F4F17
:1049E0009F4F089557FD9058440F551F59F05F3F52
:1049F00071F04795880F97FB991F61F09F3F79F001
:104A000087950895121613061406551FF2CF469582
:104A1000F1DF08C0161617061806991FF1CF869504
:104A20007105610508940895E894BB2766277727E8
:104A3000CB0197F908955058BB27AA270E94332528
:104A40000C94E1240E94D32438F00E94DA2420F050
:104A500039F49F3F19F426F40C94D0240EF4E09519
:104A6000E7FB0C94CA24E92F0E94F22458F3BA17EA
:104A7000620773078407950720F079F4A6F50C9474
:104A800014250EF4E0950B2EBA2FA02D0B01B901C1
:104A900090010C01CA01A0011124FF27591B99F0B4
:104AA000593F50F4503E68F11A16F040A22F232FC0
:104AB000342F4427585FF3CF469537952795A79510
:104AC000F0405395C9F77EF41F16BA0B620B730BB7
:104AD000840BBAF09150A1F0FF0FBB1F661F771F28
:104AE000881FC2F70EC0BA0F621F731F841F48F4DD
:104AF000879577956795B795F7959E3F08F0B0CF66
:104B00009395880F08F09927EE0F9795879508954C
:104B10000E94FA2488F09F5798F0B92F9927B7512F
:104B2000B0F0E1F0660F771F881F991F1AF0BA9551
:104B3000C9F714C0B13091F00E941425B1E0089576
:104B40000C941425672F782F8827B85F39F0B93F68
:104B5000CCF3869577956795B395D9F73EF4909504
:104B60008095709561957F4F8F4F9F4F08950E945C
:104B7000392408F48FEF08950E943924880B990B8B
:104B80000895A1E21A2EAA1BBB1BFD010DC0AA1F8E
:104B9000BB1FEE1FFF1FA217B307E407F50720F0A6
:104BA000A21BB30BE40BF50B661F771F881F991F21
:104BB0001A9469F760957095809590959B01AC016A
:104BC000BD01CF010895EE0FFF1F881F8BBF079017
:104BD000F691E02D19940F931F93CF93DF938230BA
:104BE000910510F482E090E0E091C819F091C919A4
:104BF00030E020E0B0E0A0E0309799F421153105D5
:104C000009F44AC0281B390B24303105D8F58A81B4
:104C10009B816115710589F1FB0193838283FE01FC
:104C200011C0408151810281138148175907E0F07A
:104C30004817590799F4109761F012960C93129740
:104C400013961C933296CF01DF91CF911F910F9154
:104C500008950093C8191093C919F4CF211531058F
:104C600051F04217530738F0A901DB019A01BD0149
:104C7000DF01F801C1CFEF01F9CF9093C9198093FB
:104C8000C819CDCFFE01E20FF31F819391932250FB
:104C9000310939832883D7CF2091C6193091C7199C
:104CA000232B41F420910202309103023093C71963
:104CB0002093C6192091000230910102211531057F
:104CC00041F42DB73EB74091040250910502241BD8
:104CD000350BE091C619F091C719E217F307A0F45C
:104CE0002E1B3F0B2817390778F0AC014E5F5F4F42
:104CF0002417350748F04E0F5F1F5093C719409394
:104D0000C619819391939FCFF0E0E0E09CCFCF93C1
:104D1000DF930097E9F0FC01329713821282A09191
:104D2000C819B091C919ED0130E020E01097A1F445
:104D300020813181820F931F2091C6193091C719AC
:104D40002817390709F061C0F093C719E093C61915
:104D5000DF91CF910895EA01CE17DF07E8F54A8188
:104D60005B819E0141155105B1F7E901FB83EA839F
:104D700049915991C40FD51FEC17FD0761F480814B
:104D800091810296840F951FE9019983888382811E
:104D900093819B838A83F0E0E0E012968D919C9151
:104DA00013970097B9F52D913C911197CD0102967B
:104DB000820F931F2091C6193091C7192817390700
:104DC00039F6309751F51092C9191092C819B0935D
:104DD000C719A093C619BCCFD383C2834081518128
:104DE000840F951FC817D90761F44E5F5F4F888104
:104DF0009981480F591F518340838A819B819383F6
:104E000082832115310509F0B0CFF093C919E093E1
:104E1000C8199ECFFD01DC01C0CF13821282D7CF0B
:104E20004F925F926F927F928F929F92AF92BF92BA
:104E3000CF92DF92EF92FF920F931F93CF93DF9366
:104E40008C01009799F4CB01DF91CF911F910F91C5
:104E5000FF90EF90DF90CF90BF90AF909F908F909A
:104E60007F906F905F904F900C94EB25FC01E60FC4
:104E7000F71F9C0122503109E217F30708F4AEC076
:104E8000D901CD91DC911197C617D70720F1C53014
:104E9000D10578F0CE0104978617970750F0C61B0E
:104EA000D70B2297C193D1936D937C93CF010E942E
:104EB0008726C801DF91CF911F910F91FF90EF904E
:104EC000DF90CF90BF90AF909F908F907F906F902A
:104ED0005F904F9008955B01AC1ABD0A4C018C0E97
:104EE0009D1EA091C819B091C919512C412CF12CCB
:104EF000E12C109731F58091C6199091C71988154A
:104F0000990509F05CC04616570608F058C0809114
:104F1000000290910102009741F48DB79EB7409135
:104F2000040250910502841B950BE817F90708F05D
:104F300055C0F093C719E093C619F90171836083D6
:104F4000B8CF8D919C91119712966C9012971396F1
:104F50007C901397A815B90559F56C0142E0C40E71
:104F6000D11CCA14DB0420F1AC014A195B09DA0137
:104F70001296159780F06282738251834083D90123
:104F80006D937C93E114F10471F0D7011396FC93B7
:104F9000EE9312978ECF22968C0F9D1FF90191836D
:104FA0008083F301EFCFF093C919E093C81981CF43
:104FB0004816590608F42C017D01D3019ACFCB0184
:104FC0000E94EB257C01009749F0AE01B8010E94D8
:104FD000F127C8010E94872687016BCF10E000E00F
:104FE00068CFFB01DC0102C001900D92415050409E
:104FF000D8F70895FB01DC0101900D920020E1F744
:10500000089510E0CFE8D0E000E006C0802FFE0158
:105010000E94E3252196011DC039D10780E00807D1
:10502000A9F7F894FFCF0000CA1980000000000023
:105030000000000000000000000000000000000070
:105040000000000000000000000000000000000060
:105050000000000000000000000000000000000050
:105060000000000000000000000000000000000040
:105070000000000000000000000000000000000030
:105080000000000000000000000000000000000020
:105090000000000000000000000000000000000010
:1050A0000000000000000000000000000000000000
:1050B00000000000000000000000000000000000F0
:1050C00000000000000000000000000000000000E0
:1050D00000000000000000000000000000000000D0
:1050E00000000000000000000000000000000000C0
:1050F00000000000000000000000000000000000B0
:10510000000000000000000000000000000000009F
:10511000000000000000000000000000000000008F
:10512000000000000000000000000000000000007F
:10513000000000000000000000000000000000006F
:10514000000000000000000000000000000000005F
:10515000000000000000000000000000000000004F
:10516000000000000000000000000000000000003F
:10517000000000000000000000000000000000002F
:10518000000000000000000000000000000000001F
:10519000000000000000000000000000000000000F
:1051A00000000000000000000000000000000000FF
:1051B00000000000000000000000000000000000EF
:1051C00000000000000000000000000000000000DF
:1051D00000000000000000000000000000000000CF
:1051E00000000000000000000000000000000000BF
:1051F00000000000000000000000000000000000AF
:10520000000000000000000000000000000000009E
:10521000000000000000000000000000000000008E
:10522000000000000000000000000000000000007E
:1052300000000000000000000000000000E7011A6C
:10524000016001340291016F0183010D0A00507267
:105250006F6772616D2073746F707065640065783C
:10526000706563746564206C656E3A200062004569
:1052700072726F72205175657565206C656E67740A
:1052800068206265666F72652072656D6F76696E03
:1052900067004572726F72205175657565206C6587
:1052A0006E6774682061667465722072656D6F76D2
:1052B000696E6700557064617465204F6B20616E84
:1052C00064206D6573736167652052656D6F7665E7
:1052D00064003D0056616C756520616674657220DE
:1052E0007570646174653A20006E616E00696E6667
:1052F000006F76660053656E64696E67204F6B00C1
:105300004D6573736167652052656D6F76656400E6
:105310004572577400496E646578206578697374C6
:1053200073004572726F722048616E646C65640030
:1053300045724F6B004572724F6B205175657565F4
:10534000640057724F6B00496E64657820646F6526
:10535000736E2774206578697374005772577400F0
:105360004D6573736167652073656C65637465640F
:105370002069733A200053746F702050726F677207
:10538000616D6D6520666F72206D61782072657445
:10539000727920726561636865640053656C65634A
:1053A00074656420496E666F204D6573736167652F
:1053B0003A2000626567696E2052656365697665AB
:1053C0003A20005265636965766564206C656E3AC3
:1053D00000737300456E6420526563656976653AB3
:1053E0002000436865636B73756D2076616C69643A
:1053F00061746564004572726F722F577220446544
:105400007465726D696E6564004572724F6B2F57DB
:10541000724F6B2044657465726D696E65640063DC
:105420006173652033263500636173652031300078
:10543000436865636B73756D204661696C656400D4
:0C5440004F6D6172005772004572000051
:020000040003F7
:10E000000D9489F10D94B2F10D94B2F10D94B2F129
:10E010000D94B2F10D94B2F10D94B2F10D94B2F1F0
:10E020000D94B2F10D94B2F10D94B2F10D94B2F1E0
:10E030000D94B2F10D94B2F10D94B2F10D94B2F1D0
:10E040000D94B2F10D94B2F10D94B2F10D94B2F1C0
:10E050000D94B2F10D94B2F10D94B2F10D94B2F1B0
:10E060000D94B2F10D94B2F10D94B2F10D94B2F1A0
:10E070000D94B2F10D94B2F10D94B2F10D94B2F190
:10E080000D94B2F10D94B2F10D94B2F10D94B2F180
:10E090000D94B2F10D94B2F10D94B2F10D94B2F170
:10E0A0000D94B2F10D94B2F10D94B2F10D94B2F160
:10E0B0000D94B2F10D94B2F10D94B2F10D94B2F150
:10E0C0000D94B2F10D94B2F10D94B2F10D94B2F140
:10E0D0000D94B2F10D94B2F10D94B2F10D94B2F130
:10E0E0000D94B2F141546D656761323536300041AF
:10E0F000726475696E6F206578706C6F72657220DE
:10E1000073746B3530305632206279204D4C530099
:10E11000426F6F746C6F616465723E004875683F52
:10E1200000436F6D70696C6564206F6E203D200048
:10E130004350552054797065202020203D20005FF9
:10E140005F4156525F415243485F5F3D2000415658
:10E1500052204C696243205665723D20004743437C
:10E160002056657273696F6E203D20004350552024
:10E1700049442020202020203D20004C6F7720663D
:10E18000757365202020203D20004869676820665F
:10E190007573652020203D200045787420667573D6
:10E1A00065202020203D20004C6F636B2066757336
:10E1B000652020203D20004D617220203720323024
:10E1C000313300312E362E3800342E332E350056A2
:10E1D00023202020414444522020206F7020636F70
:10E1E00064652020202020696E73747275637469E1
:10E1F0006F6E2061646472202020496E74657272B3
:10E20000757074006E6F20766563746F7200726A49
:10E210006D702020006A6D70200057686174207056
:10E220006F72743A00506F7274206E6F7420737541
:10E2300070706F72746564004D7573742062652030
:10E2400061206C6574746572002000577269747483
:10E25000696E672045450052656164696E672045B7
:10E26000450045452065727220636E743D00504F35
:10E27000525400303D5A65726F2061646472003FF1
:10E280003D43505520737461747300403D454550C3
:10E29000524F4D207465737400423D426C696E6B41
:10E2A000204C454400453D44756D70204545505215
:10E2B0004F4D00463D44756D7020464C415348001B
:10E2C000483D48656C70004C3D4C69737420492F83
:10E2D0004F20506F72747300513D51756974005234
:10E2E0003D44756D702052414D00563D73686F7707
:10E2F00020696E7465727275707420566563746FF0
:10E30000727300593D506F727420626C696E6B00BD
:10E310002A0011241FBECFEFD1E2DEBFCDBF01E046
:10E320000CBF12E0A0E0B2E0EEE1FDEF03E00BBFB6
:10E3300002C007900D92A030B107D9F712E0A0E01B
:10E34000B2E001C01D92AE30B107E1F70F9460F367
:10E350000D948DFE01E20EBF0FEF0DBF11241FBE05
:10E360000D9460F30D9400F020E030E040ED57E0B4
:10E3700005C0FA013197F1F72F5F3F4F2817390792
:10E38000C0F308959C01260F311DC901A0E0B0E043
:10E390002F5F3F4FABBFFC018791882361F08093D3
:10E3A000C6008091C00086FFFCCF8091C0008064D1
:10E3B0008093C000EACF08958DE08093C6008091DD
:10E3C000C00086FFFCCF8091C00080648093C000B5
:10E3D0008AE08093C6008091C00086FFFCCF8091C8
:10E3E000C00080648093C00008950F94C2F10F9420
:10E3F000DCF10895FC019081992359F09093C600B7
:10E400008091C00086FFFCCF8091C0008064809323
:10E41000C0003196992379F70895282F982F929567
:10E420009F70892F805D8A3308F0895F8093C600D2
:10E430008091C00086FFFCCF8091C00080648093F3
:10E44000C000822F8F70982F905D9A3308F0995FEB
:10E450009093C6008091C00086FFFCCF8091C000E1
:10E4600080648093C00008959C01FB01853691056E
:10E470001CF46330710594F0C90164E670E00F94F8
:10E480002EFE605D7F4F6093C6008091C00086FFC6
:10E49000FCCF8091C00080648093C0002B30310598
:10E4A00014F43297B4F0C90164E670E00F942EFEC4
:10E4B0006AE070E00F942EFE605D7F4F6093C600AF
:10E4C0008091C00086FFFCCF8091C0008064809363
:10E4D000C000C9016AE070E00F942EFEC0968093E0
:10E4E000C6008091C00086FFFCCF8091C000806490
:10E4F0008093C00008951F93182F8EE692EE60E07F
:10E500000F94C2F11093C6008091C00086FFFCCF2B
:10E510008091C00080648093C0000F94DCF11F9153
:10E5200008952F923F924F925F926F927F928F92B7
:10E530009F92AF92BF92CF92DF92EF92FF920F9392
:10E540001F93DF93CF93CDB7DEB762970FB6F894E2
:10E55000DEBF0FBECDBF382E622ECA01DB015C01CB
:10E560006D01772420E2222E2E010894411C511CBB
:10E570008BC081E0A81680E0B80681E0C80680E084
:10E58000D80628F0C601AA27BB270F940DF2BB2797
:10E59000AD2D9C2D8B2D0F940DF28A2D0F940DF225
:10E5A0002092C6008091C00086FFFCCF8091C00001
:10E5B00080648093C0009DE29093C6008091C0006B
:10E5C00086FFFCCF8091C00080648093C0002092C1
:10E5D000C6008091C00086FFFCCF8091C00080649F
:10E5E0008093C00019828601750188249924A1E0D6
:10E5F0003A1651F03A1620F0B2E03B1661F409C029
:10E600000BBFF701779007C0C7010F9477FE782EF4
:10E6100002C0F7017080872D0F940DF22092C60082
:10E620008091C00086FFFCCF8091C0008064809301
:10E63000C000872D8052F401EF70F0708F3520F408
:10E64000E40DF51D708204C0E40DF51D8EE280839B
:10E650000894E11CF11C011D111D0894811C911CE2
:10E6600090E18916910409F0C2CF80E190E0A0E02A
:10E67000B0E0A80EB91ECA1EDB1E198AC2010F9493
:10E68000FAF10F94DCF16A94662009F072CF629679
