:020000040000FA
:100000000C9486000C94B7000C94B7000C94B700C5
:100010000C94B7000C94B7000C94B7000C94B70084
:100020000C94B7000C94B7000C94B7000C94B70074
:100030000C94B7000C94B7000C94B7000C94B70064
:100040000C94B7000C94B7000C94B7000C94B70054
:100050000C94B7000C94B7000C94B7000C94181BC8
:100060000C94B7000C94881C0C945E1C0C94B70084
:100070000C94B7000C94B7000C94B7000C94B70024
:100080000C94B7000C94B7000C94B7000C94B70014
:100090000C94341C0C940A1C0C94B7000C94B700FC
:1000A0000C94B7000C94B7000C94B7000C94B700F4
:1000B0000C94B7000C94B7000C94B7000C94B700E4
:1000C0000C94B7000C94B7000C94B7000C94E01B90
:1000D0000C94B61B0C94B7000C948C1B0C94621BF4
:1000E0000C94B7000C942A020C9487010C945601CE
:1000F0000C94DD010C94CA240C9410010C94D51CB2
:100100000C9465010C947901D51CCA2411241FBEDE
:10011000CFEFD1E2DEBFCDBF00E00CBF2AE1A8E700
:10012000B5E001C01D92AF33B207E1F715E0A0E0E2
:10013000B2E0E8E0F3E500E00BBF02C007900D92EB
:10014000A837B107D9F710E0C5E8D0E000E006C055
:1001500021970109802FFE010E945427C438D1073E
:1001600080E00807A9F70E942A1E0C9472290C94BB
:100170000000FC01A089B18982E08C93A089B1893B
:100180001C92A485B5851C92A685B78580E18C93C9
:10019000108EA489B58986E08C93A289B3898C914D
:1001A00080618C93A289B3898C9188608C93A28999
:1001B000B3898C9180688C930288F389E02D8081CB
:1001C0008F7D808308952FB7F8946091EC13709120
:1001D000ED138091EE139091EF132FBF0895FC0162
:1001E000248135816217730720F480819181009703
:1001F00029F41092FC0F8CEF9FE00895860F971F53
:1002000008950895DB0114964D915C9115976D91B9
:100210007C91DC01ED91FC910280F381E02D199439
:10022000AF92BF92CF92DF92EF92FF920F931F9304
:10023000CF93DF936C017B018B01040F151FEB0142
:100240005E01AE18BF08C017D10759F06991D601F9
:10025000ED91FC910190F081E02DC6011995892B5B
:1002600079F7C501DF91CF911F910F91FF90EF902A
:10027000DF90CF90BF90AF900895FC01A089B18925
:100280008C91A689B78982FD0FC09C91818D8F5F6B
:100290008F73228D821749F0A18DAE0FBF2FB11D34
:1002A0005D969C93818F08958C910895FC01538DE8
:1002B000448D252F30E0842F90E0821B930B541740
:1002C00010F0CF96089501970895FC01918D828DCD
:1002D000981761F0A28DAE0FBF2FB11D5D968C9166
:1002E000928D9F5F9F73928F90E008958FEF9FEFA5
:1002F0000895FC01918D828D981731F0828DE80F61
:10030000F11D858D90E008958FEF9FEF0895FC011A
:10031000918D228D892F90E0805C9F4F821B9109E7
:100320008F739927089580EF93E10E94870121E060
:10033000892B09F420E0822F08958DE894E10E9432
:10034000870121E0892B09F420E0822F08958AE2B9
:1003500095E10E94870121E0892B09F420E0822F9A
:10036000089587EC95E10E94870121E0892B09F42B
:1003700020E0822F0895FC01A48DA80FB92FB11D94
:10038000A35ABF4F2C91848D90E001968F739927CB
:10039000848FA689B7892C93A089B1898C918370A9
:1003A00080648C93938D848D981306C00288F389A2
:1003B000E02D80818F7D80830895EF92FF920F93CF
:1003C0001F93CF93DF93EC0181E0888F9B8D8C8D01
:1003D00098131AC0E889F989808185FF15C09FB7F5
:1003E000F894EE89FF896083E889F98980818370B8
:1003F000806480839FBF81E090E0DF91CF911F9167
:100400000F91FF90EF900895F62E0B8D10E00F5F87
:100410001F4F0F731127E02E8C8D8E110CC00FB65D
:1004200007FCFACFE889F989808185FFF5CFCE01F5
:100430000E94BB01F1CFEB8DEC0FFD2FF11DE35AB4
:10044000FF4FF0829FB7F8940B8FEA89FB89808178
:100450008062CFCFCF93DF93EC01888D8823B9F0F2
:10046000AA89BB89E889F9898C9185FD03C08081BF
:1004700086FD0DC00FB607FCF7CF8C9185FFF2CF3C
:10048000808185FFEDCFCE010E94BB01E9CFDF91D6
:10049000CF91089580E090E0892B29F00E94B1016E
:1004A00081110E94000080E090E0892B29F00E94D9
:1004B000A70181110E94000080E090E0892B29F0C3
:1004C0000E949D0181110E94000080E090E0892B34
:1004D00029F00E94930181110C9400000895FC0101
:1004E00080E0623071F024813581232BB9F0A08146
:1004F000B1819C91992391F08F5F3996853099F75E
:10050000089524813581232B49F0A081B1819C91EC
:10051000992321F08F5F39968A3099F708950F93C8
:100520001F93CF93DF938C01D0E0C0E0C134D1059D
:1005300081F0BE01C8010E94EF00FC0180818F3371
:1005400031F48C2FDF91CF911F910F910895219657
:10055000EDCFD0E0C0E0C134D10551F0BE01C801FB
:100560000E94EF00FC0180818D3359F32196F3CF77
:10057000E9CFCF93DF93EC0170E060E00E94EF00E1
:10058000FC018081833431F170E060E0CE010E9493
:10059000EF00FC018081863449F461E070E0CE0117
:1005A0000E94EF00FC0180818334E9F070E060E09C
:1005B000CE010E94EF00FC0180818334C1F461E030
:1005C00070E0CE010E94EF00FC018081823579F459
:1005D00082E00AC061E070E0CE010E94EF00FC0101
:1005E0008081863489F681E0DF91CF91089570E0B3
:1005F00060E0CE010E94EF00FC018081823549F469
:1006000061E070E0CE010E94EF00FC018081833444
:10061000F9F270E060E0CE010E94EF00FC01808101
:10062000833459F461E070E0CE010E94EF00FC01D8
:1006300080818D3411F483E0D7CF70E060E0CE018B
:100640000E94EF00FC0180818D3449F461E070E08C
:10065000CE010E94EF00FC018081833461F370E0E1
:1006600060E0CE010E94EF00FC018081823559F4E8
:1006700061E070E0CE010E94EF00FC0180818634D1
:1006800011F484E0B1CF70E060E0CE010E94EF0091
:10069000FC018081863449F461E070E0CE010E9463
:1006A000EF00FC018081823561F370E060E0CE01F3
:1006B0000E94EF00FC018081823559F461E070E016
:1006C000CE010E94EF00FC0180818D3411F485E0A1
:1006D0008BCF70E060E0CE010E94EF00FC018081D2
:1006E0008D3449F461E070E0CE010E94EF00FC011E
:1006F0008081823561F370E060E0CE010E94EF00FE
:10070000FC018081863459F461E070E0CE010E94E2
:10071000EF00FC0180818D3411F486E065CF70E03C
:1007200060E0CE010E94EF00FC0180818D3449F42D
:1007300061E070E0CE010E94EF00FC018081863410
:1007400061F387E051CFCF93DF93EC0170E060E07D
:100750000E94EF00FC018081833439F170E060E099
:10076000CE010E94EF00FC018081863449F461E0F3
:1007700070E0CE010E94EF00FC0180818334F1F033
:1007800070E060E0CE010E94EF00FC0180818334C4
:10079000D1F461E070E0CE010E94EF00FC018081A5
:1007A000823589F488E795E00BC061E070E0CE0106
:1007B0000E94EF00FC018081863481F688E49DE090
:1007C000DF91CF91089570E060E0CE010E94EF00CC
:1007D000FC018081823549F461E070E0CE010E9425
:1007E000EF00FC0180818334E9F270E060E0CE012B
:1007F0000E94EF00FC018081833461F461E070E0CD
:10080000CE010E94EF00FC0180818D3419F48DEF40
:100810009FE0D6CF70E060E0CE010E94EF00FC01C7
:1008200080818D3449F461E070E0CE010E94EF00D8
:10083000FC018081833459F370E060E0CE010E94B6
:10084000EF00FC018081823561F461E070E0CE014F
:100850000E94EF00FC018081863419F48CE697E059
:10086000AFCF70E060E0CE010E94EF00FC0180811C
:10087000863449F461E070E0CE010E94EF00FC0193
:100880008081823559F370E060E0CE010E94EF0074
:10089000FC018081823561F461E070E0CE010E944C
:1008A000EF00FC0180818D3419F480E699E088CF57
:1008B00070E060E0CE010E94EF00FC0180818D3489
:1008C00049F461E070E0CE010E94EF00FC018081FC
:1008D000823559F370E060E0CE010E94EF00FC0128
:1008E0008081863461F461E070E0CE010E94EF0007
:1008F000FC0180818D3419F484E59BE061CF70E0C8
:1009000060E0CE010E94EF00FC0180818D3449F44B
:1009100061E070E0CE010E94EF00FC01808186342E
:1009200059F381EF91E14CCFCF93DF93EC018091AC
:1009300064168D3409F453C061E070E0CE010E946A
:10094000EF00FC0180818D3419F483E097E144C00D
:1009500070E060E0CE010E94EF00FC0180818D34E8
:10096000A1F370E060E0CE010E94EF00FC01808105
:10097000833439F170E060E0CE010E94EF00FC01A9
:100980008081823549F461E070E0CE010E94EF0081
:10099000FC0180818334F1F070E060E0CE010E94C0
:1009A000EF00FC018081863449F461E070E0CE0103
:1009B0000E94EF00FC018081823561F081ED97E1BA
:1009C0000BC061E070E0CE010E94EF00FC0180816D
:1009D000823581F68AE697E1DF91CF91089570E044
:1009E00060E0CE010E94EF00FC018081833409F4B5
:1009F0009AC070E060E0CE010E94EF00FC018081AF
:100A0000863451F461E070E0CE010E94EF00FC01F9
:100A10008081823509F491C070E060E0CE010E94CF
:100A2000EF00FC0180818D3451F461E070E0CE0173
:100A30000E94EF00FC018081823509F47EC070E0E5
:100A400060E0CE010E94EF00FC018081863451F409
:100A500061E070E0CE010E94EF00FC0180818334F0
:100A600009F4B8CF70E060E0CE010E94EF00FC0115
:100A70008081823551F461E070E0CE010E94EF0088
:100A8000FC018081833409F4A5CF70E060E0CE01E1
:100A90000E94EF00FC0180818D3451F461E070E030
:100AA000CE010E94EF00FC018081833409F492CFD3
:100AB00070E060E0CE010E94EF00FC018081833491
:100AC00051F461E070E0CE010E94EF00FC018081F2
:100AD000863409F473CF70E060E0CE010E94EF002D
:100AE000FC018081823551F461E070E0CE010E940A
:100AF000EF00FC018081863409F460CF70E060E093
:100B0000CE010E94EF00FC0180818D3409F01DCFE1
:100B100061E070E0CE010E94EF00FC01808186342C
:100B200009F013CF4BCF61E070E0CE010E94EF00DF
:100B3000FC018081823509F05CCF88E398E14CCFDD
:100B4000613009F5843F21E0920708F060C025E09C
:100B5000289FF001299FF00D1124E85BF24F90814E
:100B60008EE9890F823008F4EDC0993609F4EAC0A5
:100B7000963609F4E7C081E0933509F4E2C09C366B
:100B800009F045C0DDC06230E1F4843FE1E09E073A
:100B9000F0F525E0289FF001299FF00D1124E85879
:100BA000FA4F90818EE9890F823008F4CBC09936D4
:100BB00009F4C8C0963609F4C5C081E09335F9F64A
:100BC0000895633031F5843FF1E09F0700F545E07B
:100BD000489F9001499F300D1124F901E350F04FD7
:100BE0008081982F9B7F923609F4ACC0893609F436
:100BF000A9C0833509F4A6C08C3609F4A3C02858CF
:100C00003A4F81E0F9019081933609F499C080E070
:100C100008956430E9F4843FF1E09F07C0F725E0D0
:100C2000289FF001299FF00D1124E459F84F90817D
:100C30008EE9890F823008F485C0993609F482C0A4
:100C4000963609F47FC081E0933509F098CF089576
:100C50006530E1F4843F21E09207C8F6689FF00117
:100C6000699FF00D1124E05AF64F90818EE9890FAB
:100C7000823008F467C0993609F464C0963609F4E6
:100C800061C081E0933509F07ACF08956630F1F4C0
:100C9000843FE1E09E0708F0BACF25E0289FF001ED
:100CA000299FF00D1124EC5AF44F90818EE9890FA1
:100CB000823008F447C0993609F444C0963609F4E6
:100CC00041C081E0933509F05ACF08956730D9F4D7
:100CD000843FF1E09F0708F09ACF25E0289FF001BC
:100CE000299FF00D1124E85FFD4F90818EE9890F57
:100CF000823040F1993631F1963621F181E0933519
:100D000009F03DCF0895683009F081CF843F21E09C
:100D1000920708F07CCF25E0289FF001299FF00D75
:100D20001124EF50FE4E90818EE9890F823050F0F1
:100D3000993641F0963631F081E0933509F01FCFB6
:100D40000895089581E00895FC0180E090E02191EC
:100D5000283709F4892F9F5F9134C9F708950F93BD
:100D60001F93CF93DF93EC018B010E94A406FE0139
:100D700090E020E0682F6250770BAB01BF016C1B45
:100D80007D0B6417750724F431912327930FF6CF59
:100D9000F8018681821303C081E02781291380E056
:100DA000DF91CF911F910F910895DC01ED91FC919E
:100DB0000190F081E02D1994FC01DB011182108279
:100DC00013821282158214828D919C9111979183C6
:100DD000808312968D919C911397938382831496AE
:100DE0008D919C9115979583848311961C921E92E8
:100DF00013961C921E92129715961C921E9214978F
:100E000016968C911697868317968C9117978783E1
:100E100018968C9180870895FB0101900020E9F7D6
:100E20003197AF01461B570BDC01ED91FC9102801D
:100E3000F381E02D19948F929F92AF92BF92EF921F
:100E4000FF920F931F93CF93DF93CDB7DEB7A19798
:100E50000FB6F894DEBF0FBECDBF7C01FA01CB0107
:100E600019A2223008F42AE08E010F5D1F4F822E56
:100E7000912CB12CA12CBF01A50194010E94322715
:100E8000F901CA016A300CF5605DD8016E938D01DD
:100E9000232B242B252B79F790E080E0109721F06D
:100EA000BD01C7010E940C07A1960FB6F894DEBFE2
:100EB0000FBECDBFDF91CF911F910F91FF90EF90AB
:100EC000BF90AF909F908F900895695CDECFCF93D5
:100ED000DF93482F50E070E060E02AE087EC95E176
:100EE0000E941B07EC0167E274E087EC95E10E9429
:100EF0000C078C0F9D1FDF91CF910895CF92DF9249
:100F0000EF92FF920F931F93CF93DF93EC016A014F
:100F10007B016DE20E94DD018C0144275527BA0157
:100F20004C195D096E097F092AE0CE010E941B075A
:100F3000800F911FDF91CF911F910F91FF90EF9044
:100F4000DF90CF9008950F931F93CF93DF93EC0121
:100F5000AB01770F660B770B77FF0FC00E947E0700
:100F60008C0167E274E0CE010E940C07800F911F94
:100F7000DF91CF911F910F9108952AE00E941B07E6
:100F8000EFCF0F931F93CF93DF93EC010E940C07D9
:100F90008C0167E274E0CE010E940C07800F911F64
:100FA000DF91CF911F910F910895FC01E25AFF4FFD
:100FB0002081233038F06AE274E080EF93E10E94F0
:100FC000C107FFCF2F5F2083FC01E65AFF4F10823D
:100FD000855A9F4FFC01108208950F931F93CF9362
:100FE000DF93EC010E9402018C0167E274E0CE0104
:100FF0000E940C07800F911FDF91CF911F910F91DD
:101000000895FC0180819181009711F00C940225D4
:1010100060E070E0CB0108950F931F93CF93DF93AF
:101020008C01EB01FC01808191810097E1F06881E6
:10103000798161157105A9F0428153812C813D812F
:101040004217530770F00E946B298C819D81F80133
:10105000958384831D821C82DF91CF911F910F9114
:1010600008950E94F82788819981F80191838083EF
:101070008A819B81938382838C819D8195838483E4
:10108000198218821B821A82E5CFCF93DF93EC017D
:1010900088819981009711F00E94F827198218829F
:1010A0001D821C821B821A82DF91CF910895FC0160
:1010B00080819181009711F00C94F82708950F9387
:1010C0001F93CF93DF938C01EC01C65ADF4F0C17AF
:1010D0001D0729F02997CE010E945708F8CFDF910C
:1010E000CF911F910F9108950F931F93CF93DF938B
:1010F000EC0188819981009759F02A813B8126175C
:10110000370730F081E0DF91CF911F910F91089563
:101110008B016F5F7F4F0E948128009759F0998360
:1011200088831B830A832C813D81232B59F7FC0183
:101130001082E8CF80E0E7CFEF92FF920F931F93EA
:10114000CF93DF936115710541F480E0DF91CF917A
:101150001F910F91FF90EF90089541155105B1F047
:101160007B01EC010C811D81040F151FB8010E9449
:101170007408882351F3288139818C819D81B701BE
:10118000820F931F0E946B291D830C8381E0DECFA9
:10119000CF93DF93EC01FB0101900020E9F7319739
:1011A000AF01461B570B0E949C08811103C0CE0162
:1011B0000E944508CE01DF91CF910895CF93DF9330
:1011C000EC01FB0144815581608171810E949C0882
:1011D000811103C0CE010E944508CE01DF91CF915D
:1011E0000895EF92FF920F931F93CF93DF93EC013B
:1011F0007B018A01BA010E94740881110BC0CE01E3
:101200000E944508CE01DF91CF911F910F91FF9071
:10121000EF9008951D830C83B701888199810E9406
:101220006B29F0CFFB0101900020E9F73197AF0166
:10123000461B570B0C94F108CF93DF931F921F921C
:10124000CDB7DEB7FC0111821082138212821582A3
:10125000148269831A82BE016F5F7F4F0E94120958
:101260000F900F90DF91CF910895CF93DF93EC0112
:10127000FB018617970749F060817181611571053F
:1012800041F0448155810E94F108CE01DF91CF9158
:1012900008950E944508F9CFFC0111821082138243
:1012A0001282158214820C943509CF92DF92EF924C
:1012B000FF920F931F93CF93DF9300D000D0CDB751
:1012C000DEB78C01D62EDC0118968C9118979FEF13
:1012D000980F923008F05FC014968C9163E0F62E60
:1012E000F80E6AE374E087EC95E10E94C1078F2D48
:1012F0000E94670769E474E08AE295E10E940C07A6
:101300006F2D8AE295E10E94DD01B8018AE295E144
:101310000E940201F80166818AE295E10E94DD01E6
:10132000D80117966C918AE295E10E94DD0168E789
:1013300070E08AE295E10E94D506F801808581304F
:1013400031F5809366160E94E300609369167093EE
:101350006A1680936B1690936C16B2E0DB1609F454
:1013600031C2E3E0DE1609F437C281E080936616ED
:1013700026960FB6F894DEBF0FBECDBFDF91CF919A
:101380001F910F91FF90EF90DF90CF90089581E033
:1013900080936716D8CF9DEF980F943008F066C001
:1013A00014968C9153E0F52EF80E6AE374E087EC06
:1013B00095E10E94C1078F2D0E946707E091E51318
:1013C000F091E613EB59FF4F69E474E0808191815D
:1013D0000E940C07E091E513F091E613EB59FF4FE3
:1013E00080819181DC01ED91FC910190F081E02DF3
:1013F0006F2D1995E091E513F091E613EB59FF4F2E
:10140000B801808191810E940201E091E513F09181
:10141000E613EB59FF4F80819181DC01ED91FC9146
:101420000190F081E02DD80116966C911995E0910C
:10143000E513F091E613EB59FF4F80819181DC01B8
:10144000ED91FC910190F081E02DD80117966C91FF
:101450001995E091E513F091E613EB59FF4F68E71A
:1014600070E0808191810E94D5066DCF8F30D1F0E0
:10147000843109F025C1B801CE0101960E944C09C2
:10148000CE0101960E948F02682F70E0C8010E9471
:10149000EF00FC01F080CE0101960E945708FDE3A9
:1014A000FF120EC161E070E0C8010E94EF00DC0194
:1014B0008C91823509F054C06AE374E087EC95E1C1
:1014C0000E94C1078CEB9FE00E94A406682F70E089
:1014D0006F5F7F4F87EC95E10E94A30769E474E09A
:1014E0008AE295E10E940C078CEB9FE00E94A40623
:1014F000682F70E06F5F7F4F8AE295E10E94D5060A
:10150000F12C8CEB9FE00E94A4068F1570F0EF2D5C
:10151000F0E0E454F04F6081062E000C770B8AE275
:1015200095E10E94D506F394ECCFF12C8CEB9FE073
:101530000E94A4068F1538F0EF2DF0E0E454F04F30
:101540001082F394F3CF0E94E3000E946D25609314
:101550009718709398188093991890939A18FDCEC5
:1015600061E070E0C8010E94EF00FC0180816AE345
:1015700074E0833409F052C087EC95E10E94C10702
:101580008CE79FE00E94A406682F70E06F5F7F4F9A
:1015900087EC95E10E94A30769E474E08DE894E18B
:1015A0000E940C078CE79FE00E94A406682F70E061
:1015B0006F5F7F4F8DE894E10E94D506F12C8CE798
:1015C0009FE00E94A4068F1570F0EF2DF0E0E45824
:1015D000F04F6081062E000C770B8DE894E10E949D
:1015E000D506F394ECCFF12C8CE79FE00E94A40683
:1015F0008F1538F0EF2DF0E0E458F04F1082F3949F
:10160000F3CF0E94E3000E946D256093C917709389
:10161000CA178093CB179093CC179FCE87EC95E198
:101620000E94C1078CE39FE00E94A406682F70E02F
:101630006F5F7F4F87EC95E10E94A30769E474E038
:1016400080EF93E10E940C078CE39FE00E94A406C8
:10165000682F70E06F5F7F4F80EF93E10E94D506A7
:10166000F12C8CE39FE00E94A4068F1570F0EF2D03
:10167000F0E0E45CF04F6081062E000C770B80EF09
:1016800093E10E94D506F394ECCFF12C8CE39FE01C
:101690000E94A4068F1538F0EF2DF0E0E45CF04FC7
:1016A0001082F394F3CF0E94E3000E946D256093B3
:1016B00030187093311880933218909333184DCEB0
:1016C00061E070E0C8010E94EF00DC018C9182357E
:1016D00009F04DC00E94E3000E946D2560939718A9
:1016E000709398188093991890939A184AE2E42E70
:1016F00045E1F42ED80114968C9193E0C92EC80EC2
:101700006AE374E087EC95E10E94C1078C2D0E948A
:10171000670769E474E0C7010E940C07D701ED91E7
:10172000FC910190F081E02D6C2DC7011995B80155
:10173000C7010E940201D701ED91FC910190F08157
:10174000E02DD80116966C91C7011995D701ED913E
:10175000FC910190F081E02DD80117966C91C701A2
:10176000199568E770E0C7010E94D506F6CD61E0E3
:1017700070E0C8010E94EF00FC018081833489F48D
:101780000E94E3000E946D256093C9177093CA17E9
:101790008093CB179093CC173DE8E32E34E1F32EE2
:1017A000A9CF0E94E3000E946D25609330187093CA
:1017B0003118809332189093331820EFE22E23E1F2
:1017C000F22E98CFD80118968C91823009F0D0CDA6
:1017D00081E080936716CCCDE090E513F090E6139E
:1017E000F80180858431C9F4B801CE0101960E94C8
:1017F0004C09CE0101960E948F02682F70E0C8014B
:101800000E94EF00DC011C91CE0101960E94570856
:10181000F701E55AFF4F1D3319F0F701E65AFF4F64
:1018200081E08083A5CD0F931F93CF93DF9300D0EA
:1018300000D0CDB7DEB7BC01CE0101960E944C09A5
:10184000CE0101960E9494048C01CE0101960E9463
:1018500057080E94E300015A1F4F0E946D25F801AE
:10186000608371838283938326960FB6F894DEBFDC
:101870000FBECDBFDF91CF911F910F9108950F93B0
:101880001F93CF93DF93EC018B010E944C09F80169
:1018900086818E8387818F8380858887DF91CF9132
:1018A0001F910F910895EF92FF920F931F93CF9383
:1018B000DF93EC018B01F12CE12CB8016E0D7F1D43
:1018C000CE018E0D9F1D0E943F0C89E0E80EF11C99
:1018D0008AE5E816F10489F7F801E65AFF4F80819E
:1018E000FE01E65AFF4F8083F801E55AFF4F8081E1
:1018F000FE01E55AFF4F8083F801E45AFF4F8081D3
:10190000FE01E45AFF4F8083F801E35AFF4F8081C4
:10191000FE01E35AFF4F8083F801E25AFF4F8081B6
:10192000FE01E25AFF4F8083F801E15AFF4F8081A8
:101930009181A281B381FE01E15AFF4F808391839F
:10194000A283B383F801ED59FF4F80819181FE019D
:10195000ED59FF4F91838083F801EB59FF4F808150
:101960009181CB59DF4F99838883DF91CF911F916C
:101970000F91FF90EF9008950F931F93CF93DF93F4
:10198000EC018B010E943509F80186818E838781E5
:101990008F8380858887CE01DF91CF911F910F9132
:1019A00008950F931F93CF93DF938C01EB0170E0A9
:1019B00060E00E94EF00FC018081853411F08735E2
:1019C000A9F461E0CE010E946F0295E08917A0F4AE
:1019D000B8019E0149E0849F200D311D1124C901E9
:1019E000DF91CF911F910F910C94BC0C62E0CE015E
:1019F0000E946F029AE0EACFDF91CF911F910F9181
:101A00000895BF92CF92DF92EF92FF920F931F93B0
:101A1000CF93DF9300D000D0CDB7DEB77C01D62EB8
:101A20008FEF860F863098F461E0C7010E946F0245
:101A3000082FC70110E0101709F45DC00996FC01DA
:101A4000319720812D1509F456C01F5FF4CF62E055
:101A5000C7010E946F02082F24E1D21641F185E1EF
:101A6000D812E7CF670110E0101709F444C0F6015F
:101A700080858431B9F4B601CE0101960E944C09EB
:101A8000CE0101960E948F02682F70E0C6010E946D
:101A9000EF00FC01B080CE0101960E945708FDE3E3
:101AA000BF1649F11F5F29E0C20ED11CDDCF6701CF
:101AB00010E0101701F1F60180858431B9F4B60108
:101AC000CE0101960E944C09CE0101960E948F0220
:101AD000682F70E0C6010E94EF00FC01B080CE01CB
:101AE00001960E945708FFE3BF1629F01F5F29E007
:101AF000C20ED11CDECF89E0189FE00CF11C11242E
:101B000090E080E06C01E9E0CE0ED11C101750F49B
:101B1000B6016E0D7F1D8E0D9F1D0E94BC0C1F5FB8
:101B2000C601F0CF26960FB6F894DEBF0FBECDBF2C
:101B3000DF91CF911F910F91FF90EF90DF90CF90A9
:101B4000BF9008950F931F93CF93DF9300D000D0E1
:101B5000CDB7DEB7209164162D34E9F480915E177D
:101B6000811110925E171092611765E183E097E191
:101B70000E94010D6BE474E087EC95E10E94C107BF
:101B800026960FB6F894DEBF0FBECDBFDF91CF9182
:101B90001F910F910895BC01CE0101960E944C093E
:101BA000CE0101960E9494048C01CE0101960E9400
:101BB0005708F801E55AFF4F808181111082F80122
:101BC000E25AFF4F108265E1C8010E94010D6BE4EB
:101BD00074E080EF93E1D2CFFC0111821082138276
:101BE000128215821482FB0101900020E9F73197DF
:101BF000AF01461B570B0C94F108AF92BF92CF92E6
:101C0000DF92EF92FF920F931F93CF93DF9300D059
:101C100000D000D0CDB7DEB76C018B0169E274E073
:101C2000CE0101960E94EC0D62E0C8010E946F0295
:101C3000F82E882309F4DAC05801F80190E080E01A
:101C40008F1578F52085AC014F5F5F4F39962130B5
:101C500031F529E0289FB001299F700D1124600FF4
:101C6000711FCE0101960E94BC0CBC01C6010E94EE
:101C70003F0CCE0101960E945708C60129960FB667
:101C8000F894DEBF0FBECDBFDF91CF911F910F91B2
:101C9000FF90EF90DF90CF90BF90AF900895CA0172
:101CA000CFCFF80190E080E02085223091F20196BC
:101CB00039968F15C8F3F80190E080E02085233035
:101CC00041F2019639968F15C8F3F80190E080E053
:101CD0002085243009F4BDCF019639968F15C0F3C5
:101CE000F80190E080E02085253009F4B2CF01961C
:101CF00039968F15C0F3F80190E080E020852630FA
:101D000009F4A7CF019639968F15C0F3F80190E03A
:101D100080E020852A3009F49CCF019639968F15F2
:101D2000C0F3F80190E080E020852B3009F491CFDA
:101D3000019639968F15C0F3F80190E080E0208578
:101D40002F3009F486CF019639968F15C0F3E12C18
:101D5000F80180858431E9F465E070E0C8010E94F3
:101D6000EF00FC0180818F3311F4B8017ACF64E079
:101D700070E0C8010E94EF00FC0180818F33A9F35D
:101D800063E070E0C8010E94EF00FC0180818F33A6
:101D900061F3E394075F1F4FEF14D0F210E0F501F9
:101DA00080858431E9F465E070E0C5010E94EF00B0
:101DB000FC0180818D3311F4B50153CF64E070E0F4
:101DC000C5010E94EF00FC0180818D33A9F363E01F
:101DD00070E0C5010E94EF00FC0180818D3361F34A
:101DE0001F5FF9E0AF0EB11C1F15C8F28EE18987A5
:101DF000BE016F5F7F4FC6010E94DC063ACFAF92F3
:101E0000BF92CF92DF92EF92FF920F931F93CF93E7
:101E1000DF936C015B017A0189012417350720F4F7
:101E20008F2D7901042F182F69E274E0C6010E94FA
:101E3000EC0DD5011496CD91DC91EC16FD06E0F485
:101E40000C171D0708F4E801D501ED91FC911197DD
:101E5000EC0FFD1F108110826D917C916E0D7F1D26
:101E6000C60161157105A1F00E941209F50180817A
:101E70009181C80FD91F1883C601DF91CF911F919F
:101E80000F91FF90EF90DF90CF90BF90AF900895AB
:101E90000E944508EBCFCF92DF92EF92FF920F9313
:101EA0001F93CF93DF9300D000D0CDB7DEB78C0166
:101EB00025E030E042E050E0BC01CE0101960E94F6
:101EC000FF0ECE0101960E9401086B01CE01019622
:101ED0000E945708B801CE0101960E944C09CE011C
:101EE00001960E9494048C01CE0101960E9457082D
:101EF000F801ED59FF4F81E0208131812C153D051E
:101F000009F080E026960FB6F894DEBF0FBECDBF75
:101F1000DF91CF911F910F91FF90EF90DF90CF90C5
:101F200008954F925F926F927F92AF92BF92CF923D
:101F3000DF92EF92FF920F931F93CF93DF93CDB772
:101F4000DEB7A1970FB6F894DEBF0FBECDBFFC0180
:101F5000248135812134310508F0D8C0B42E6B01BD
:101F60008C017E01F3E1EF0EF11C89E0F701119283
:101F70008A95E9F769E274E0C7010E94EC0DB801A7
:101F8000C7010E943509BB8EB701CE0101960E94A0
:101F90003F0C1F82188610E000E08D819E8108179B
:101FA0001907B8F4B801CE0101960E94EF00FC01B8
:101FB0009F81808189278F83B801CE0101960E947D
:101FC000EF00FC0198858081890F88870F5F1F4F84
:101FD000E4CF89858F30E9F0843109F06BC0BE0110
:101FE0006F5F7F4FCE010A960E944C09CE010A9680
:101FF0000E948F02682F70E0CE0101960E94EF00D0
:10200000FC011081CE010A960E9457081D3309F089
:1020100051C0BE016F5F7F4FCE010A960E944C09EE
:10202000CE010A960E94A3038C01CE010A960E945B
:102030005708BE016F5F7F4FCE014C960E944C093E
:10204000CE014C960E948F02282F30E042E050E0F3
:10205000BE016F5F7F4FCE010A960E94FF0ECE0138
:102060000A960E9401082B015B01CE010A960E948C
:102070005708CE014C960E945708F4EF4F16F1E036
:102080005F0630F084EFA81A81E0B80A01EF11E191
:1020900085E08A9DF0018B9DF00D1124E00FF11F6A
:1020A000808184360CF047C082360CF066C08335E0
:1020B00009F469C0BE016F5F7F4FCE010A960E948E
:1020C000DC06BE01665F7F4FC7010E940C0888894D
:1020D000898F89898A8F8A898B8FCE010A960E947F
:1020E0005708CE0101960E945708B701CE0101960C
:1020F0000E943F0CB601CE0101960E94D10CCE0188
:1021000001960E945708C7010E945708A1960FB672
:10211000F894DEBF0FBECDBFDF91CF911F910F911D
:10212000FF90EF90DF90CF90BF90AF907F906F9037
:102130005F904F900895893699F08C3619F0863665
:1021400009F0B8CFDF01119635962D919F81922726
:102150009F838885820F8887AE17BF07B1F7AACF04
:1021600081819F8198279F832885820F888722817C
:1021700092279F83820F88879DCF21819F819227FD
:102180009F838885F7CF61817281CE010A960E9474
:102190004C09BE01665F7F4F80EF93E10E94ED071F
:1021A00010E0A12EB12C8E859F85A816B906B0F43B
:1021B000B501CE010A960E94EF00FC019F8180814B
:1021C00089278F83B501CE010A960E94EF00FC019A
:1021D00098858081890F88871F5FE3CFCE010A969B
:1021E0000E94570867CFEF92FF920F931F93CF93F0
:1021F000DF93CDB7DEB768970FB6F894DEBF0FBE9A
:10220000CDBF8C017B0170E060E00E94EF00FC011B
:102210006081CE010D960E941C0961E070E0C8014A
:102220000E94EF00FC016081CE0101960E941C0912
:10223000BE016F5F7F4FCE0107960E944C09BE0121
:10224000635F7F4FCE0107960E94DE086AEE74E05E
:102250000E94C808BC01CE0143960E944C09CE01E1
:1022600007960E945708CE0101960E945708CE019A
:102270000D960E945708BE016D5E7F4FCE010196FC
:102280000E944C094AE0B701CE0101960E94910FCD
:10229000CE0101960E945708CE0143960E9457082E
:1022A00068960FB6F894DEBF0FBECDBFDF91CF9119
:1022B0001F910F91FF90EF900895EF92FF920F936F
:1022C0001F93CF93DF9300D000D0CDB7DEB78C0142
:1022D000809164168D3401F522E030E050E040E05A
:1022E000B801CE0101960E94FF0E63E077E1CE01B6
:1022F00001960E94F310CE0101960E94570826967F
:102300000FB6F894DEBF0FBECDBFDF91CF911F9106
:102310000F91FF90EF900895B801CE0101960E94B1
:102320004C09CE0101960E9494047C01CE010196D5
:102330000E94570822E030E050E040E0B801CE01B2
:1023400001960E94FF0EB701D2CFEF92FF920F933A
:102350001F93CF93DF93CDB7DEB768970FB6F8948E
:10236000DEBF0FBECDBF8C017B0170E060E00E943C
:10237000EF00FC016081CE010D960E941C0961E016
:1023800070E0C8010E94EF00FC016081CE0101965F
:102390000E941C09BE016F5F7F4FCE0107960E940D
:1023A0004C09BE01635F7F4FCE0107960E94DE0895
:1023B00062E974E00E94C808BC01CE0143960E9405
:1023C0004C09CE0107960E945708CE0101960E9443
:1023D0005708CE010D960E945708BE016D5E7F4FD3
:1023E000CE0101960E944C094BE0B701CE01019647
:1023F0000E94910FCE0101960E945708CE0143968C
:102400000E94570868960FB6F894DEBF0FBECDBF86
:10241000DF91CF911F910F91FF90EF9008954F9210
:102420005F926F927F929F92AF92BF92CF92DF9214
:10243000EF92FF920F931F93CF93DF93CDB7DEB749
:1024400062970FB6F894DEBF0FBECDBF6C015A0184
:1024500079010E94A005882309F4F2C144EFC41653
:1024600041E0D40620F054EFC51A51E0D50AC80166
:102470000E94A406982E25E02C9DC0012D9D900D54
:102480001124E80EF91EF701908194360CF05BC020
:1024900092360CF0B6C0933509F473C1B501CE0184
:1024A00001960E944C09CE0101960E948F02682F6E
:1024B00070E0C5010E94EF00FC011081CE01019681
:1024C0000E9457081F3349F1B501CE0107960E94BB
:1024D0004C09809164168D3409F095C16AE874E066
:1024E00087EC95E10E94C10722E030E050E040E037
:1024F000BE01695F7F4FCE0101960E94FF0E63E02F
:1025000077E1CE0101960E94A511CE0101960E94AD
:102510005708CE0107960E94570862960FB6F894A6
:10252000DEBF0FBECDBFDF91CF911F910F91FF9006
:10253000EF90DF90CF90BF90AF909F907F906F9083
:102540005F904F900895993609F470C09C3609F455
:10255000F7C0963609F0A2CF492D4650550BFA0127
:10256000E00FF11FD7011196C701059621912D9318
:102570008A179B07D9F769E674E080EF93E10E9420
:10258000C107F701C180D280E380F480A7019601E2
:10259000C701B6010E942D276EE774E0811126C0A5
:1025A00026013701E89477F82FEF3FEF4FE75FE719
:1025B000C301B2010E942D2781110CC02FEF3FEF04
:1025C0004FE75FE7C301B2010E94682562E874E04B
:1025D000181664F02FEF3FEF4FE75FE4C701B60135
:1025E0000E9428271816DCF566E874E080EF93E176
:1025F0000E940C0767E274E080EF93E10E940C07F1
:102600004DCFF801E90DF11D36978081F7018183E7
:1026100069E674E080EF93E10E94C107F7016181F0
:1026200070E080EF93E10E94A30738CF492D465018
:10263000550BFA01E00FF11FD7011196C70105965E
:1026400021912D93A817B907D9F769E674E080EFB7
:1026500093E10E94C107F70161817281E2CF2FEF00
:102660003FEF4FE75FECC701B6010E94682587FD89
:10267000BBCF20E030E0A901C701B6010E94682568
:1026800087FF09C06DE280EF93E10E94DD01F7FA58
:10269000F094F7F8F0942AE037ED43EA5BE3C701E2
:1026A000B6010E948D262B013C010E94F9266B0188
:1026B0007C010E946D259B01AC01C301B2010E9407
:1026C0008C262B013C012AE0B701A60180EF93E1A3
:1026D0000E941B076EE280EF93E10E94DD0120E083
:1026E00030E040E251E4C301B2010E94CE252B014B
:1026F0003C010E94F9266B01F12CE12C2AE0B70184
:10270000A60180EF93E10E941B07C701B6010E945A
:102710006D259B01AC01C301B2010E948C2620E013
:1027200030E040E251E40E94CE250E94F926AB0140
:1027300070E060E02AE080EF93E10E941B075ACF2F
:10274000492D4650550BFA01E00FF11FD7011196A4
:10275000C701059621912D938A179B07D9F769E642
:1027600074E080EF93E10E94C107F701418152813B
:102770006381748177FFDECF80EF93E10E947E0753
:1027800039CFB801CE0107960E94EC0DB501CE01FC
:1027900001960E944C09CE0101960E948F026E01A3
:1027A000FDE0CF0ED11C492D4250550B9A01482F08
:1027B00050E04F5F5F4FBE01695F7F4FC6010E94CF
:1027C000FF0EF701818192818C159D0519F0B601EC
:1027D0000E940C08C6010E945708CE0101960E9473
:1027E0005708CE0107960E94570869E674E080EF0B
:1027F00093E10E94C107F7016181728180EF93E14B
:102800000E94ED074BCEBE01695F7F4FCE0101965E
:102810000E944C09CE0101960E9494048C01CE01C5
:1028200001960E94570822E030E050E040E0BE01EF
:10283000695F7F4FCE0101960E94FF0EB80161CE05
:10284000B501CE0101960E944C09CE0101960E946D
:102850005D11CE0101965FCE8F929F92AF92BF9293
:10286000CF92DF92EF92FF920F931F93CF93DF935C
:1028700000D000D0CDB7DEB77C016B014A018901E1
:10288000CE0101960E944C09CE0101960E94A3033D
:102890005C01CE0101960E945708B601CE01019657
:1028A0000E944C09CE0101960E94B902D82ECE0199
:1028B00001960E94570884EFE81681E0F80650F070
:1028C00084EFE81A81E0F80A88E0D82E91EFA92E6B
:1028D00091E1B92EB401CE0101960E944C099501F7
:1028E000AE014F5F5F4F6D2DC7010E940F12CE01E9
:1028F00001960E94570826960FB6F894DEBF0FBEC9
:10290000CDBFDF91CF911F910F91FF90EF90DF909E
:10291000CF90BF90AF909F908F9008953F924F922D
:102920005F926F927F928F929F92AF92BF92CF925F
:10293000DF92EF92FF920F931F93CF93DF9300D01C
:1029400000D0CDB7DEB77C018B0180916416B70152
:102950008D3409F09DC0CE0101960E944C09CE0134
:1029600001960E944B0FD82ECE0101960E94570867
:10297000DD2009F479C0B701CE0101960E944C090F
:10298000CE0101960E94A3034C01CE0101960E9444
:102990005708B701CE0101960E944C09CE0101965D
:1029A0000E94B902B82ECE0101960E94570825E078
:1029B00030E042E050E0B701CE0101960E94FF0EE8
:1029C000CE0101960E9401082B016B01CE010196F8
:1029D0000E94570884EF481681E0580650F084EFB3
:1029E000C81A81E0D80A28E0B22E31EF832E31E1F7
:1029F000932EB701CE0101960E944C099401AE01BD
:102A00004F5F5F4F6B2DC6010E940F12CE010196E2
:102A10000E94570880915D17811110925D171092E6
:102A2000611764E183E097E10E94010D65E974E0BC
:102A300080EF93E10E94C10726960FB6F894DEBF9F
:102A40000FBECDBFDF91CF911F910F91FF90EF90FF
:102A5000DF90CF90BF90AF909F908F907F906F90BE
:102A60005F904F903F90089522E030E050E040E0CA
:102A7000B701CE0101960E94FF0E63E077E1CE011F
:102A800001960E94F310CE0101960E945708D4CF00
:102A9000CE0101960E944C09CE0101960E94940439
:102AA0006C01CE0101960E945708B701CE01019634
:102AB0000E944C09CE0101960E944B0FB82ECE0108
:102AC00001960E945708BB2009F45CC0B701CE01F3
:102AD00001960E944C09CE0101960E94A3034C016D
:102AE000CE0101960E945708B701CE0101960E94BF
:102AF0004C09CE0101960E94B902382ECE010196F2
:102B00000E94570825E030E042E050E0B701CE01D6
:102B100001960E94FF0ECE0101960E9401082B0132
:102B20005B01CE0101960E94570884EF481681E0B0
:102B3000580650F084EFA81A81E0B80A88E0382ED1
:102B400091EF892E91E1992EB701CE0101960E9455
:102B50004C099401AE014F5F5F4F632DC5010E9488
:102B60000F12CE0101960E945708F601E65AFF4F58
:102B7000808181111082F601E25AFF4F108264E1D8
:102B8000C60152CF22E030E050E040E0B701CE0174
:102B900001960E94FF0EB60172CFEF92FF920F9343
:102BA0001F93CF93DF93CDB7DEB76E970FB6F89430
:102BB000DEBF0FBECDBF8C017B0169E274E0CE01A8
:102BC00049960E94EC0DF8012481358142E050E0E5
:102BD000B801CE0143960E94FF0E70E060E0C8018C
:102BE0000E94EF00FC016081CE010D960E941C093D
:102BF00061E070E0C8010E94EF00FC016081CE013D
:102C000001960E941C09BE016F5F7F4FCE0107969F
:102C10000E944C09BE01635F7F4FCE0107960E9460
:102C2000DE08BE016D5E7F4F0E94DE08BC01CE0152
:102C300049960E943509CE0107960E945708CE0199
:102C400001960E945708CE010D960E945708CE01AA
:102C500043960E945708BE01675E7F4FCE010196E2
:102C60000E944C094FE0B701CE0101960E94910FDE
:102C7000CE0101960E945708CE0149960E9457083E
:102C80006E960FB6F894DEBF0FBECDBFDF91CF9129
:102C90001F910F91FF90EF900895CF92DF92FF92D6
:102CA0000F931F93CF93DF93CDB7DEB72C970FB65B
:102CB000F894DEBF0FBECDBF8C016B01CE01019633
:102CC0000E944C09CE0101960E94B902F82ECE0155
:102CD00001960E945708043F81E0180720F0045F26
:102CE000114088E0F82EB601CE0107960E944C09EB
:102CF0006F2DC8010E94A0058823E9F18091641618
:102D0000BE01695F7F4F8D3401F5CE0101960E94AF
:102D10004C0963E077E1CE0101960E94CD15CE010A
:102D200001960E945708CE0107960E9457082C96DC
:102D30000FB6F894DEBF0FBECDBFDF91CF911F91CC
:102D40000F91FF90DF90CF900895CE0101960E94E1
:102D50004C09CE0101960E9494048C01CE0101968B
:102D60000E945708BE01695F7F4FCE0101960E9405
:102D70004C09B801D0CF22E030E050E040E0BE0185
:102D8000695F7F4FCE0101960E94FF0ECE01019632
:102D90000E945D11C4CF5F926F927F928F929F923B
:102DA000AF92BF92CF92DF92EF92FF920F931F9359
:102DB000CF93DF93CDB7DEB7CB5CD1090FB6F894D4
:102DC000DEBF0FBECDBF7C018E0108591F4F80E4CE
:102DD000F80111928A95E9F7CE0187559F4FF801C6
:102DE0001192E817F907E1F7C7010E9465018236E1
:102DF000F1F4C7010E946501582E65EA74E087EC82
:102E000095E10E94C107852D0E9467074801882D22
:102E1000801B851560F4C7010E948701892BD9F3B7
:102E2000C7010E946501F40181934F01F0CF63EB6C
:102E300074E0CE018A539F4F0E94EC0D69E274E06A
:102E4000CE018F549F4F0E94EC0D69E274E0CE01D9
:102E500001960E94EC0DC8010E94A406982EF8E08D
:102E6000B801CE0186549F4FF91508F449C00E945D
:102E7000EC0D892D8250990B9C0150E040E0BE0181
:102E800066547F4FCE0188559F4F0E94FF0EBE01B2
:102E900068557F4FCE0101960E940C08CE018855DF
:102EA0009F4F0E945708CE0186549F4F0E9457089B
:102EB000BE016F5F7F4FCE0186549F4F0E944C0929
:102EC00070E060E0CE0186549F4F0E94EF00FC014D
:102ED0008081853409F43FC0873509F4F5C062E08C
:102EE00070E0CE0186549F4F0E94EF00FC0180816C
:102EF0008F3409F433C1873509F0F7C08AE03CC04C
:102F00000E94EC0DB801CE0180549F4F0E94EC0D41
:102F1000CE0180549F4F0E948F02282F30E02F5FF8
:102F20003F4F50E040E0BE0166547F4FCE018855D0
:102F30009F4F0E94FF0EBE0168557F4FCE01019644
:102F40000E940C08CE0188559F4F0E945708CE0161
:102F500080549F4FA6CF62E070E0CE0186549F4F11
:102F60000E94EF00FC0180818F3429F0873509F43D
:102F7000F1C081E001C084E08987CE0186549F4F73
:102F80000E945708892D90E0E6E6F0E0EC0FFD1F67
:102F9000E80FF91F20812F8327E630E02C0F3D1F1B
:102FA000820F931FFC0180818887BE016F5F7F4F76
:102FB000CE018F549F4F0E940C088F81C954DF4F60
:102FC0008883C75BD0408885C854DF4F8883C85B3F
:102FD000D0408985C754DF4F8883C95BD040CE017C
:102FE00001960E945708BE016F547F4F87EC95E110
:102FF0000E94ED07BE016F547F4FCE018A539F4F51
:103000000E943509BE016F547F4FCE0101960E9488
:103010003F0CBE016F5F7F4FC8010E94AF06982E24
:10302000CE0101960E945708992009F442C266EB2E
:1030300074E087EC95E10E94C10765EC74E087ECD1
:1030400095E10E94C107BE016F547F4F87EC95E167
:103050000E94ED0761E070E0CE018F549F4F0E9407
:10306000EF00FC019081C754DF4F8881C95BD040DD
:103070009D3409F014C18B3009F4E9C008F070C028
:103080008A3009F4FDC0CE018F549F4F0E9457082B
:10309000CE018A539F4F0E945708C553DF4F0FB68A
:1030A000F894DEBF0FBECDBFDF91CF911F910F917E
:1030B000FF90EF90DF90CF90BF90AF909F908F9058
:1030C0007F906F905F90089562E070E0CE0186542B
:1030D0009F4F0E94EF00FC0180818F3421F08735E3
:1030E000D9F182E049CF86E047CFBE0166547F4FD9
:1030F000CE0188559F4F0E944C09CE0188559F4FA5
:103100000E948F02682F70E0CE0186549F4F0E946C
:10311000EF00FC0180818F3391F4C8010E94A40666
:10312000282F2350330BB901CE0186549F4F0E94A4
:10313000EF0088248394FC0180818F3309F4812C73
:10314000CE0188559F4F0E9457088FE0811014CF01
:1031500084E112CF83E010CF85E00ECF8BE00CCF5F
:103160008F3009F480C0843109F08DCFBE016F54D7
:103170007F4FCE0188559F4F0E944C09CE01885544
:103180009F4F0E948F02282F30E042E050E0BE01A6
:103190006F547F4FCE0101960E94FF0ECE01019623
:1031A0000E9401086B01CE0101960E945708CE01D2
:1031B00088559F4F0E945708BE016F547F4FCE0124
:1031C00001960E944C09CE0101960E948F02682F41
:1031D00070E0CE018F549F4F0E94EF00FC01B08041
:1031E000CE0101960E945708FDE3BE01BF1222C026
:1031F0006A537F4FCE0101960E944C09BE016F5465
:103200007F4FCE0188559F4F0E944C099801AE0117
:103210004F5F5F4FBE0168557F4FC6010E942C145F
:10322000CE0188559F4F0E945708CE0101960E94FB
:10323000570829CF6F547F4FCE0101960E944C0949
:10324000BE016F5F7F4FC6010E944D16EECFBE01DB
:103250006F547F4FCE0101960E944C09CE0101961A
:103260000E94A20DE2CFBE016F547F4FCE010196A6
:103270000E944C09B801CE0101960E948E14D5CF50
:1032800063E077E1CE0101960E94530CCE010196D6
:103290000E94D507CE0101960E945F08F4CE8430CB
:1032A00009F45DC0D8F49FEF980F923000F1EAE284
:1032B000EE16E5E1FE0609F484C0FDE8EF16F4E140
:1032C000FF0609F4A7C020EFE21623E1F20609F099
:1032D0007CC061EDC62E67E1D62E77C0863039F707
:1032E0001092671680912E189091C7173EC02AE25F
:1032F000E21625E1F20679F03DE8E31634E1F30643
:1033000049F190EFE91693E1F90649F4F1EDAF2E9A
:10331000F7E1BF2E04C0B8E3AB2EB8E1BB2EB092EC
:10332000E613A092E513F501E45AFF4F813021F036
:1033300081E0F501E35AFF4F8083BE016F547F4F58
:10334000CE0101960E943F0CB501CE0101960E946C
:10335000D10C6BCFAAE6AA2EA7E1BA2EE0CF10922D
:10336000661680912D189091C617992389F08111C6
:1033700011C00AE617E11093E6130093E513BE01AE
:103380006F547F4FCE0101960E943F0CB801DDCFF4
:10339000811114C0209130183091311840913218A9
:1033A000509133186091C9177091CA178091CB174B
:1033B0009091CC170E94682587FDDBCF01ED17E1C6
:1033C000DACFE8E3CE2EE8E1DE2ED092E613C0920B
:1033D000E51361E070E0CE018F549F4F0E94EF0033
:1033E000FC0180818235D9F45CEBA52E5FE0B52E1F
:1033F0007801C8010E94A4069701201B310B821797
:1034000013060CF44DC0F70181917F01F501819302
:103410005F01EFCF7AE6C72E77E1D72ED6CF61E0F6
:1034200070E0CE018F549F4F0E94EF00FC0180811D
:103430008334A9F44CE7A42E4FE0B42E7801C801E0
:103440000E94A4069701201B310B8217130644F13A
:10345000F70181917F01F50181935F01F0CF61E078
:1034600070E0CE018F549F4F0E94EF00FC018081DD
:10347000863409F008CE3CE3A32E3FE0B32E78015A
:10348000C8010E94A4069701201B310B8217130666
:103490003CF0F70181917F01F50181935F01F0CF4D
:1034A000BE016F547F4FCE0101960E943F0CB601C2
:1034B0004CCF68ED74E087EC95E10E94C107FAE219
:1034C000EF16F5E1FF0681F02DE8E21624E1F206A1
:1034D00009F459C030EFE31633E1F30649F481ED06
:1034E000682E87E1782E04C028E3622E28E1722E30
:1034F0007092E6136092E513B301CE0101960E942B
:10350000530CBE016F547F4FCE0188559F4F0E94D0
:103510003F0C69E274E0CE0180549F4F0E94EC0D95
:10352000C055DF4F8881C05BD040813021F09DEFD6
:10353000980F923068F568EE74E0CE0180549F4F8A
:103540000E941209BE0160547F4FCE0186549F4FE6
:103550000E944C0943E0BE016F5F7F4FCE0186544D
:103560009F4F0E94910FCE0186549F4F0E94570893
:10357000CE0180549F4F0E945708CE0188559F4F1F
:103580000E94570887CE9AE6692E97E1792EB0CF30
:10359000823019F08550823088F46DEE74E0CE01EF
:1035A00080549F4F0E941209BE0160547F4FCE018C
:1035B00086549F4F0E944C0945E0CDCF61E070E0FA
:1035C000CE0188559F4F0E94EF00FC010081002E24
:1035D000000C110B70E060E0CE0188559F4F0E94F7
:1035E000EF00FC018081B801680F711D87FD7A959D
:1035F00066517B4FCE0180549F4F0E941209BE013D
:1036000060547F4FCE0186549F4F0E944C094AE080
:10361000A2CFCF93DF93EC010E94870105972CF096
:10362000CE01DF91CF910C94CB16DF91CF9108950D
:103630001F920F920FB60F9211242F933F938F93E7
:103640009F93AF93BF938091EC139091ED13A09152
:10365000EE13B091EF133091EB1323E0230F2D37CE
:1036600058F50196A11DB11D2093EB138093EC1327
:103670009093ED13A093EE13B093EF138091E713A3
:103680009091E813A091E913B091EA130196A11D5E
:10369000B11D8093E7139093E813A093E913B093BF
:1036A000EA13BF91AF919F918F913F912F910F900E
:1036B0000FBE0F901F90189526E8230F0296A11DAC
:1036C000B11DD2CF1F920F920FB60F9211240BB6DD
:1036D0000F922F933F934F935F936F937F938F93AB
:1036E0009F93AF93BF93EF93FF9380EF93E10E947B
:1036F000BB01FF91EF91BF91AF919F918F917F910E
:103700006F915F914F913F912F910F900BBE0F9052
:103710000FBE0F901F9018951F920F920FB60F9229
:1037200011240BB60F922F933F934F935F936F9398
:103730007F938F939F93AF93BF93EF93FF9380EF0C
:1037400093E10E943D01FF91EF91BF91AF919F9155
:103750008F917F916F915F914F913F912F910F903A
:103760000BBE0F900FBE0F901F9018951F920F92D7
:103770000FB60F9211240BB60F922F933F934F93D6
:103780005F936F937F938F939F93AF93BF93EF93C9
:10379000FF938DE894E10E94BB01FF91EF91BF91EF
:1037A000AF919F918F917F916F915F914F913F91D9
:1037B0002F910F900BBE0F900FBE0F901F9018957A
:1037C0001F920F920FB60F9211240BB60F922F93E8
:1037D0003F934F935F936F937F938F939F93AF9399
:1037E000BF93EF93FF938DE894E10E943D01FF9119
:1037F000EF91BF91AF919F918F917F916F915F9169
:103800004F913F912F910F900BBE0F900FBE0F90D5
:103810001F9018951F920F920FB60F9211240BB69E
:103820000F922F933F934F935F936F937F938F9359
:103830009F93AF93BF93EF93FF938AE295E10E942A
:10384000BB01FF91EF91BF91AF919F918F917F91BC
:103850006F915F914F913F912F910F900BBE0F9001
:103860000FBE0F901F9018951F920F920FB60F92D8
:1038700011240BB60F922F933F934F935F936F9347
:103880007F938F939F93AF93BF93EF93FF938AE2BE
:1038900095E10E943D01FF91EF91BF91AF919F9102
:1038A0008F917F916F915F914F913F912F910F90E9
:1038B0000BBE0F900FBE0F901F9018951F920F9286
:1038C0000FB60F9211240BB60F922F933F934F9385
:1038D0005F936F937F938F939F93AF93BF93EF9378
:1038E000FF9387EC95E10E94BB01FF91EF91BF919F
:1038F000AF919F918F917F916F915F914F913F9188
:103900002F910F900BBE0F900FBE0F901F90189528
:103910001F920F920FB60F9211240BB60F922F9396
:103920003F934F935F936F937F938F939F93AF9347
:10393000BF93EF93FF9387EC95E10E943D01FF91C8
:10394000EF91BF91AF919F918F917F916F915F9117
:103950004F913F912F910F900BBE0F900FBE0F9084
:103960001F901895EF92FF920F931F93CF93DF93C1
:10397000EC018C017C018AE5E80EF11C69E274E03F
:10398000C8010E94EC0D075F1F4FE016F106B1F76A
:10399000CB59DF4F87EC95E199838883DF91CF91F5
:1039A0001F910F91FF90EF9008950F931F93CF9366
:1039B000DF931092F3131092F21348EE53E060E09D
:1039C00070E04093F4135093F5136093F6137093E3
:1039D000F71389E194E09093F1138093F01325E3BA
:1039E00031E03093FD132093FC1324E331E0309356
:1039F000FF132093FE1320E331E030930114209352
:103A0000001421E331E0309303142093021422E3E5
:103A100031E0309305142093041426E331E0309311
:103A20000714209306141092091410920A1410928D
:103A30000B1410920C141092901410928F14409347
:103A400091145093921460939314709394149093E0
:103A50008E1480938D1425ED30E030939A142093CA
:103A6000991424ED30E030939C1420939B1420EDA6
:103A700030E030939E1420939D1421ED30E030937C
:103A8000A01420939F1422ED30E03093A2142093D1
:103A9000A11426ED30E03093A4142093A3141092C7
:103AA000A6141092A7141092A8141092A9141092A0
:103AB0002D1510922C1540932E1550932F156093B1
:103AC00030157093311590932B1580932A152DEC9A
:103AD00030E030933715209336152CEC30E03093DE
:103AE00039152093381528EC30E030933B1520939E
:103AF0003A1529EC30E030933D1520933C152AEC23
:103B000030E030933F1520933E152EEC30E030939B
:103B100041152093401510924315109244151092B0
:103B20004515109246151092CA151092C91540936A
:103B3000CB155093CC156093CD157093CE15909303
:103B4000C8158093C71585EC90E09093D4158093A9
:103B5000D31584EC90E09093D6158093D51580EC26
:103B600090E09093D8158093D71581EC90E09093D6
:103B7000DA158093D91582EC90E09093DC15809350
:103B8000DB1586EC90E09093DE158093DD151092A6
:103B9000E0151092E1151092E2151092E315C7E6B8
:103BA000E4EDF9E1DF018C2F1D928A95E9F7CF0151
:103BB0000E94B21CEDE6F9E1DF018C2F1D928A957F
:103BC000E9F7CF010E94B21CE6E0F9E1DF018C2F9A
:103BD0001D928A95E9F7CF010E94B21CEFE6F6E14B
:103BE000DF011D92CA95E9F7CF010E94B21C109225
:103BF000651610926616109267161092681687EC7A
:103C000095E190936E1680936D16C6EDD6E103E0B4
:103C100017E169E274E0CE010E94EC0D29960C17C1
:103C20001D07B9F783E097E10E94B21C8AE697E18D
:103C30000E94B21C81ED97E10E94B21C88E398E1DA
:103C40000E94B21C8FE998E1DF91CF911F910F91F3
:103C50000C94B21CCF93DF93CDB7DEB7C45AD10911
:103C60000FB6F894DEBF0FBECDBF789484B58260E6
:103C700084BD84B5816084BD85B5826085BD85B510
:103C8000816085BD80916E00816080936E0010928E
:103C90008100809181008260809381008091810009
:103CA000816080938100809180008160809380009A
:103CB0008091B10084608093B1008091B0008160F8
:103CC0008093B000809191008260809391008091F8
:103CD0009100816080939100809190008160809339
:103CE00090008091A10082608093A1008091A1004A
:103CF00081608093A1008091A00081608093A000EA
:103D00008091210182608093210180912101816055
:103D10008093210180912001816080932001809116
:103D20007A00846080937A0080917A008260809328
:103D30007A0080917A00816080937A0080917A0085
:103D4000806880937A001092C10087EC95E10E9410
:103D5000B9008DE894E19093D0178093CF178AE251
:103D600095E190939E1880939D1880EF93E1909336
:103D70003718809336188DE894E10E94B90080913D
:103D80003618909137180E94B90080919D18909133
:103D90009E180E94B9008DE48093641689E6809392
:103DA000071086E68093CC1381E79DE3A8ECB2E48C
:103DB0008093CD139093CE13A093CF13B093D013D1
:103DC000EC961FAE1EAEEC97EE961FAE1EAEEE97B3
:103DD000C258DF4F19821882CE57D0404AE0BE0148
:103DE0006F5F7F4F83E592E00E943E25BE016F5FCB
:103DF0007F4FCE0186589F4F0E94120963E4CE0187
:103E00008F589F4F0E941C0960916416CE01019645
:103E10000E941C09BE016F5F7F4FCE0188599F4FE2
:103E20000E944C09BE016F587F4FCE0188599F4FA9
:103E30000E94DE08BE0166587F4F0E94DE0862EFD6
:103E400074E00E94C808BC01CE018D579F4F0E94AC
:103E50004C09CE0188599F4F0E945708CE01019608
:103E60000E945708CE018F589F4F0E945708CE01DD
:103E700086589F4F0E94570880916416BE016D5767
:103E80007F4F8D3409F00EC1CE0101960E944C097E
:103E900044E163E077E1CE0101960E94910FCE01EB
:103EA00001960E945708CE018D579F4F0E945708D8
:103EB00063E077E1CE0101960E94530CBE016F5F73
:103EC0007F4FCE018D579F4F0E94FD0DCE01019671
:103ED0000E945F0880915D17811104C080915E1778
:103EE000882331F02EE1C557DF4F2883CB58D040CF
:103EF0000E94E3000E946D252091621730916317A4
:103F000040916417509165170E948C260E94F926F3
:103F10004B015C0168E378E1CE0101960E94530CED
:103F2000BE016F5F7F4FCE0186589F4F0E94FD0DEF
:103F3000CE0101960E945F080E94E3006B017C01A4
:103F400098E3292E98E1392E80919718909198182E
:103F5000A0919918B0919A18CB56DF4F8883998316
:103F6000AA83BB83C559D0406AE677E1CE010196AA
:103F70000E94530CBE016F5F7F4FCE018F589F4F41
:103F80000E94FD0DCE0101960E945F080E94E30091
:103F90002B013C018091C9179091CA17A091CB17B2
:103FA000B091CC17C756DF4F88839983AA83BB8310
:103FB000C959D04061ED77E1CE0101960E94530CC2
:103FC000BE016F5F7F4FCE0188599F4F0E94FD0D4C
:103FD000CE0101960E945F080E94E300C356DF4FA6
:103FE000688379838A839B83CD59D0408091301830
:103FF00090913118A0913218B0913318CF55DF4FFE
:1040000088839983AA83BB83C15AD04069E274E054
:10401000CE0101960E94EC0DC557DF4F0881CB58A9
:10402000D040CE57DF4F1881C258D040011708F05A
:1040300050C0A3E0B7E1B093E613A093E513BE012F
:104040006D577F4FCE0101960E94BC0C0985EA9600
:104050001FADEA97011708F479C0C301B2010E94AD
:104060006D25C756DF4F288139814A815B81C95947
:10407000D0400E948C260E94F9266B017C0110170B
:1040800008F057C08AE697E19093E6138093E51312
:10409000BE016F587F4FCE0101960E94BC0C4601B5
:1040A000570154C0CE0101960E944C09CE010196E1
:1040B0000E9494048C01CE0101960E945708BE0113
:1040C0006D577F4FCE0101960E944C0944E1B80123
:1040D000E2CEC701B6010E946D25CB56DF4F288185
:1040E00039814A815B81C559D0400E948C260E944B
:1040F000F9266B017C01101770F43092E6132092C0
:10410000E513BE0166587F4FCE0101960E94BC0C9C
:10411000460157019BCF011399CFC814D904EA0473
:10412000FB0458F7E3E0F7E1F093E613E093E513BF
:1041300086CFCE57DF4F8881C258D040181306C0B3
:10414000C814D904EA04FB0408F09CCF9985E196D1
:104150008FADE197981708F043C0BE016F5F7F4FA6
:10416000CE0184579F4F0E94DC06CE0101960E942B
:104170005708CE0188599F4F0E945708CE018F588B
:104180009F4F0E945708CE0186589F4F0E945708A4
:10419000CE018D579F4F0E94570880916616882345
:1041A00009F46EC00E94E3000091691610916A162E
:1041B00020916B1630916C16601B710B820B930B68
:1041C0006C32714081059105D8F18091651683307C
:1041D00090F164EF74E087EC95E10E94C107FFCF96
:1041E000891750F481ED97E19093E6138093E513DE
:1041F000BE0168597F4FB4CF9813B7CFC356DF4F76
:10420000688179818A819B81CD59D0400E946D253A
:10421000CF55DF4F288139814A815B81C15AD04017
:104220000E948C260E94F926681579058A059B054F
:1042300008F493CFD7CF8F5F8093651610926616E0
:10424000CE0184579F4F0E9457088DE894E10E9449
:10425000091B8AE295E10E94091B80EF93E10E940D
:10426000091B8091000290910102019731F482E0D4
:1042700090E090930102809300020E944A0218CEBF
:10428000CC56DF4F8881C459D0408E31C9F269E1E4
:1042900075E087EC95E10E94C107BE0164577F4F2E
:1042A00087EC95E10E94ED07CC56DF4F8881C45919
:1042B000D0408130B1F4BE0164577F4FCE010196EA
:1042C0000E943F0C61E0CE0101960E945509CE018B
:1042D00001960E94570861E08091E5139091E613E2
:1042E00056C390916716992329F10E94E30000912B
:1042F000691610916A1620916B1630916C16601B2E
:10430000710B820B930B6C3271408105910508F49F
:1043100097CF80916516833038F064EF74E087ECB6
:1043200095E10E94C107FFCF8F5F809365161092C1
:10433000671686CF8250BE0164577F4F853098F450
:10434000CE0101960E943F0C62E0CE0101960E94D0
:104350005509CE0101960E945708CC56DF4F68815F
:10436000C459D040B9CFCE0101960E944C09CE016C
:1043700001960E949404CE0101960E94570870E0B5
:1043800060E0CE0184579F4F0E94EF00DC018C91CA
:10439000BE0164577F4F8D3409F0C4C2CE018859E5
:1043A0009F4F0E943F0CBE0168597F4FCE0101967E
:1043B0000E944C09CE0101960E9494048C01CE010A
:1043C00001960E94570880915D17882321F0809103
:1043D0005E1781118AC2AD96FFACAD97E1968FADA5
:1043E000E1978F30F1F0843109F0CDC1BE016859F9
:1043F0007F4FCE0101960E944C09CE0101960E948A
:104400008F02682F70E0CE0188599F4F0E94EF0005
:10441000FC011081CE0101960E9457081D3309F05E
:10442000B2C1BE0168597F4FCE0101960E944C096E
:10443000CE0101960E94A3038C01CE0101960E9439
:104440005708BE0168597F4FCE018F589F4F0E9479
:104450004C09CE018F589F4F0E948F02282F30E0C9
:1044600042E050E0BE0168597F4FCE0101960E94A4
:10447000FF0ECE0101960E9401084B016B01CE0197
:1044800001960E945708CE018F589F4F0E945708EF
:10449000F4EF8F16F1E09F0630F024EFC21A21E00E
:1044A000D20A01EF11E185E08C9DF0018D9DF00DA8
:1044B0001124E00FF11F908194360CF048C1923620
:1044C0000CF04FC1933509F44FC161E070E0CE01AB
:1044D00088599F4F0E94EF00FC018081823509F0CE
:1044E00055C10E94E3000E946D2560939718709358
:1044F00098188093991890939A180AE215E16AE344
:1045000074E087EC95E10E94C1078F2D0E94670738
:1045100069E474E0C8010E940C07D801ED91FC9198
:104520000190F081E02D6F2DC8011995BE016859E9
:104530007F4FC8010E940201E1968FADE1978F3055
:10454000F1F0843109F09BC0BE0168597F4FCE0164
:1045500001960E944C09CE0101960E948F02682F9D
:1045600070E0CE0188599F4F0E94EF00FC01F0805F
:10457000CE0101960E945708FDE3FF1280C0BE01E4
:1045800068597F4FCE0101960E944C09CE010196D9
:104590000E94A3037C01CE0101960E945708BE0130
:1045A00068597F4FCE018F589F4F0E944C09CE0112
:1045B0008F589F4F0E948F02282F30E042E050E03A
:1045C000BE0168597F4FCE0101960E94FF0ECE01B9
:1045D00001960E9401084B016B01CE0101960E94D9
:1045E0005708CE018F589F4F0E94570824EF82161C
:1045F00021E0920640F084EFC81A81E0D80A81EFEA
:10460000E82E81E1F82E95E09C9DD0019D9DB00D96
:104610001124AE0DBF1D8C9184360CF0E0C08236A3
:104620000CF0FBC0833509F432C1E1968FADE19700
:10463000843109F050C1BE0168597F4FCE01019607
:104640000E944C09CE0101960E948F02682F70E0F3
:10465000CE0188599F4F0E94EF00DC01FC90CE01F3
:1046600001960E945708BDE3FB1235C16CE275E06C
:1046700087EC95E10E94C107E1E0E0935E17D80165
:10468000ED91FC910190F081E02DAF966FADAF9769
:10469000C8011995D801ED91FC910190F081E02DB0
:1046A000E0966FADE097C801199568E770E0C80122
:1046B0000E94D506BE0168597F4FCE0101960E9427
:1046C0003F0CCE0101960E94130CCE0101960E9470
:1046D0005708CE0188599F4F0E945708BE01645762
:1046E0007F4FCE0101960E944C09CE0101960E9497
:1046F0009404CE0101960E945708CC56DF4F888162
:10470000C459D040843109F49BCD6AE375E087EC4D
:1047100095E10E94C10763E077E187EC95E10E9493
:10472000ED07CC56DF4F6881C459D04083E097E154
:104730000E94010D69E575E087EC95E10E94C107D3
:1047400063E077E187EC95E10E94ED0779CD99363A
:1047500029F09C3619F0963609F0B7CEA7E0FA0E8C
:10476000B4CE94E0F90EB1CE61817281CE01019692
:104770000E944C098D819E810396F80ECE01019610
:104780000E945708A2CEB3E0FB0E9FCE61E070E01E
:10479000CE0188599F4F0E94EF00DC018C91833439
:1047A00079F40E94E3000E946D256093C91770930D
:1047B000CA178093CB179093CC170DE814E19FCEC6
:1047C0000E94E3000E946D256093301870933118A9
:1047D000809332189093331800EF13E190CE89360E
:1047E00041F18C36E9F1863609F01FCF7D01EFEFFC
:1047F000EE1AFE0A6D01F5E0CF0ED11CD7016D91C6
:104800007D01D801ED91FC910190F081E02DC8016E
:104810001995CE14DF0491F708CFF80180819181BA
:10482000FC012081318111966C91C801F901199523
:10483000FCCE7D01FFEFEF1AFF0A6D0125E0C20EED
:10484000D11CD7016D917D01D801ED91FC910190B2
:10485000F081E02DC8011995CE14DF0491F7E5CE63
:104860007D01EFEFEE1AFE0A6D01F5E0CF0ED11CCF
:10487000D7016D917D01D801ED91FC910190F081FE
:10488000E02DC8011995EC14FD0491F7CECE1196D8
:104890006D917C91CE0101960E944C09F12CE12C86
:1048A0008D819E81E816F90688F4B701CE01019644
:1048B0000E94EF00FC016081062E000C770BC801FE
:1048C0000E94D506FFEFEF1AFF0AEACFCE0101964C
:1048D0000E945708AACEE1968FADE197843109F086
:1048E000CECEF1E0F0935D17CACE0E94E3000E94A5
:1048F0006D25F801E15AFF4F2081318142815381BA
:104900000E948C2620E030E046E953E40E942827EC
:1049100018160CF0DECEF801E65AFF4F10823196E1
:104920001082D7CECE0101960E943F0C63E0CE01EB
:1049300001960E945509CE0101960E945708CC5657
:10494000DF4F8881C459D040843109F006CDBE01C3
:1049500064577F4FCE0101960E944C09CE0101960B
:104960000E948F02682F70E0CE0184579F4F0E94F3
:10497000EF00FC011081CE0101960E945708809142
:10498000E5139091E61365E11D3309F0E6CC0E9432
:10499000010D56CC8FE998E10E945F0888E398E109
:1049A0000E945F0881ED97E10E945F088AE697E127
:1049B0000E945F0883E097E10E945F088AEF96E11A
:1049C0000E94570881EF96E10E94570888EE96E111
:1049D0000E9457088FED96E10E94570886ED96E1F8
:1049E0000E9457088FE696E10E945F0886E099E1F1
:1049F0000E945F088DE699E10E945F0884ED99E1CD
:104A00000C945F081F93FC0199278827BC01E89448
:104A100011911032E9F3193010F01E30C8F31B3237
:104A200051F01D3249F4689406C00E942925610F97
:104A3000711D811D911D119110531A30B0F33EF478
:104A400090958095709561957F4F8F4F9F4F1F91E7
:104A50000895592F482F372F262F660F771F881F4D
:104A6000991F660F771F881F991F620F731F841F7E
:104A7000951F660F771F881F991F0895BB27FB019D
:104A80005527AA27880F991FAA1FA41710F0A41B47
:104A900083955051B9F7A05DAA3308F0A95DA193A1
:104AA000009779F7B111B1931192CB010C9458256D
:104AB000DC01FC01672F71917723E1F7329704C085
:104AC0007C916D9370836291AE17BF07C8F3089510
:104AD0000E94AA2508F481E00895E89409C097FB94
:104AE0003EF490958095709561957F4F8F4F9F4FC5
:104AF0009923A9F0F92F96E9BB279395F695879509
:104B000077956795B795F111F8CFFAF4BB0F11F4CB
:104B100060FF1BC06F5F7F4F8F4F9F4F16C0882372
:104B200011F096E911C0772321F09EE8872F762FA8
:104B300005C0662371F096E8862F70E060E02AF0E9
:104B40009A95660F771F881FDAF7880F96958795D5
:104B500097F90895990F0008550FAA0BE0E8FEEFAA
:104B600016161706E807F907C0F012161306E40731
:104B7000F50798F0621B730B840B950B39F40A262A
:104B800061F0232B242B252B21F408950A2609F408
:104B9000A140A6958FEF811D811D08950E94E125FA
:104BA0000C9452260E94442638F00E944B2620F096
:104BB000952311F00C943B260C94412611240C945F
:104BC00086260E94632670F3959FC1F3950F50E0EF
:104BD000551F629FF001729FBB27F00DB11D639FAF
:104BE000AA27F00DB11DAA1F649F6627B00DA11D55
:104BF000661F829F2227B00DA11D621F739FB00DFB
:104C0000A11D621F839FA00D611D221F749F33276A
:104C1000A00D611D231F849F600D211D822F762F03
:104C20006A2F11249F5750409AF0F1F088234AF0E0
:104C3000EE0FFF1FBB1F661F771F881F915050404C
:104C4000A9F79E3F510580F00C943B260C948626D4
:104C50005F3FE4F3983ED4F3869577956795B795D3
:104C6000F795E7959F5FC1F7FE2B880F911D9695ED
:104C7000879597F9089597F99F6780E870E060E05D
:104C800008959FEF80EC089500240A9416161706E5
:104C900018060906089500240A941216130614062D
:104CA00005060895092E0394000C11F4882352F090
:104CB000BB0F40F4BF2B11F460FF04C06F5F7F4F48
:104CC0008F4F9F4F089557FD9058440F551F59F02F
:104CD0005F3F71F04795880F97FB991F61F09F3FE9
:104CE00079F087950895121613061406551FF2CF12
:104CF0004695F1DF08C0161617061806991FF1CF62
:104D000086957105610508940895E894BB27662788
:104D10007727CB0197F908955058BB27AA270E94FF
:104D2000A4260C9452260E94442638F00E944B265A
:104D300020F039F49F3F19F426F40C9441260EF428
:104D4000E095E7FB0C943B26E92F0E94632658F37D
:104D5000BA17620773078407950720F079F4A6F560
:104D60000C9485260EF4E0950B2EBA2FA02D0B0186
:104D7000B90190010C01CA01A0011124FF27591BA0
:104D800099F0593F50F4503E68F11A16F040A22FA6
:104D9000232F342F4427585FF3CF46953795279517
:104DA000A795F0405395C9F77EF41F16BA0B620B16
:104DB000730B840BBAF09150A1F0FF0FBB1F661F5D
:104DC000771F881FC2F70EC0BA0F621F731F841FA0
:104DD00048F4879577956795B795F7959E3F08F0C6
:104DE000B0CF9395880F08F09927EE0F9795879588
:104DF00008950E946B2688F09F5798F0B92F992745
:104E0000B751B0F0E1F0660F771F881F991F1AF0B5
:104E1000BA95C9F714C0B13091F00E948526B1E06F
:104E200008950C948526672F782F8827B85F39F06E
:104E3000B93FCCF3869577956795B395D9F73EF44E
:104E400090958095709561957F4F8F4F9F4F0895F6
:104E50000E94AA2508F48FEF08950E94AA25880BC6
:104E6000990B0895A1E21A2EAA1BBB1BFD010DC0D0
:104E7000AA1FBB1FEE1FFF1FA217B307E407F5070A
:104E800020F0A21BB30BE40BF50B661F771F881FE6
:104E9000991F1A9469F760957095809590959B017C
:104EA000AC01BD01CF010895EE0FFF1F881F8BBF1E
:104EB0000790F691E02D19940F931F93CF93DF93F2
:104EC0008230910510F482E090E0E0913D1AF0917B
:104ED0003E1A30E020E0B0E0A0E0309799F42115D0
:104EE000310509F44AC0281B390B24303105D8F5A7
:104EF0008A819B816115710589F1FB01938382830E
:104F0000FE0111C040815181028113814817590768
:104F1000E0F04817590799F4109761F012960C9336
:104F2000129713961C933296CF01DF91CF911F9168
:104F30000F91089500933D1A10933E1AF4CF211556
:104F4000310551F04217530738F0A901DB019A01EE
:104F5000BD01DF01F801C1CFEF01F9CF90933E1AF7
:104F600080933D1ACDCFFE01E20FF31F8193919301
:104F70002250310939832883D7CF20913B1A3091B1
:104F80003C1A232B41F42091040230910502309306
:104F90003C1A20933B1A2091020230910302211502
:104FA000310541F42DB73EB74091060250910702FA
:104FB000241B350BE0913B1AF0913C1AE217F307E2
:104FC000A0F42E1B3F0B2817390778F0AC014E5F79
:104FD0005F4F2417350748F04E0F5F1F50933C1A60
:104FE00040933B1A819391939FCFF0E0E0E09CCFF8
:104FF000CF93DF930097E9F0FC013297138212827E
:10500000A0913D1AB0913E1AED0130E020E01097DA
:10501000A1F420813181820F931F20913B1A30919E
:105020003C1A2817390709F061C0F0933C1AE09345
:105030003B1ADF91CF910895EA01CE17DF07E8F51B
:105040004A815B819E0141155105B1F7E901FB835E
:10505000EA8349915991C40FD51FEC17FD0761F4FC
:10506000808191810296840F951FE901998388833D
:10507000828193819B838A83F0E0E0E012968D9198
:105080009C9113970097B9F52D913C911197CD0103
:105090000296820F931F20913B1A30913C1A2817D9
:1050A000390739F6309751F510923E1A10923D1A91
:1050B000B0933C1AA0933B1ABCCFD383C2834081E8
:1050C0005181840F951FC817D90761F44E5F5F4F58
:1050D00088819981480F591F518340838A819B8120
:1050E000938382832115310509F0B0CFF0933E1AE6
:1050F000E0933D1A9ECFFD01DC01C0CF13821282E6
:10510000D7CF4F925F926F927F928F929F92AF9282
:10511000BF92CF92DF92EF92FF920F931F93CF93A4
:10512000DF938C01009799F4CB01DF91CF911F9110
:105130000F91FF90EF90DF90CF90BF90AF909F9036
:105140008F907F906F905F904F900C945C27FC0144
:10515000E60FF71F9C0122503109E217F30708F40C
:10516000AEC0D901CD91DC911197C617D70720F1B8
:10517000C530D10578F0CE0104978617970750F017
:10518000C61BD70B2297C193D1936D937C93CF010C
:105190000E94F827C801DF91CF911F910F91FF90D6
:1051A000EF90DF90CF90BF90AF909F908F907F90C7
:1051B0006F905F904F9008955B01AC1ABD0A4C014F
:1051C0008C0E9D1EA0913D1AB0913E1A512C412C7F
:1051D000F12CE12C109731F580913B1A90913C1AFB
:1051E0008815990509F05CC04616570608F058C0A6
:1051F0008091020290910302009741F48DB79EB70F
:105200004091060250910702841B950BE817F9079D
:1052100008F055C0F0933C1AE0933B1AF9017183F2
:105220006083B8CF8D919C91119712966C901297D4
:1052300013967C901397A815B90559F56C0142E0B7
:10524000C40ED11CCA14DB0420F1AC014A195B095D
:10525000DA011296159780F062827382518340833F
:10526000D9016D937C93E114F10471F0D701139689
:10527000FC93EE9312978ECF22968C0F9D1FF9010F
:1052800091838083F301EFCFF0933E1AE0933D1AB0
:1052900081CF4816590608F42C017D01D3019ACF1D
:1052A000CB010E945C277C01009749F0AE01B80158
:1052B0000E946229C8010E94F82787016BCF10E085
:1052C00000E068CFFB01DC0102C001900D9241506B
:1052D0005040D8F70895FB01DC0101900D920020A9
:1052E000E1F7089510E0C5E8D0E000E006C0802FA7
:1052F000FE010E9454272196011DC638D10780E087
:105300000807A9F7F894FFCF010000003F1A8000BA
:10531000000000000000000000000000000000008D
:10532000000000000000000000000000000000007D
:10533000000000000000000000000000000000006D
:10534000000000000000000000000000000000005D
:1055200000DD01100156012A028701650179010D94
:105530000A0050726F6772616D2073746F707065CE
:1055400064006578706563746564206C656E3A20EC
:10555000006200557064617465204F6B20616E6459
:10556000206D6573736167652052656D6F76656444
:105570000056616C75652061667465722075706493
:105580006174653A20006E616E00696E66006F7628
:10559000660053656E64696E67204F6B004D6573DE
:1055A000736167652052656D6F766564005265634F
:1055B0006965766564206C656E3A007373004368B4
:1055C00065636B53756D2076616C6964004D65731E
:1055D00073616765205265636965766564203A008A
:1055E000436865636B53756D2066616C6965640023
:1055F000457257740057725774003D0053746F70B2
:105600002050726F6772616D6D6520666F72206DDC
:10561000617820726574727920726561636865646F
:10562000004D6573736167652053656C65637465D0
:1056300064203A00747275652074726967657265DA
:1056400064006265666F72652072656D6F766520B5
:10565000757064617465206D657373616765203A68
:105660000061667465722072656D6F766520757075
:1056700064617465206D657373616765203A00002D
:020000040003F7
:10E000000D9489F10D94B2F10D94B2F10D94B2F129
:10E010000D94B2F10D94B2F10D94B2F10D94B2F1F0
:10E020000D94B2F10D94B2F10D94B2F10D94B2F1E0
:10E030000D94B2F10D94B2F10D94B2F10D94B2F1D0
:10E040000D94B2F10D94B2F10D94B2F10D94B2F1C0
:10E050000D94B2F10D94B2F10D94B2F10D94B2F1B0
:10E060000D94B2F10D94B2F10D94B2F10D94B2F1A0
:10E070000D94B2F10D94B2F10D94B2F10D94B2F190
:10E080000D94B2F10D94B2F10D94B2F10D94B2F180
:10E090000D94B2F10D94B2F10D94B2F10D94B2F170
:10E0A0000D94B2F10D94B2F10D94B2F10D94B2F160
:10E0B0000D94B2F10D94B2F10D94B2F10D94B2F150
:10E0C0000D94B2F10D94B2F10D94B2F10D94B2F140
:10E0D0000D94B2F10D94B2F10D94B2F10D94B2F130
:10E0E0000D94B2F141546D656761323536300041AF
:10E0F000726475696E6F206578706C6F72657220DE
:10E1000073746B3530305632206279204D4C530099
:10E11000426F6F746C6F616465723E004875683F52
:10E1200000436F6D70696C6564206F6E203D200048
:10E130004350552054797065202020203D20005FF9
:10E140005F4156525F415243485F5F3D2000415658
:10E1500052204C696243205665723D20004743437C
:10E160002056657273696F6E203D20004350552024
:10E1700049442020202020203D20004C6F7720663D
:10E18000757365202020203D20004869676820665F
:10E190007573652020203D200045787420667573D6
:10E1A00065202020203D20004C6F636B2066757336
:10E1B000652020203D20004D617220203720323024
:10E1C000313300312E362E3800342E332E350056A2
:10E1D00023202020414444522020206F7020636F70
:10E1E00064652020202020696E73747275637469E1
:10E1F0006F6E2061646472202020496E74657272B3
:10E20000757074006E6F20766563746F7200726A49
:10E210006D702020006A6D70200057686174207056
:10E220006F72743A00506F7274206E6F7420737541
:10E2300070706F72746564004D7573742062652030
:10E2400061206C6574746572002000577269747483
:10E25000696E672045450052656164696E672045B7
:10E26000450045452065727220636E743D00504F35
:10E27000525400303D5A65726F2061646472003FF1
:10E280003D43505520737461747300403D454550C3
:10E29000524F4D207465737400423D426C696E6B41
:10E2A000204C454400453D44756D70204545505215
:10E2B0004F4D00463D44756D7020464C415348001B
:10E2C000483D48656C70004C3D4C69737420492F83
:10E2D0004F20506F72747300513D51756974005234
:10E2E0003D44756D702052414D00563D73686F7707
:10E2F00020696E7465727275707420566563746FF0
:10E30000727300593D506F727420626C696E6B00BD
:10E310002A0011241FBECFEFD1E2DEBFCDBF01E046
:10E320000CBF12E0A0E0B2E0EEE1FDEF03E00BBFB6
:10E3300002C007900D92A030B107D9F712E0A0E01B
:10E34000B2E001C01D92AE30B107E1F70F9460F367
:10E350000D948DFE01E20EBF0FEF0DBF11241FBE05
:10E360000D9460F30D9400F020E030E040ED57E0B4
:10E3700005C0FA013197F1F72F5F3F4F2817390792
:10E38000C0F308959C01260F311DC901A0E0B0E043
:10E390002F5F3F4FABBFFC018791882361F08093D3
:10E3A000C6008091C00086FFFCCF8091C0008064D1
:10E3B0008093C000EACF08958DE08093C6008091DD
:10E3C000C00086FFFCCF8091C00080648093C000B5
:10E3D0008AE08093C6008091C00086FFFCCF8091C8
:10E3E000C00080648093C00008950F94C2F10F9420
:10E3F000DCF10895FC019081992359F09093C600B7
:10E400008091C00086FFFCCF8091C0008064809323
:10E41000C0003196992379F70895282F982F929567
:10E420009F70892F805D8A3308F0895F8093C600D2
:10E430008091C00086FFFCCF8091C00080648093F3
:10E44000C000822F8F70982F905D9A3308F0995FEB
:10E450009093C6008091C00086FFFCCF8091C000E1
:10E4600080648093C00008959C01FB01853691056E
:10E470001CF46330710594F0C90164E670E00F94F8
:10E480002EFE605D7F4F6093C6008091C00086FFC6
:10E49000FCCF8091C00080648093C0002B30310598
:10E4A00014F43297B4F0C90164E670E00F942EFEC4
:10E4B0006AE070E00F942EFE605D7F4F6093C600AF
:10E4C0008091C00086FFFCCF8091C0008064809363
:10E4D000C000C9016AE070E00F942EFEC0968093E0
:10E4E000C6008091C00086FFFCCF8091C000806490
:10E4F0008093C00008951F93182F8EE692EE60E07F
:10E500000F94C2F11093C6008091C00086FFFCCF2B
:10E510008091C00080648093C0000F94DCF11F9153
:10E5200008952F923F924F925F926F927F928F92B7
:10E530009F92AF92BF92CF92DF92EF92FF920F9392
:10E540001F93DF93CF93CDB7DEB762970FB6F894E2
:10E55000DEBF0FBECDBF382E622ECA01DB015C01CB
:10E560006D01772420E2222E2E010894411C511CBB
:10E570008BC081E0A81680E0B80681E0C80680E084
:10E58000D80628F0C601AA27BB270F940DF2BB2797
:10E59000AD2D9C2D8B2D0F940DF28A2D0F940DF225
:10E5A0002092C6008091C00086FFFCCF8091C00001
:10E5B00080648093C0009DE29093C6008091C0006B
:10E5C00086FFFCCF8091C00080648093C0002092C1
:10E5D000C6008091C00086FFFCCF8091C00080649F
:10E5E0008093C00019828601750188249924A1E0D6
:10E5F0003A1651F03A1620F0B2E03B1661F409C029
:10E600000BBFF701779007C0C7010F9477FE782EF4
:10E6100002C0F7017080872D0F940DF22092C60082
